{
  "contractName": "Land",
  "abi": [
    {
      "inputs": [],
      "payable": false,
      "stateMutability": "nonpayable",
      "type": "constructor"
    },
    {
      "anonymous": false,
      "inputs": [
        {
          "indexed": false,
          "internalType": "address",
          "name": "_sellerId",
          "type": "address"
        }
      ],
      "name": "LandRequested",
      "type": "event"
    },
    {
      "anonymous": false,
      "inputs": [
        {
          "indexed": false,
          "internalType": "address",
          "name": "_registrationId",
          "type": "address"
        }
      ],
      "name": "Registration",
      "type": "event"
    },
    {
      "anonymous": false,
      "inputs": [
        {
          "indexed": false,
          "internalType": "address",
          "name": "_id",
          "type": "address"
        }
      ],
      "name": "Rejected",
      "type": "event"
    },
    {
      "anonymous": false,
      "inputs": [
        {
          "indexed": false,
          "internalType": "uint256",
          "name": "_reqId",
          "type": "uint256"
        }
      ],
      "name": "RequestApproved",
      "type": "event"
    },
    {
      "anonymous": false,
      "inputs": [
        {
          "indexed": false,
          "internalType": "address",
          "name": "_id",
          "type": "address"
        }
      ],
      "name": "Verified",
      "type": "event"
    },
    {
      "constant": true,
      "inputs": [
        {
          "internalType": "address",
          "name": "",
          "type": "address"
        }
      ],
      "name": "BuyerMapping",
      "outputs": [
        {
          "internalType": "address",
          "name": "id",
          "type": "address"
        },
        {
          "internalType": "string",
          "name": "name",
          "type": "string"
        },
        {
          "internalType": "uint256",
          "name": "age",
          "type": "uint256"
        },
        {
          "internalType": "string",
          "name": "city",
          "type": "string"
        },
        {
          "internalType": "string",
          "name": "aadharNumber",
          "type": "string"
        },
        {
          "internalType": "string",
          "name": "panNumber",
          "type": "string"
        },
        {
          "internalType": "string",
          "name": "document",
          "type": "string"
        },
        {
          "internalType": "string",
          "name": "email",
          "type": "string"
        }
      ],
      "payable": false,
      "stateMutability": "view",
      "type": "function"
    },
    {
      "constant": true,
      "inputs": [
        {
          "internalType": "address",
          "name": "",
          "type": "address"
        }
      ],
      "name": "BuyerRejection",
      "outputs": [
        {
          "internalType": "bool",
          "name": "",
          "type": "bool"
        }
      ],
      "payable": false,
      "stateMutability": "view",
      "type": "function"
    },
    {
      "constant": true,
      "inputs": [
        {
          "internalType": "address",
          "name": "",
          "type": "address"
        }
      ],
      "name": "BuyerVerification",
      "outputs": [
        {
          "internalType": "bool",
          "name": "",
          "type": "bool"
        }
      ],
      "payable": false,
      "stateMutability": "view",
      "type": "function"
    },
    {
      "constant": true,
      "inputs": [
        {
          "internalType": "uint256",
          "name": "",
          "type": "uint256"
        }
      ],
      "name": "InspectorMapping",
      "outputs": [
        {
          "internalType": "uint256",
          "name": "id",
          "type": "uint256"
        },
        {
          "internalType": "string",
          "name": "name",
          "type": "string"
        },
        {
          "internalType": "uint256",
          "name": "age",
          "type": "uint256"
        },
        {
          "internalType": "string",
          "name": "designation",
          "type": "string"
        }
      ],
      "payable": false,
      "stateMutability": "view",
      "type": "function"
    },
    {
      "constant": true,
      "inputs": [
        {
          "internalType": "uint256",
          "name": "",
          "type": "uint256"
        }
      ],
      "name": "LandOwner",
      "outputs": [
        {
          "internalType": "address",
          "name": "",
          "type": "address"
        }
      ],
      "payable": false,
      "stateMutability": "view",
      "type": "function"
    },
    {
      "constant": true,
      "inputs": [
        {
          "internalType": "uint256",
          "name": "",
          "type": "uint256"
        }
      ],
      "name": "LandVerification",
      "outputs": [
        {
          "internalType": "bool",
          "name": "",
          "type": "bool"
        }
      ],
      "payable": false,
      "stateMutability": "view",
      "type": "function"
    },
    {
      "constant": true,
      "inputs": [],
      "name": "Land_Inspector",
      "outputs": [
        {
          "internalType": "address",
          "name": "",
          "type": "address"
        }
      ],
      "payable": false,
      "stateMutability": "view",
      "type": "function"
    },
    {
      "constant": true,
      "inputs": [
        {
          "internalType": "uint256",
          "name": "",
          "type": "uint256"
        }
      ],
      "name": "PaymentReceived",
      "outputs": [
        {
          "internalType": "bool",
          "name": "",
          "type": "bool"
        }
      ],
      "payable": false,
      "stateMutability": "view",
      "type": "function"
    },
    {
      "constant": true,
      "inputs": [
        {
          "internalType": "address",
          "name": "",
          "type": "address"
        }
      ],
      "name": "RegisteredAddressMapping",
      "outputs": [
        {
          "internalType": "bool",
          "name": "",
          "type": "bool"
        }
      ],
      "payable": false,
      "stateMutability": "view",
      "type": "function"
    },
    {
      "constant": true,
      "inputs": [
        {
          "internalType": "address",
          "name": "",
          "type": "address"
        }
      ],
      "name": "RegisteredBuyerMapping",
      "outputs": [
        {
          "internalType": "bool",
          "name": "",
          "type": "bool"
        }
      ],
      "payable": false,
      "stateMutability": "view",
      "type": "function"
    },
    {
      "constant": true,
      "inputs": [
        {
          "internalType": "address",
          "name": "",
          "type": "address"
        }
      ],
      "name": "RegisteredSellerMapping",
      "outputs": [
        {
          "internalType": "bool",
          "name": "",
          "type": "bool"
        }
      ],
      "payable": false,
      "stateMutability": "view",
      "type": "function"
    },
    {
      "constant": true,
      "inputs": [
        {
          "internalType": "uint256",
          "name": "",
          "type": "uint256"
        }
      ],
      "name": "RequestStatus",
      "outputs": [
        {
          "internalType": "bool",
          "name": "",
          "type": "bool"
        }
      ],
      "payable": false,
      "stateMutability": "view",
      "type": "function"
    },
    {
      "constant": true,
      "inputs": [
        {
          "internalType": "uint256",
          "name": "",
          "type": "uint256"
        }
      ],
      "name": "RequestedLands",
      "outputs": [
        {
          "internalType": "bool",
          "name": "",
          "type": "bool"
        }
      ],
      "payable": false,
      "stateMutability": "view",
      "type": "function"
    },
    {
      "constant": true,
      "inputs": [
        {
          "internalType": "uint256",
          "name": "",
          "type": "uint256"
        }
      ],
      "name": "RequestsMapping",
      "outputs": [
        {
          "internalType": "uint256",
          "name": "reqId",
          "type": "uint256"
        },
        {
          "internalType": "address",
          "name": "sellerId",
          "type": "address"
        },
        {
          "internalType": "address",
          "name": "buyerId",
          "type": "address"
        },
        {
          "internalType": "uint256",
          "name": "landId",
          "type": "uint256"
        }
      ],
      "payable": false,
      "stateMutability": "view",
      "type": "function"
    },
    {
      "constant": true,
      "inputs": [
        {
          "internalType": "address",
          "name": "",
          "type": "address"
        }
      ],
      "name": "SellerMapping",
      "outputs": [
        {
          "internalType": "address",
          "name": "id",
          "type": "address"
        },
        {
          "internalType": "string",
          "name": "name",
          "type": "string"
        },
        {
          "internalType": "uint256",
          "name": "age",
          "type": "uint256"
        },
        {
          "internalType": "string",
          "name": "aadharNumber",
          "type": "string"
        },
        {
          "internalType": "string",
          "name": "panNumber",
          "type": "string"
        },
        {
          "internalType": "string",
          "name": "landsOwned",
          "type": "string"
        },
        {
          "internalType": "string",
          "name": "document",
          "type": "string"
        }
      ],
      "payable": false,
      "stateMutability": "view",
      "type": "function"
    },
    {
      "constant": true,
      "inputs": [
        {
          "internalType": "address",
          "name": "",
          "type": "address"
        }
      ],
      "name": "SellerRejection",
      "outputs": [
        {
          "internalType": "bool",
          "name": "",
          "type": "bool"
        }
      ],
      "payable": false,
      "stateMutability": "view",
      "type": "function"
    },
    {
      "constant": true,
      "inputs": [
        {
          "internalType": "address",
          "name": "",
          "type": "address"
        }
      ],
      "name": "SellerVerification",
      "outputs": [
        {
          "internalType": "bool",
          "name": "",
          "type": "bool"
        }
      ],
      "payable": false,
      "stateMutability": "view",
      "type": "function"
    },
    {
      "constant": true,
      "inputs": [
        {
          "internalType": "uint256",
          "name": "",
          "type": "uint256"
        }
      ],
      "name": "buyers",
      "outputs": [
        {
          "internalType": "address",
          "name": "",
          "type": "address"
        }
      ],
      "payable": false,
      "stateMutability": "view",
      "type": "function"
    },
    {
      "constant": true,
      "inputs": [],
      "name": "buyersCount",
      "outputs": [
        {
          "internalType": "uint256",
          "name": "",
          "type": "uint256"
        }
      ],
      "payable": false,
      "stateMutability": "view",
      "type": "function"
    },
    {
      "constant": true,
      "inputs": [],
      "name": "contractOwner",
      "outputs": [
        {
          "internalType": "address",
          "name": "ownerAddress",
          "type": "address"
        }
      ],
      "payable": false,
      "stateMutability": "view",
      "type": "function"
    },
    {
      "constant": true,
      "inputs": [],
      "name": "inspectorsCount",
      "outputs": [
        {
          "internalType": "uint256",
          "name": "",
          "type": "uint256"
        }
      ],
      "payable": false,
      "stateMutability": "view",
      "type": "function"
    },
    {
      "constant": true,
      "inputs": [
        {
          "internalType": "uint256",
          "name": "",
          "type": "uint256"
        }
      ],
      "name": "lands",
      "outputs": [
        {
          "internalType": "uint256",
          "name": "id",
          "type": "uint256"
        },
        {
          "internalType": "uint256",
          "name": "area",
          "type": "uint256"
        },
        {
          "internalType": "string",
          "name": "city",
          "type": "string"
        },
        {
          "internalType": "string",
          "name": "state",
          "type": "string"
        },
        {
          "internalType": "uint256",
          "name": "landPrice",
          "type": "uint256"
        },
        {
          "internalType": "uint256",
          "name": "propertyPID",
          "type": "uint256"
        },
        {
          "internalType": "uint256",
          "name": "physicalSurveyNumber",
          "type": "uint256"
        },
        {
          "internalType": "string",
          "name": "ipfsHash",
          "type": "string"
        },
        {
          "internalType": "string",
          "name": "document",
          "type": "string"
        }
      ],
      "payable": false,
      "stateMutability": "view",
      "type": "function"
    },
    {
      "constant": true,
      "inputs": [],
      "name": "landsCount",
      "outputs": [
        {
          "internalType": "uint256",
          "name": "",
          "type": "uint256"
        }
      ],
      "payable": false,
      "stateMutability": "view",
      "type": "function"
    },
    {
      "constant": true,
      "inputs": [],
      "name": "requestsCount",
      "outputs": [
        {
          "internalType": "uint256",
          "name": "",
          "type": "uint256"
        }
      ],
      "payable": false,
      "stateMutability": "view",
      "type": "function"
    },
    {
      "constant": true,
      "inputs": [
        {
          "internalType": "uint256",
          "name": "",
          "type": "uint256"
        }
      ],
      "name": "sellers",
      "outputs": [
        {
          "internalType": "address",
          "name": "",
          "type": "address"
        }
      ],
      "payable": false,
      "stateMutability": "view",
      "type": "function"
    },
    {
      "constant": true,
      "inputs": [],
      "name": "sellersCount",
      "outputs": [
        {
          "internalType": "uint256",
          "name": "",
          "type": "uint256"
        }
      ],
      "payable": false,
      "stateMutability": "view",
      "type": "function"
    },
    {
      "constant": false,
      "inputs": [
        {
          "internalType": "string",
          "name": "_name",
          "type": "string"
        },
        {
          "internalType": "uint256",
          "name": "_age",
          "type": "uint256"
        },
        {
          "internalType": "string",
          "name": "_designation",
          "type": "string"
        }
      ],
      "name": "addLandInspector",
      "outputs": [],
      "payable": false,
      "stateMutability": "nonpayable",
      "type": "function"
    },
    {
      "constant": false,
      "inputs": [
        {
          "internalType": "uint256",
          "name": "_area",
          "type": "uint256"
        },
        {
          "internalType": "string",
          "name": "_city",
          "type": "string"
        },
        {
          "internalType": "string",
          "name": "_state",
          "type": "string"
        },
        {
          "internalType": "uint256",
          "name": "_landPrice",
          "type": "uint256"
        },
        {
          "internalType": "uint256",
          "name": "_propertyPID",
          "type": "uint256"
        },
        {
          "internalType": "uint256",
          "name": "_surveyNum",
          "type": "uint256"
        },
        {
          "internalType": "string",
          "name": "_ipfsHash",
          "type": "string"
        },
        {
          "internalType": "string",
          "name": "_document",
          "type": "string"
        }
      ],
      "name": "addLand",
      "outputs": [],
      "payable": false,
      "stateMutability": "nonpayable",
      "type": "function"
    },
    {
      "constant": false,
      "inputs": [
        {
          "internalType": "string",
          "name": "_name",
          "type": "string"
        },
        {
          "internalType": "uint256",
          "name": "_age",
          "type": "uint256"
        },
        {
          "internalType": "string",
          "name": "_aadharNumber",
          "type": "string"
        },
        {
          "internalType": "string",
          "name": "_panNumber",
          "type": "string"
        },
        {
          "internalType": "string",
          "name": "_landsOwned",
          "type": "string"
        },
        {
          "internalType": "string",
          "name": "_document",
          "type": "string"
        }
      ],
      "name": "registerSeller",
      "outputs": [],
      "payable": false,
      "stateMutability": "nonpayable",
      "type": "function"
    },
    {
      "constant": false,
      "inputs": [
        {
          "internalType": "string",
          "name": "_name",
          "type": "string"
        },
        {
          "internalType": "uint256",
          "name": "_age",
          "type": "uint256"
        },
        {
          "internalType": "string",
          "name": "_city",
          "type": "string"
        },
        {
          "internalType": "string",
          "name": "_aadharNumber",
          "type": "string"
        },
        {
          "internalType": "string",
          "name": "_panNumber",
          "type": "string"
        },
        {
          "internalType": "string",
          "name": "_document",
          "type": "string"
        },
        {
          "internalType": "string",
          "name": "_email",
          "type": "string"
        }
      ],
      "name": "registerBuyer",
      "outputs": [],
      "payable": false,
      "stateMutability": "nonpayable",
      "type": "function"
    },
    {
      "constant": false,
      "inputs": [
        {
          "internalType": "address",
          "name": "_sellerId",
          "type": "address"
        },
        {
          "internalType": "uint256",
          "name": "_landId",
          "type": "uint256"
        }
      ],
      "name": "requestLand",
      "outputs": [],
      "payable": false,
      "stateMutability": "nonpayable",
      "type": "function"
    },
    {
      "constant": false,
      "inputs": [
        {
          "internalType": "uint256",
          "name": "_reqId",
          "type": "uint256"
        }
      ],
      "name": "approveRequest",
      "outputs": [],
      "payable": false,
      "stateMutability": "nonpayable",
      "type": "function"
    },
    {
      "constant": false,
      "inputs": [
        {
          "internalType": "address",
          "name": "_sellerId",
          "type": "address"
        }
      ],
      "name": "verifySeller",
      "outputs": [],
      "payable": false,
      "stateMutability": "nonpayable",
      "type": "function"
    },
    {
      "constant": false,
      "inputs": [
        {
          "internalType": "address",
          "name": "_sellerId",
          "type": "address"
        }
      ],
      "name": "rejectSeller",
      "outputs": [],
      "payable": false,
      "stateMutability": "nonpayable",
      "type": "function"
    },
    {
      "constant": false,
      "inputs": [
        {
          "internalType": "address",
          "name": "_buyerId",
          "type": "address"
        }
      ],
      "name": "verifyBuyer",
      "outputs": [],
      "payable": false,
      "stateMutability": "nonpayable",
      "type": "function"
    },
    {
      "constant": false,
      "inputs": [
        {
          "internalType": "address",
          "name": "_buyerId",
          "type": "address"
        }
      ],
      "name": "rejectBuyer",
      "outputs": [],
      "payable": false,
      "stateMutability": "nonpayable",
      "type": "function"
    },
    {
      "constant": false,
      "inputs": [
        {
          "internalType": "uint256",
          "name": "_landId",
          "type": "uint256"
        }
      ],
      "name": "verifyLand",
      "outputs": [],
      "payable": false,
      "stateMutability": "nonpayable",
      "type": "function"
    },
    {
      "constant": true,
      "inputs": [
        {
          "internalType": "uint256",
          "name": "_id",
          "type": "uint256"
        }
      ],
      "name": "isLandVerified",
      "outputs": [
        {
          "internalType": "bool",
          "name": "",
          "type": "bool"
        }
      ],
      "payable": false,
      "stateMutability": "view",
      "type": "function"
    },
    {
      "constant": true,
      "inputs": [
        {
          "internalType": "address",
          "name": "_id",
          "type": "address"
        }
      ],
      "name": "isVerified",
      "outputs": [
        {
          "internalType": "bool",
          "name": "",
          "type": "bool"
        }
      ],
      "payable": false,
      "stateMutability": "view",
      "type": "function"
    },
    {
      "constant": true,
      "inputs": [
        {
          "internalType": "address",
          "name": "_id",
          "type": "address"
        }
      ],
      "name": "isRejected",
      "outputs": [
        {
          "internalType": "bool",
          "name": "",
          "type": "bool"
        }
      ],
      "payable": false,
      "stateMutability": "view",
      "type": "function"
    },
    {
      "constant": true,
      "inputs": [
        {
          "internalType": "address",
          "name": "_id",
          "type": "address"
        }
      ],
      "name": "isSeller",
      "outputs": [
        {
          "internalType": "bool",
          "name": "",
          "type": "bool"
        }
      ],
      "payable": false,
      "stateMutability": "view",
      "type": "function"
    },
    {
      "constant": true,
      "inputs": [
        {
          "internalType": "address",
          "name": "_id",
          "type": "address"
        }
      ],
      "name": "isBuyer",
      "outputs": [
        {
          "internalType": "bool",
          "name": "",
          "type": "bool"
        }
      ],
      "payable": false,
      "stateMutability": "view",
      "type": "function"
    },
    {
      "constant": true,
      "inputs": [
        {
          "internalType": "address",
          "name": "_id",
          "type": "address"
        }
      ],
      "name": "isLandInspector",
      "outputs": [
        {
          "internalType": "bool",
          "name": "",
          "type": "bool"
        }
      ],
      "payable": false,
      "stateMutability": "view",
      "type": "function"
    },
    {
      "constant": true,
      "inputs": [
        {
          "internalType": "address",
          "name": "_id",
          "type": "address"
        }
      ],
      "name": "isRegistered",
      "outputs": [
        {
          "internalType": "bool",
          "name": "",
          "type": "bool"
        }
      ],
      "payable": false,
      "stateMutability": "view",
      "type": "function"
    },
    {
      "constant": true,
      "inputs": [],
      "name": "getLandsCount",
      "outputs": [
        {
          "internalType": "uint256",
          "name": "",
          "type": "uint256"
        }
      ],
      "payable": false,
      "stateMutability": "view",
      "type": "function"
    },
    {
      "constant": true,
      "inputs": [],
      "name": "getSellersCount",
      "outputs": [
        {
          "internalType": "uint256",
          "name": "",
          "type": "uint256"
        }
      ],
      "payable": false,
      "stateMutability": "view",
      "type": "function"
    },
    {
      "constant": true,
      "inputs": [],
      "name": "getBuyersCount",
      "outputs": [
        {
          "internalType": "uint256",
          "name": "",
          "type": "uint256"
        }
      ],
      "payable": false,
      "stateMutability": "view",
      "type": "function"
    },
    {
      "constant": true,
      "inputs": [],
      "name": "getSeller",
      "outputs": [
        {
          "internalType": "address[]",
          "name": "",
          "type": "address[]"
        }
      ],
      "payable": false,
      "stateMutability": "view",
      "type": "function"
    },
    {
      "constant": true,
      "inputs": [
        {
          "internalType": "address",
          "name": "i",
          "type": "address"
        }
      ],
      "name": "getSellerDetails",
      "outputs": [
        {
          "internalType": "string",
          "name": "",
          "type": "string"
        },
        {
          "internalType": "uint256",
          "name": "",
          "type": "uint256"
        },
        {
          "internalType": "string",
          "name": "",
          "type": "string"
        },
        {
          "internalType": "string",
          "name": "",
          "type": "string"
        },
        {
          "internalType": "string",
          "name": "",
          "type": "string"
        },
        {
          "internalType": "string",
          "name": "",
          "type": "string"
        }
      ],
      "payable": false,
      "stateMutability": "view",
      "type": "function"
    },
    {
      "constant": true,
      "inputs": [],
      "name": "getBuyer",
      "outputs": [
        {
          "internalType": "address[]",
          "name": "",
          "type": "address[]"
        }
      ],
      "payable": false,
      "stateMutability": "view",
      "type": "function"
    },
    {
      "constant": true,
      "inputs": [
        {
          "internalType": "address",
          "name": "i",
          "type": "address"
        }
      ],
      "name": "getBuyerDetails",
      "outputs": [
        {
          "internalType": "string",
          "name": "",
          "type": "string"
        },
        {
          "internalType": "string",
          "name": "",
          "type": "string"
        },
        {
          "internalType": "string",
          "name": "",
          "type": "string"
        },
        {
          "internalType": "string",
          "name": "",
          "type": "string"
        },
        {
          "internalType": "string",
          "name": "",
          "type": "string"
        },
        {
          "internalType": "uint256",
          "name": "",
          "type": "uint256"
        },
        {
          "internalType": "string",
          "name": "",
          "type": "string"
        }
      ],
      "payable": false,
      "stateMutability": "view",
      "type": "function"
    },
    {
      "constant": true,
      "inputs": [
        {
          "internalType": "uint256",
          "name": "i",
          "type": "uint256"
        }
      ],
      "name": "getRequestDetails",
      "outputs": [
        {
          "internalType": "address",
          "name": "",
          "type": "address"
        },
        {
          "internalType": "address",
          "name": "",
          "type": "address"
        },
        {
          "internalType": "uint256",
          "name": "",
          "type": "uint256"
        },
        {
          "internalType": "bool",
          "name": "",
          "type": "bool"
        }
      ],
      "payable": false,
      "stateMutability": "view",
      "type": "function"
    },
    {
      "constant": true,
      "inputs": [
        {
          "internalType": "uint256",
          "name": "_id",
          "type": "uint256"
        }
      ],
      "name": "isRequested",
      "outputs": [
        {
          "internalType": "bool",
          "name": "",
          "type": "bool"
        }
      ],
      "payable": false,
      "stateMutability": "view",
      "type": "function"
    },
    {
      "constant": true,
      "inputs": [
        {
          "internalType": "uint256",
          "name": "_id",
          "type": "uint256"
        }
      ],
      "name": "isApproved",
      "outputs": [
        {
          "internalType": "bool",
          "name": "",
          "type": "bool"
        }
      ],
      "payable": false,
      "stateMutability": "view",
      "type": "function"
    },
    {
      "constant": false,
      "inputs": [
        {
          "internalType": "uint256",
          "name": "_landId",
          "type": "uint256"
        },
        {
          "internalType": "address",
          "name": "_newOwner",
          "type": "address"
        }
      ],
      "name": "LandOwnershipTransfer",
      "outputs": [],
      "payable": false,
      "stateMutability": "nonpayable",
      "type": "function"
    },
    {
      "constant": true,
      "inputs": [
        {
          "internalType": "uint256",
          "name": "_landId",
          "type": "uint256"
        }
      ],
      "name": "isPaid",
      "outputs": [
        {
          "internalType": "bool",
          "name": "",
          "type": "bool"
        }
      ],
      "payable": false,
      "stateMutability": "view",
      "type": "function"
    },
    {
      "constant": false,
      "inputs": [
        {
          "internalType": "address payable",
          "name": "_receiver",
          "type": "address"
        },
        {
          "internalType": "uint256",
          "name": "_landId",
          "type": "uint256"
        },
        {
          "internalType": "uint256",
          "name": "_landPrice",
          "type": "uint256"
        }
      ],
      "name": "payment",
      "outputs": [],
      "payable": true,
      "stateMutability": "payable",
      "type": "function"
    }
  ],
  "bytecode": "0x608060405234801561001057600080fd5b5060148054600160a060020a03191633179055614663806100326000396000f3fe608060405260043610610393576000357c010000000000000000000000000000000000000000000000000000000090048063b0a5dcd3116101ee578063dec091ad1161011f578063ee95feaf116100bd578063f3f0c2181161008c578063f3f0c21814612223578063f58f85b51461225c578063f9c43bdf1461228f578063fbfa4b7f146122b957610393565b8063ee95feaf14612153578063f0d3a9df14612186578063f2aa82181461219b578063f34d4c63146121c557610393565b8063e1ecc794116100f9578063e1ecc79414611cdd578063e261f1e514611d10578063e4b2611514611ebe578063e530c40014611ef157610393565b8063dec091ad14611931578063def936c314611b94578063e165af8714611caa57610393565b8063cd392a831161018c578063d1760e6011610166578063d1760e60146118aa578063d7d1bbdb146118dd578063dbd0e1b614611907578063dd9d122d1461191c57610393565b8063cd392a8314611841578063ce606ee01461186b578063cee26ed51461188057610393565b8063ba49a08c116101c8578063ba49a08c1461167e578063bed403c714611693578063c3c5a547146116cc578063c5d0ca92146116ff57610393565b8063b0a5dcd3146113a5578063b3c8fe8514611401578063b9209e331461164b57610393565b80636cbf6cf8116102c8578063989376b4116102665780639dc1bfa9116102405780639dc1bfa91461104c578063a47d4c0214611076578063a6dc41fb146110a9578063ab517074146110dc57610393565b8063989376b414610fd25780639ae9711e146110055780639b91293b1461101a57610393565b80638965cde1116102a25780638965cde114610c8957806389d2135414610cbc5780639338364814610ce6578063941e242614610fbd57610393565b80636cbf6cf814610c0b5780637910867b14610c355780638354650114610c5f57610393565b80634daa9dae11610335578063603daf9a1161030f578063603daf9a1461089057806363f17143146108f55780636814800b1461092857806368cfe6ee1461095b57610393565b80634daa9dae146104d35780634e2cba09146104fd578063601e7c341461085d57610393565b80631a07f76e116103715780631a07f76e1461042e5780631c9afd0f146104585780632a55feec1461046d57806348a46bd3146104a057610393565b8063155fec721461039857806316d9d666146103d6578063170f3909146103fd575b600080fd5b3480156103a457600080fd5b506103c2600480360360208110156103bb57600080fd5b50356122ce565b604080519115158252519081900360200190f35b3480156103e257600080fd5b506103eb6122e3565b60408051918252519081900360200190f35b34801561040957600080fd5b506104126122ea565b60408051600160a060020a039092168252519081900360200190f35b34801561043a57600080fd5b506103c26004803603602081101561045157600080fd5b50356122f9565b34801561046457600080fd5b506103eb61230e565b34801561047957600080fd5b506103c26004803603602081101561049057600080fd5b5035600160a060020a0316612314565b3480156104ac57600080fd5b506103c2600480360360208110156104c357600080fd5b5035600160a060020a0316612332565b3480156104df57600080fd5b506103c2600480360360208110156104f657600080fd5b5035612377565b34801561050957600080fd5b5061085b600480360360e081101561052057600080fd5b81019060208101813564010000000081111561053b57600080fd5b82018360208201111561054d57600080fd5b8035906020019184600183028401116401000000008311171561056f57600080fd5b91908080601f016020809104026020016040519081016040528093929190818152602001838380828437600092019190915250929584359590949093506040810192506020013590506401000000008111156105ca57600080fd5b8201836020820111156105dc57600080fd5b803590602001918460018302840111640100000000831117156105fe57600080fd5b91908080601f016020809104026020016040519081016040528093929190818152602001838380828437600092019190915250929594936020810193503591505064010000000081111561065157600080fd5b82018360208201111561066357600080fd5b8035906020019184600183028401116401000000008311171561068557600080fd5b91908080601f01602080910402602001604051908101604052809392919081815260200183838082843760009201919091525092959493602081019350359150506401000000008111156106d857600080fd5b8201836020820111156106ea57600080fd5b8035906020019184600183028401116401000000008311171561070c57600080fd5b91908080601f016020809104026020016040519081016040528093929190818152602001838380828437600092019190915250929594936020810193503591505064010000000081111561075f57600080fd5b82018360208201111561077157600080fd5b8035906020019184600183028401116401000000008311171561079357600080fd5b91908080601f01602080910402602001604051908101604052809392919081815260200183838082843760009201919091525092959493602081019350359150506401000000008111156107e657600080fd5b8201836020820111156107f857600080fd5b8035906020019184600183028401116401000000008311171561081a57600080fd5b91908080601f01602080910402602001604051908101604052809392919081815260200183838082843760009201919091525092955061238c945050505050565b005b34801561086957600080fd5b506103c26004803603602081101561088057600080fd5b5035600160a060020a03166125da565b34801561089c57600080fd5b506108a56125ef565b60408051602080825283518183015283519192839290830191858101910280838360005b838110156108e15781810151838201526020016108c9565b505050509050019250505060405180910390f35b34801561090157600080fd5b506103c26004803603602081101561091857600080fd5b5035600160a060020a0316612651565b34801561093457600080fd5b5061085b6004803603602081101561094b57600080fd5b5035600160a060020a0316612666565b34801561096757600080fd5b5061098e6004803603602081101561097e57600080fd5b5035600160a060020a031661270d565b6040518080602001806020018060200180602001806020018881526020018060200187810387528e818151815260200191508051906020019080838360005b838110156109e55781810151838201526020016109cd565b50505050905090810190601f168015610a125780820380516001836020036101000a031916815260200191505b5087810386528d5181528d516020918201918f019080838360005b83811015610a45578181015183820152602001610a2d565b50505050905090810190601f168015610a725780820380516001836020036101000a031916815260200191505b5087810385528c5181528c516020918201918e019080838360005b83811015610aa5578181015183820152602001610a8d565b50505050905090810190601f168015610ad25780820380516001836020036101000a031916815260200191505b5087810384528b5181528b516020918201918d019080838360005b83811015610b05578181015183820152602001610aed565b50505050905090810190601f168015610b325780820380516001836020036101000a031916815260200191505b5087810383528a5181528a516020918201918c019080838360005b83811015610b65578181015183820152602001610b4d565b50505050905090810190601f168015610b925780820380516001836020036101000a031916815260200191505b5087810382528851815288516020918201918a019080838360005b83811015610bc5578181015183820152602001610bad565b50505050905090810190601f168015610bf25780820380516001836020036101000a031916815260200191505b509d505050505050505050505050505060405180910390f35b348015610c1757600080fd5b506103c260048036036020811015610c2e57600080fd5b5035612abe565b348015610c4157600080fd5b506103c260048036036020811015610c5857600080fd5b5035612ad3565b348015610c6b57600080fd5b506103c260048036036020811015610c8257600080fd5b5035612ae8565b348015610c9557600080fd5b5061085b60048036036020811015610cac57600080fd5b5035600160a060020a0316612afd565b348015610cc857600080fd5b506103c260048036036020811015610cdf57600080fd5b5035612ba4565b348015610cf257600080fd5b5061085b600480360360c0811015610d0957600080fd5b810190602081018135640100000000811115610d2457600080fd5b820183602082011115610d3657600080fd5b80359060200191846001830284011164010000000083111715610d5857600080fd5b91908080601f01602080910402602001604051908101604052809392919081815260200183838082843760009201919091525092958435959094909350604081019250602001359050640100000000811115610db357600080fd5b820183602082011115610dc557600080fd5b80359060200191846001830284011164010000000083111715610de757600080fd5b91908080601f0160208091040260200160405190810160405280939291908181526020018383808284376000920191909152509295949360208101935035915050640100000000811115610e3a57600080fd5b820183602082011115610e4c57600080fd5b80359060200191846001830284011164010000000083111715610e6e57600080fd5b91908080601f0160208091040260200160405190810160405280939291908181526020018383808284376000920191909152509295949360208101935035915050640100000000811115610ec157600080fd5b820183602082011115610ed357600080fd5b80359060200191846001830284011164010000000083111715610ef557600080fd5b91908080601f0160208091040260200160405190810160405280939291908181526020018383808284376000920191909152509295949360208101935035915050640100000000811115610f4857600080fd5b820183602082011115610f5a57600080fd5b80359060200191846001830284011164010000000083111715610f7c57600080fd5b91908080601f016020809104026020016040519081016040528093929190818152602001838380828437600092019190915250929550612bb9945050505050565b348015610fc957600080fd5b506103eb612de2565b348015610fde57600080fd5b506103c260048036036020811015610ff557600080fd5b5035600160a060020a0316612de8565b34801561101157600080fd5b506103eb612dfd565b61085b6004803603606081101561103057600080fd5b50600160a060020a038135169060208101359060400135612e03565b34801561105857600080fd5b506104126004803603602081101561106f57600080fd5b5035612ea8565b34801561108257600080fd5b506103c26004803603602081101561109957600080fd5b5035600160a060020a0316612ec3565b3480156110b557600080fd5b506103c2600480360360208110156110cc57600080fd5b5035600160a060020a0316612ed8565b3480156110e857600080fd5b5061110f600480360360208110156110ff57600080fd5b5035600160a060020a0316612eed565b6040518089600160a060020a0316600160a060020a0316815260200180602001888152602001806020018060200180602001806020018060200187810387528e818151815260200191508051906020019080838360005b8381101561117e578181015183820152602001611166565b50505050905090810190601f1680156111ab5780820380516001836020036101000a031916815260200191505b5087810386528c5181528c516020918201918e019080838360005b838110156111de5781810151838201526020016111c6565b50505050905090810190601f16801561120b5780820380516001836020036101000a031916815260200191505b5087810385528b5181528b516020918201918d019080838360005b8381101561123e578181015183820152602001611226565b50505050905090810190601f16801561126b5780820380516001836020036101000a031916815260200191505b5087810384528a5181528a516020918201918c019080838360005b8381101561129e578181015183820152602001611286565b50505050905090810190601f1680156112cb5780820380516001836020036101000a031916815260200191505b5087810383528951815289516020918201918b019080838360005b838110156112fe5781810151838201526020016112e6565b50505050905090810190601f16801561132b5780820380516001836020036101000a031916815260200191505b5087810382528851815288516020918201918a019080838360005b8381101561135e578181015183820152602001611346565b50505050905090810190601f16801561138b5780820380516001836020036101000a031916815260200191505b509e50505050505050505050505050505060405180910390f35b3480156113b157600080fd5b506113cf600480360360208110156113c857600080fd5b5035613279565b60408051948552600160a060020a03938416602086015291909216838201526060830191909152519081900360800190f35b34801561140d57600080fd5b506114346004803603602081101561142457600080fd5b5035600160a060020a03166132ad565b60405180806020018781526020018060200180602001806020018060200186810386528c818151815260200191508051906020019080838360005b8381101561148757818101518382015260200161146f565b50505050905090810190601f1680156114b45780820380516001836020036101000a031916815260200191505b5086810385528a5181528a516020918201918c019080838360005b838110156114e75781810151838201526020016114cf565b50505050905090810190601f1680156115145780820380516001836020036101000a031916815260200191505b5086810384528951815289516020918201918b019080838360005b8381101561154757818101518382015260200161152f565b50505050905090810190601f1680156115745780820380516001836020036101000a031916815260200191505b5086810383528851815288516020918201918a019080838360005b838110156115a757818101518382015260200161158f565b50505050905090810190601f1680156115d45780820380516001836020036101000a031916815260200191505b50868103825287518152875160209182019189019080838360005b838110156116075781810151838201526020016115ef565b50505050905090810190601f1680156116345780820380516001836020036101000a031916815260200191505b509b50505050505050505050505060405180910390f35b34801561165757600080fd5b506103c26004803603602081101561166e57600080fd5b5035600160a060020a03166135c3565b34801561168a57600080fd5b506103eb613604565b34801561169f57600080fd5b5061085b600480360360408110156116b657600080fd5b5080359060200135600160a060020a031661360a565b3480156116d857600080fd5b506103c2600480360360208110156116ef57600080fd5b5035600160a060020a0316613657565b34801561170b57600080fd5b5061085b6004803603606081101561172257600080fd5b81019060208101813564010000000081111561173d57600080fd5b82018360208201111561174f57600080fd5b8035906020019184600183028401116401000000008311171561177157600080fd5b91908080601f016020809104026020016040519081016040528093929190818152602001838380828437600092019190915250929584359590949093506040810192506020013590506401000000008111156117cc57600080fd5b8201836020820111156117de57600080fd5b8035906020019184600183028401116401000000008311171561180057600080fd5b91908080601f016020809104026020016040519081016040528093929190818152602001838380828437600092019190915250929550613675945050505050565b34801561184d57600080fd5b506103c26004803603602081101561186457600080fd5b5035613746565b34801561187757600080fd5b5061041261375b565b34801561188c57600080fd5b50610412600480360360208110156118a357600080fd5b503561376a565b3480156118b657600080fd5b5061085b600480360360208110156118cd57600080fd5b5035600160a060020a0316613791565b3480156118e957600080fd5b5061085b6004803603602081101561190057600080fd5b5035613838565b34801561191357600080fd5b506108a56138d0565b34801561192857600080fd5b506103eb613930565b34801561193d57600080fd5b506119646004803603602081101561195457600080fd5b5035600160a060020a0316613936565b6040518088600160a060020a0316600160a060020a03168152602001806020018781526020018060200180602001806020018060200186810386528c818151815260200191508051906020019080838360005b838110156119cf5781810151838201526020016119b7565b50505050905090810190601f1680156119fc5780820380516001836020036101000a031916815260200191505b5086810385528a5181528a516020918201918c019080838360005b83811015611a2f578181015183820152602001611a17565b50505050905090810190601f168015611a5c5780820380516001836020036101000a031916815260200191505b5086810384528951815289516020918201918b019080838360005b83811015611a8f578181015183820152602001611a77565b50505050905090810190601f168015611abc5780820380516001836020036101000a031916815260200191505b5086810383528851815288516020918201918a019080838360005b83811015611aef578181015183820152602001611ad7565b50505050905090810190601f168015611b1c5780820380516001836020036101000a031916815260200191505b50868103825287518152875160209182019189019080838360005b83811015611b4f578181015183820152602001611b37565b50505050905090810190601f168015611b7c5780820380516001836020036101000a031916815260200191505b509c5050505050505050505050505060405180910390f35b348015611ba057600080fd5b50611bbe60048036036020811015611bb757600080fd5b5035613c2f565b604051808581526020018060200184815260200180602001838103835286818151815260200191508051906020019080838360005b83811015611c0b578181015183820152602001611bf3565b50505050905090810190601f168015611c385780820380516001836020036101000a031916815260200191505b50838103825284518152845160209182019186019080838360005b83811015611c6b578181015183820152602001611c53565b50505050905090810190601f168015611c985780820380516001836020036101000a031916815260200191505b50965050505050505060405180910390f35b348015611cb657600080fd5b506103c260048036036020811015611ccd57600080fd5b5035600160a060020a0316613d6d565b348015611ce957600080fd5b5061085b60048036036020811015611d0057600080fd5b5035600160a060020a0316613d81565b348015611d1c57600080fd5b50611d3a60048036036020811015611d3357600080fd5b5035613e28565b604051808a81526020018981526020018060200180602001888152602001878152602001868152602001806020018060200185810385528c818151815260200191508051906020019080838360005b83811015611da1578181015183820152602001611d89565b50505050905090810190601f168015611dce5780820380516001836020036101000a031916815260200191505b5085810384528b5181528b516020918201918d019080838360005b83811015611e01578181015183820152602001611de9565b50505050905090810190601f168015611e2e5780820380516001836020036101000a031916815260200191505b50858103835287518152875160209182019189019080838360005b83811015611e61578181015183820152602001611e49565b50505050905090810190601f168015611e8e5780820380516001836020036101000a031916815260200191505b50858103825286518152865160209182019188019080838360008315610bc5578181015183820152602001610bad565b348015611eca57600080fd5b506103c260048036036020811015611ee157600080fd5b5035600160a060020a0316614095565b348015611efd57600080fd5b5061085b6004803603610100811015611f1557600080fd5b81359190810190604081016020820135640100000000811115611f3757600080fd5b820183602082011115611f4957600080fd5b80359060200191846001830284011164010000000083111715611f6b57600080fd5b91908080601f0160208091040260200160405190810160405280939291908181526020018383808284376000920191909152509295949360208101935035915050640100000000811115611fbe57600080fd5b820183602082011115611fd057600080fd5b80359060200191846001830284011164010000000083111715611ff257600080fd5b91908080601f016020809104026020016040519081016040528093929190818152602001838380828437600092019190915250929584359560208601359560408101359550919350915060808101906060013564010000000081111561205757600080fd5b82018360208201111561206957600080fd5b8035906020019184600183028401116401000000008311171561208b57600080fd5b91908080601f01602080910402602001604051908101604052809392919081815260200183838082843760009201919091525092959493602081019350359150506401000000008111156120de57600080fd5b8201836020820111156120f057600080fd5b8035906020019184600183028401116401000000008311171561211257600080fd5b91908080601f0160208091040260200160405190810160405280939291908181526020018383808284376000920191909152509295506140aa945050505050565b34801561215f57600080fd5b506103c26004803603602081101561217657600080fd5b5035600160a060020a0316614282565b34801561219257600080fd5b506103eb6142a0565b3480156121a757600080fd5b50610412600480360360208110156121be57600080fd5b50356142a6565b3480156121d157600080fd5b506121ef600480360360208110156121e857600080fd5b50356142b3565b60408051600160a060020a039586168152939094166020840152828401919091521515606082015290519081900360800190f35b34801561222f57600080fd5b5061085b6004803603604081101561224657600080fd5b50600160a060020a0381351690602001356142f5565b34801561226857600080fd5b506103c26004803603602081101561227f57600080fd5b5035600160a060020a031661449f565b34801561229b57600080fd5b5061085b600480360360208110156122b257600080fd5b50356144b4565b3480156122c557600080fd5b506103eb61451b565b6000908152600f602052604090205460ff1690565b6016545b90565b601154600160a060020a031681565b60106020526000908152604090205460ff1681565b60165481565b600160a060020a031660009081526007602052604090205460ff1690565b600160a060020a03811660009081526009602052604081205460ff16806123715750600160a060020a0382166000908152600b602052604090205460ff165b92915050565b600f6020526000908152604090205460ff1681565b3360009081526005602052604090205460ff16156123f4576040805160e560020a62461bcd02815260206004820152601b60248201527f427579657220697320616c726561647920726567697374657265640000000000604482015290519081900360640190fd5b3360008181526005602090815260408083208054600160ff1991821681179092556007845282852080549091168217905560198054820190558151610100810183528581528084018d81528184018d9052606082018c9052608082018b905260a082018a905260c0820189905260e0820188905295855260038452919093208151815473ffffffffffffffffffffffffffffffffffffffff1916600160a060020a03909116178155935180519194936124b39390850192910190614521565b5060408201516002820155606082015180516124d9916003840191602090910190614521565b50608082015180516124f5916004840191602090910190614521565b5060a08201518051612511916005840191602090910190614521565b5060c0820151805161252d916006840191602090910190614521565b5060e08201518051612549916007840191602090910190614521565b5050601380546001810182556000919091527f66de8ffda797e3de9c05e8fc57b3bf0ec28a930d40b0d285d93c06501cf6a09001805473ffffffffffffffffffffffffffffffffffffffff19163390811790915560408051918252517f478f5152d8fc568db3f8de9fb402fd9d98a1a7541ecfe434e59cf574fbfc552492509081900360200190a150505050505050565b60066020526000908152604090205460ff1681565b6060601380548060200260200160405190810160405280929190818152602001828054801561264757602002820191906000526020600020905b8154600160a060020a03168152600190910190602001808311612629575b5050505050905090565b60096020526000908152604090205460ff1681565b601154600160a060020a031633146126b25760405160e560020a62461bcd02815260040180806020018281038252602a8152602001806145e4602a913960400191505060405180910390fd5b600160a060020a0381166000818152600a6020908152604091829020805460ff19166001179055815192835290517f6a6455914f452787eb3985452aceedc1000fb545e394eb3b370e3d08958e0a5b9281900390910190a150565b600160a060020a03811660009081526003602081815260408084206002808201546001808401805486519281161561010002600019011693909304601f810187900487028201870190955284815260609788978897889788979396889690959385019460058101946006820194600783019460049093019289918301828280156127d85780601f106127ad576101008083540402835291602001916127d8565b820191906000526020600020905b8154815290600101906020018083116127bb57829003601f168201915b5050895460408051602060026001851615610100026000190190941693909304601f8101849004840282018401909252818152959c508b9450925084019050828280156128665780601f1061283b57610100808354040283529160200191612866565b820191906000526020600020905b81548152906001019060200180831161284957829003601f168201915b5050885460408051602060026001851615610100026000190190941693909304601f8101849004840282018401909252818152959b508a9450925084019050828280156128f45780601f106128c9576101008083540402835291602001916128f4565b820191906000526020600020905b8154815290600101906020018083116128d757829003601f168201915b5050875460408051602060026001851615610100026000190190941693909304601f8101849004840282018401909252818152959a50899450925084019050828280156129825780601f1061295757610100808354040283529160200191612982565b820191906000526020600020905b81548152906001019060200180831161296557829003601f168201915b5050865460408051602060026001851615610100026000190190941693909304601f810184900484028201840190925281815295995088945092508401905082828015612a105780601f106129e557610100808354040283529160200191612a10565b820191906000526020600020905b8154815290600101906020018083116129f357829003601f168201915b5050845460408051602060026001851615610100026000190190941693909304601f810184900484028201840190925281815295985086945092508401905082828015612a9e5780601f10612a7357610100808354040283529160200191612a9e565b820191906000526020600020905b815481529060010190602001808311612a8157829003601f168201915b505050505090509650965096509650965096509650919395979092949650565b6000908152600c602052604090205460ff1690565b6000908152600e602052604090205460ff1690565b600c6020526000908152604090205460ff1681565b601154600160a060020a03163314612b495760405160e560020a62461bcd02815260040180806020018281038252602a8152602001806145e4602a913960400191505060405180910390fd5b600160a060020a0381166000818152600b6020908152604091829020805460ff19166001179055815192835290517faf77f8960cf590e245ec8b6d41c193a5dcacad8986ae4eb57ac9e5be7b6af0319281900390910190a150565b600e6020526000908152604090205460ff1681565b3360009081526005602052604090205460ff1615612c21576040805160e560020a62461bcd02815260206004820152601c60248201527f53656c6c657220697320616c7265616479207265676973746572656400000000604482015290519081900360640190fd5b3360008181526005602090815260408083208054600160ff199182168117909255600684528285208054909116821790556018805482019055815160e0810183528581528084018c81528184018c9052606082018b9052608082018a905260a0820189905260c0820188905295855260028452919093208151815473ffffffffffffffffffffffffffffffffffffffff1916600160a060020a0390911617815593518051919493612cd89390850192910190614521565b506040820151600282015560608201518051612cfe916003840191602090910190614521565b5060808201518051612d1a916004840191602090910190614521565b5060a08201518051612d36916005840191602090910190614521565b5060c08201518051612d52916006840191602090910190614521565b5050601280546001810182556000919091527fbb8a6a4669ba250d26cd7a459eca9d215f8307e33aebe50379bc5a3617ec344401805473ffffffffffffffffffffffffffffffffffffffff19163390811790915560408051918252517f478f5152d8fc568db3f8de9fb402fd9d98a1a7541ecfe434e59cf574fbfc552492509081900360200190a1505050505050565b60175481565b600b6020526000908152604090205460ff1681565b60185481565b80341015612e5b576040805160e560020a62461bcd02815260206004820152601b60248201527f496e73756666696369656e74207061796d656e7420616d6f756e740000000000604482015290519081900360640190fd5b600082815260106020526040808220805460ff1916600117905551600160a060020a0385169183156108fc02918491818181858888f19350505050158015612ea257600080fd5b50505050565b600d60205260009081526040902054600160a060020a031681565b60076020526000908152604090205460ff1681565b600a6020526000908152604090205460ff1681565b6003602090815260009182526040918290208054600180830180548651600261010094831615949094026000190190911692909204601f8101869004860283018601909652858252600160a060020a03909216949293909290830182828015612f975780601f10612f6c57610100808354040283529160200191612f97565b820191906000526020600020905b815481529060010190602001808311612f7a57829003601f168201915b505050506002838101546003850180546040805160206001841615610100026000190190931695909504601f81018390048302860183019091528085529596929592945090919083018282801561302f5780601f106130045761010080835404028352916020019161302f565b820191906000526020600020905b81548152906001019060200180831161301257829003601f168201915b5050505060048301805460408051602060026001851615610100026000190190941693909304601f81018490048402820184019092528181529495949350908301828280156130bf5780601f10613094576101008083540402835291602001916130bf565b820191906000526020600020905b8154815290600101906020018083116130a257829003601f168201915b5050505060058301805460408051602060026001851615610100026000190190941693909304601f810184900484028201840190925281815294959493509083018282801561314f5780601f106131245761010080835404028352916020019161314f565b820191906000526020600020905b81548152906001019060200180831161313257829003601f168201915b5050505060068301805460408051602060026001851615610100026000190190941693909304601f81018490048402820184019092528181529495949350908301828280156131df5780601f106131b4576101008083540402835291602001916131df565b820191906000526020600020905b8154815290600101906020018083116131c257829003601f168201915b5050505060078301805460408051602060026001851615610100026000190190941693909304601f810184900484028201840190925281815294959493509083018282801561326f5780601f106132445761010080835404028352916020019161326f565b820191906000526020600020905b81548152906001019060200180831161325257829003601f168201915b5050505050905088565b60046020526000908152604090208054600182015460028301546003909301549192600160a060020a039182169291169084565b600160a060020a0381166000908152600260208181526040808420808401546001808301805485519281161561010002600019011696909604601f81018690048602820186019094528381526060969587958695869586959394600382019360048301936005840193600601929188919083018282801561336f5780601f106133445761010080835404028352916020019161336f565b820191906000526020600020905b81548152906001019060200180831161335257829003601f168201915b5050875460408051602060026001851615610100026000190190941693909304601f8101849004840282018401909252818152959b50899450925084019050828280156133fd5780601f106133d2576101008083540402835291602001916133fd565b820191906000526020600020905b8154815290600101906020018083116133e057829003601f168201915b5050865460408051602060026001851615610100026000190190941693909304601f81018490048402820184019092528181529599508894509250840190508282801561348b5780601f106134605761010080835404028352916020019161348b565b820191906000526020600020905b81548152906001019060200180831161346e57829003601f168201915b5050855460408051602060026001851615610100026000190190941693909304601f8101849004840282018401909252818152959850879450925084019050828280156135195780601f106134ee57610100808354040283529160200191613519565b820191906000526020600020905b8154815290600101906020018083116134fc57829003601f168201915b5050845460408051602060026001851615610100026000190190941693909304601f8101849004840282018401909252818152959750869450925084019050828280156135a75780601f1061357c576101008083540402835291602001916135a7565b820191906000526020600020905b81548152906001019060200180831161358a57829003601f168201915b5050505050905095509550955095509550955091939550919395565b600160a060020a03811660009081526008602052604081205460ff1680612371575050600160a060020a03166000908152600a602052604090205460ff1690565b60195481565b61361333613d6d565b61361c57600080fd5b6000918252600d6020526040909120805473ffffffffffffffffffffffffffffffffffffffff1916600160a060020a03909216919091179055565b600160a060020a031660009081526005602052604090205460ff1690565b601454600160a060020a031633146136c15760405160e560020a62461bcd02815260040180806020018281038252602a8152602001806145ba602a913960400191505060405180910390fd5b60178054600190810191829055604080516080810182528381526020808201888152828401889052606083018790526000958652848252929094208151815591518051919492936137189390850192910190614521565b50604082015160028201556060820151805161373e916003840191602090910190614521565b505050505050565b60009081526010602052604090205460ff1690565b601454600160a060020a031681565b6012818154811061377757fe5b600091825260209091200154600160a060020a0316905081565b601154600160a060020a031633146137dd5760405160e560020a62461bcd02815260040180806020018281038252602a8152602001806145e4602a913960400191505060405180910390fd5b600160a060020a038116600081815260086020908152604091829020805460ff19166001179055815192835290517f6a6455914f452787eb3985452aceedc1000fb545e394eb3b370e3d08958e0a5b9281900390910190a150565b61384133614282565b61387f5760405160e560020a62461bcd02815260040180806020018281038252602181526020018061460e6021913960400191505060405180910390fd5b6000818152600e6020908152604091829020805460ff19166001179055815183815291517fbecbbd7543b68baaaf7e9c3fd12e4719f1f506f4253abef4a6573d0adf3a73ed9281900390910190a150565b6060601280548060200260200160405190810160405280929190818152602001828054801561264757602002820191906000526020600020908154600160a060020a03168152600190910190602001808311612629575050505050905090565b60185490565b6002602081815260009283526040928390208054600180830180548751601f60001994831615610100029490940190911696909604918201859004850286018501909652808552600160a060020a03909116949193928301828280156139dd5780601f106139b2576101008083540402835291602001916139dd565b820191906000526020600020905b8154815290600101906020018083116139c057829003601f168201915b505050506002838101546003850180546040805160206001841615610100026000190190931695909504601f810183900483028601830190915280855295969295929450909190830182828015613a755780601f10613a4a57610100808354040283529160200191613a75565b820191906000526020600020905b815481529060010190602001808311613a5857829003601f168201915b5050505060048301805460408051602060026001851615610100026000190190941693909304601f8101849004840282018401909252818152949594935090830182828015613b055780601f10613ada57610100808354040283529160200191613b05565b820191906000526020600020905b815481529060010190602001808311613ae857829003601f168201915b5050505060058301805460408051602060026001851615610100026000190190941693909304601f8101849004840282018401909252818152949594935090830182828015613b955780601f10613b6a57610100808354040283529160200191613b95565b820191906000526020600020905b815481529060010190602001808311613b7857829003601f168201915b5050505060068301805460408051602060026001851615610100026000190190941693909304601f8101849004840282018401909252818152949594935090830182828015613c255780601f10613bfa57610100808354040283529160200191613c25565b820191906000526020600020905b815481529060010190602001808311613c0857829003601f168201915b5050505050905087565b600160208181526000928352604092839020805481840180548651600296821615610100026000190190911695909504601f81018590048502860185019096528585529094919392909190830182828015613ccb5780601f10613ca057610100808354040283529160200191613ccb565b820191906000526020600020905b815481529060010190602001808311613cae57829003601f168201915b505050506002838101546003850180546040805160206001841615610100026000190190931695909504601f810183900483028601830190915280855295969295929450909190830182828015613d635780601f10613d3857610100808354040283529160200191613d63565b820191906000526020600020905b815481529060010190602001808311613d4657829003601f168201915b5050505050905084565b601154600160a060020a0391821691161490565b601154600160a060020a03163314613dcd5760405160e560020a62461bcd02815260040180806020018281038252602a8152602001806145e4602a913960400191505060405180910390fd5b600160a060020a038116600081815260096020908152604091829020805460ff19166001179055815192835290517faf77f8960cf590e245ec8b6d41c193a5dcacad8986ae4eb57ac9e5be7b6af0319281900390910190a150565b6000602081815291815260409081902080546001808301546002808501805487519481161561010002600019011691909104601f81018890048802840188019096528583529295909491929190830182828015613ec65780601f10613e9b57610100808354040283529160200191613ec6565b820191906000526020600020905b815481529060010190602001808311613ea957829003601f168201915b5050505060038301805460408051602060026001851615610100026000190190941693909304601f8101849004840282018401909252818152949594935090830182828015613f565780601f10613f2b57610100808354040283529160200191613f56565b820191906000526020600020905b815481529060010190602001808311613f3957829003601f168201915b505050600484015460058501546006860154600787018054604080516020601f60026000196101006001881615020190951694909404938401819004810282018101909252828152989995989497509295509091830182828015613ffb5780601f10613fd057610100808354040283529160200191613ffb565b820191906000526020600020905b815481529060010190602001808311613fde57829003601f168201915b5050505060088301805460408051602060026001851615610100026000190190941693909304601f810184900484028201840190925281815294959493509083018282801561408b5780601f106140605761010080835404028352916020019161408b565b820191906000526020600020905b81548152906001019060200180831161406e57829003601f168201915b5050505050905089565b60086020526000908152604090205460ff1681565b6140b333614282565b6140f15760405160e560020a62461bcd02815260040180806020018281038252602181526020018061460e6021913960400191505060405180910390fd5b6140fa336135c3565b61414e576040805160e560020a62461bcd02815260206004820152601660248201527f53656c6c6572206973206e6f7420766572696669656400000000000000000000604482015290519081900360640190fd5b60168054600190810191829055604080516101208101825283815260208082018d81528284018d8152606084018d9052608084018c905260a084018b905260c084018a905260e08401899052610100840188905260009687528683529390952082518155945193850193909355905180519193926141d492600285019290910190614521565b50606082015180516141f0916003840191602090910190614521565b506080820151600482015560a0820151600582015560c0820151600682015560e0820151805161422a916007840191602090910190614521565b506101008201518051614247916008840191602090910190614521565b50506016546000908152600d60205260409020805473ffffffffffffffffffffffffffffffffffffffff191633179055505050505050505050565b600160a060020a031660009081526006602052604090205460ff1690565b60195490565b6013818154811061377757fe5b600090815260046020908152604080832060018101546002820154600390920154600e9094529190932054600160a060020a0391821694919093169260ff1690565b6142fe33612314565b614352576040805160e560020a62461bcd02815260206004820181905260248201527f43616c6c6572206973206e6f7420612072656769737465726564206275796572604482015290519081900360640190fd5b61435b336135c3565b6143af576040805160e560020a62461bcd02815260206004820152601560248201527f4275796572206973206e6f742076657269666965640000000000000000000000604482015290519081900360640190fd5b601a8054600190810180835560408051608081018252828152600160a060020a03808816602080840182815233858701908152606086018b8152600098895260048452878920965187559151868a01805491871673ffffffffffffffffffffffffffffffffffffffff19928316179055905160028701805491909616911617909355915160039093019290925585548452600e8152828420805460ff1990811690915595548452600f8152928290208054909516909317909355825191825291517f226be41bcaf9760851410ade1cd6450b48b6b4d0adc46c61ea33b5a37b41bad7929181900390910190a15050565b60056020526000908152604090205460ff1681565b601154600160a060020a031633146145005760405160e560020a62461bcd02815260040180806020018281038252602a8152602001806145e4602a913960400191505060405180910390fd5b6000908152600c60205260409020805460ff19166001179055565b601a5481565b828054600181600116156101000203166002900490600052602060002090601f016020900481019282601f1061456257805160ff191683800117855561458f565b8280016001018555821561458f579182015b8281111561458f578251825591602001919060010190614574565b5061459b92915061459f565b5090565b6122e791905b8082111561459b57600081556001016145a556fe4f6e6c7920436f6e7472616374204f776e65722063616e2063616c6c20746869732066756e6374696f6e4f6e6c79206c616e6420696e73706563746f722063616e2063616c6c20746869732066756e6374696f6e43616c6c6572206973206e6f74206120726567697374657265642073656c6c6572a265627a7a72315820ecf71840dc32b805be2b9223c3ecda032004a461baa382dc6ec8d8cb1019722d64736f6c63430005100032",
  "source": "// SPDX-License-Identifier: GPL-3.0\r\n\r\npragma solidity >=0.5.2;\r\n// pragma experimental ABIEncoderV2;\r\n\r\ncontract Land {\r\n    struct Landreg {\r\n        uint id;\r\n        uint area;\r\n        string city;\r\n        string state;\r\n        uint landPrice;\r\n        uint propertyPID;\r\n        uint physicalSurveyNumber;\r\n        string ipfsHash;\r\n        string document;\r\n    }\r\n\r\n    struct Buyer {\r\n        address id;\r\n        string name;\r\n        uint age;\r\n        string city;\r\n        string aadharNumber;\r\n        string panNumber;\r\n        string document;\r\n        string email;\r\n    }\r\n\r\n    struct Seller {\r\n        address id;\r\n        string name;\r\n        uint age;\r\n        string aadharNumber;\r\n        string panNumber;\r\n        string landsOwned;\r\n        string document;\r\n    }\r\n\r\n    struct LandInspector {\r\n        uint id;\r\n        string name;\r\n        uint age;\r\n        string designation;\r\n    }\r\n\r\n    struct LandRequest {\r\n        uint reqId;\r\n        address sellerId;\r\n        address buyerId;\r\n        uint landId;\r\n    }\r\n\r\n    struct ContractOwner {\r\n        address ownerAddress;\r\n        mapping(address => bool) landInspectors;\r\n    }\r\n\r\n    mapping(uint => Landreg) public lands;\r\n    mapping(uint => LandInspector) public InspectorMapping;\r\n    mapping(address => Seller) public SellerMapping;\r\n    mapping(address => Buyer) public BuyerMapping;\r\n    mapping(uint => LandRequest) public RequestsMapping;\r\n\r\n    mapping(address => bool) public RegisteredAddressMapping;\r\n    mapping(address => bool) public RegisteredSellerMapping;\r\n    mapping(address => bool) public RegisteredBuyerMapping;\r\n    mapping(address => bool) public SellerVerification;\r\n    mapping(address => bool) public SellerRejection;\r\n    mapping(address => bool) public BuyerVerification;\r\n    mapping(address => bool) public BuyerRejection;\r\n    mapping(uint => bool) public LandVerification;\r\n    mapping(uint => address) public LandOwner;\r\n    mapping(uint => bool) public RequestStatus;\r\n    mapping(uint => bool) public RequestedLands;\r\n    mapping(uint => bool) public PaymentReceived;\r\n\r\n    address public Land_Inspector;\r\n    address[] public sellers;\r\n    address[] public buyers;\r\n    ContractOwner public contractOwner;\r\n    uint public landsCount;\r\n    uint public inspectorsCount;\r\n    uint public sellersCount;\r\n    uint public buyersCount;\r\n    uint public requestsCount;\r\n\r\n    event Registration(address _registrationId);\r\n    event LandRequested(address _sellerId);\r\n    event RequestApproved(uint _reqId);\r\n    event Verified(address _id);\r\n    event Rejected(address _id);\r\n\r\n    modifier onlyLandInspector() {\r\n        require(\r\n            msg.sender == Land_Inspector,\r\n            \"Only land inspector can call this function\"\r\n        );\r\n        _;\r\n    }\r\n\r\n    modifier onlyOwner() {\r\n        require(\r\n            msg.sender == contractOwner.ownerAddress,\r\n            \"Only Contract Owner can call this function\"\r\n        );\r\n        _;\r\n    }\r\n\r\n    modifier onlySeller() {\r\n        require(isSeller(msg.sender), \"Caller is not a registered seller\");\r\n        _;\r\n    }\r\n\r\n    modifier onlyBuyer() {\r\n        require(isBuyer(msg.sender), \"Caller is not a registered buyer\");\r\n        _;\r\n    }\r\n\r\n    constructor() public {\r\n        contractOwner.ownerAddress = msg.sender;\r\n    }\r\n\r\n    function addLandInspector(\r\n        string memory _name,\r\n        uint _age,\r\n        string memory _designation\r\n    ) public onlyOwner {\r\n        inspectorsCount++;\r\n        InspectorMapping[inspectorsCount] = LandInspector(\r\n            inspectorsCount,\r\n            _name,\r\n            _age,\r\n            _designation\r\n        );\r\n    }\r\n\r\n    function addLand(\r\n        uint _area,\r\n        string memory _city,\r\n        string memory _state,\r\n        uint _landPrice,\r\n        uint _propertyPID,\r\n        uint _surveyNum,\r\n        string memory _ipfsHash,\r\n        string memory _document\r\n    ) public onlySeller {\r\n        require(isVerified(msg.sender), \"Seller is not verified\");\r\n\r\n        landsCount++;\r\n        lands[landsCount] = Landreg(\r\n            landsCount,\r\n            _area,\r\n            _city,\r\n            _state,\r\n            _landPrice,\r\n            _propertyPID,\r\n            _surveyNum,\r\n            _ipfsHash,\r\n            _document\r\n        );\r\n        LandOwner[landsCount] = msg.sender;\r\n    }\r\n\r\n    function registerSeller(\r\n        string memory _name,\r\n        uint _age,\r\n        string memory _aadharNumber,\r\n        string memory _panNumber,\r\n        string memory _landsOwned,\r\n        string memory _document\r\n    ) public {\r\n        require(\r\n            !RegisteredAddressMapping[msg.sender],\r\n            \"Seller is already registered\"\r\n        );\r\n\r\n        RegisteredAddressMapping[msg.sender] = true;\r\n        RegisteredSellerMapping[msg.sender] = true;\r\n        sellersCount++;\r\n        SellerMapping[msg.sender] = Seller(\r\n            msg.sender,\r\n            _name,\r\n            _age,\r\n            _aadharNumber,\r\n            _panNumber,\r\n            _landsOwned,\r\n            _document\r\n        );\r\n        sellers.push(msg.sender);\r\n\r\n        emit Registration(msg.sender);\r\n    }\r\n\r\n    function registerBuyer(\r\n        string memory _name,\r\n        uint _age,\r\n        string memory _city,\r\n        string memory _aadharNumber,\r\n        string memory _panNumber,\r\n        string memory _document,\r\n        string memory _email\r\n    ) public {\r\n        require(\r\n            !RegisteredAddressMapping[msg.sender],\r\n            \"Buyer is already registered\"\r\n        );\r\n\r\n        RegisteredAddressMapping[msg.sender] = true;\r\n        RegisteredBuyerMapping[msg.sender] = true;\r\n        buyersCount++;\r\n        BuyerMapping[msg.sender] = Buyer(\r\n            msg.sender,\r\n            _name,\r\n            _age,\r\n            _city,\r\n            _aadharNumber,\r\n            _panNumber,\r\n            _document,\r\n            _email\r\n        );\r\n        buyers.push(msg.sender);\r\n\r\n        emit Registration(msg.sender);\r\n    }\r\n\r\n    function requestLand(address _sellerId, uint _landId) public onlyBuyer {\r\n        require(isVerified(msg.sender), \"Buyer is not verified\");\r\n\r\n        requestsCount++;\r\n        RequestsMapping[requestsCount] = LandRequest(\r\n            requestsCount,\r\n            _sellerId,\r\n            msg.sender,\r\n            _landId\r\n        );\r\n        RequestStatus[requestsCount] = false;\r\n        RequestedLands[requestsCount] = true;\r\n\r\n        emit LandRequested(_sellerId);\r\n    }\r\n\r\n    function approveRequest(uint _reqId) public onlySeller {\r\n        RequestStatus[_reqId] = true;\r\n\r\n        emit RequestApproved(_reqId);\r\n    }\r\n\r\n    function verifySeller(address _sellerId) public onlyLandInspector {\r\n        SellerVerification[_sellerId] = true;\r\n        emit Verified(_sellerId);\r\n    }\r\n\r\n    function rejectSeller(address _sellerId) public onlyLandInspector {\r\n        SellerRejection[_sellerId] = true;\r\n        emit Rejected(_sellerId);\r\n    }\r\n\r\n    function verifyBuyer(address _buyerId) public onlyLandInspector {\r\n        BuyerVerification[_buyerId] = true;\r\n        emit Verified(_buyerId);\r\n    }\r\n\r\n    function rejectBuyer(address _buyerId) public onlyLandInspector {\r\n        BuyerRejection[_buyerId] = true;\r\n        emit Rejected(_buyerId);\r\n    }\r\n\r\n    function verifyLand(uint _landId) public onlyLandInspector {\r\n        LandVerification[_landId] = true;\r\n    }\r\n\r\n    function isLandVerified(uint _id) public view returns (bool) {\r\n        return LandVerification[_id];\r\n    }\r\n\r\n    function isVerified(address _id) public view returns (bool) {\r\n        return SellerVerification[_id] || BuyerVerification[_id];\r\n    }\r\n\r\n    function isRejected(address _id) public view returns (bool) {\r\n        return SellerRejection[_id] || BuyerRejection[_id];\r\n    }\r\n\r\n    function isSeller(address _id) public view returns (bool) {\r\n        return RegisteredSellerMapping[_id];\r\n    }\r\n\r\n    function isBuyer(address _id) public view returns (bool) {\r\n        return RegisteredBuyerMapping[_id];\r\n    }\r\n\r\n    function isLandInspector(address _id) public view returns (bool) {\r\n        return Land_Inspector == _id;\r\n    }\r\n\r\n    function isRegistered(address _id) public view returns (bool) {\r\n        return RegisteredAddressMapping[_id];\r\n    }\r\n\r\n    function getLandsCount() public view returns (uint) {\r\n        return landsCount;\r\n    }\r\n\r\n    function getSellersCount() public view returns (uint) {\r\n        return sellersCount;\r\n    }\r\n\r\n    function getBuyersCount() public view returns (uint) {\r\n        return buyersCount;\r\n    }\r\n\r\n    function getSeller() public view returns (address[] memory) {\r\n        return (sellers);\r\n    }\r\n\r\n    function getSellerDetails(\r\n        address i\r\n    )\r\n        public\r\n        view\r\n        returns (\r\n            string memory,\r\n            uint,\r\n            string memory,\r\n            string memory,\r\n            string memory,\r\n            string memory\r\n        )\r\n    {\r\n        return (\r\n            SellerMapping[i].name,\r\n            SellerMapping[i].age,\r\n            SellerMapping[i].aadharNumber,\r\n            SellerMapping[i].panNumber,\r\n            SellerMapping[i].landsOwned,\r\n            SellerMapping[i].document\r\n        );\r\n    }\r\n\r\n    function getBuyer() public view returns (address[] memory) {\r\n        return (buyers);\r\n    }\r\n\r\n    function getBuyerDetails(\r\n        address i\r\n    )\r\n        public\r\n        view\r\n        returns (\r\n            string memory,\r\n            string memory,\r\n            string memory,\r\n            string memory,\r\n            string memory,\r\n            uint,\r\n            string memory\r\n        )\r\n    {\r\n        return (\r\n            BuyerMapping[i].name,\r\n            BuyerMapping[i].city,\r\n            BuyerMapping[i].panNumber,\r\n            BuyerMapping[i].document,\r\n            BuyerMapping[i].email,\r\n            BuyerMapping[i].age,\r\n            BuyerMapping[i].aadharNumber\r\n        );\r\n    }\r\n\r\n    function getRequestDetails(\r\n        uint i\r\n    ) public view returns (address, address, uint, bool) {\r\n        return (\r\n            RequestsMapping[i].sellerId,\r\n            RequestsMapping[i].buyerId,\r\n            RequestsMapping[i].landId,\r\n            RequestStatus[i]\r\n        );\r\n    }\r\n\r\n    function isRequested(uint _id) public view returns (bool) {\r\n        return RequestedLands[_id];\r\n    }\r\n\r\n    function isApproved(uint _id) public view returns (bool) {\r\n        return RequestStatus[_id];\r\n    }\r\n\r\n    function LandOwnershipTransfer(uint _landId, address _newOwner) public {\r\n        require(isLandInspector(msg.sender));\r\n\r\n        LandOwner[_landId] = _newOwner;\r\n    }\r\n\r\n    function isPaid(uint _landId) public view returns (bool) {\r\n        return PaymentReceived[_landId];\r\n    }\r\n\r\n    function payment(\r\n        address payable _receiver,\r\n        uint _landId,\r\n        uint _landPrice\r\n    ) public payable {\r\n        require(msg.value >= _landPrice, \"Insufficient payment amount\");\r\n\r\n        PaymentReceived[_landId] = true;\r\n        _receiver.transfer(_landPrice);\r\n    }\r\n}\r\n",
  "sourcePath": "C:\\College Projects\\blockchain-project\\contracts\\Land.sol",
  "compiler": {
    "name": "solc",
    "version": "0.5.16+commit.9c3226ce.Emscripten.clang"
  },
  "schemaVersion": "3.4.16",
  "updatedAt": "2024-04-09T19:33:23.908Z",
  "networkType": "ethereum",
  "devdoc": {
    "methods": {}
  },
  "userdoc": {
    "methods": {}
  }
}