{
  "contractName": "Land",
  "abi": [
    {
      "inputs": [],
      "payable": false,
      "stateMutability": "nonpayable",
      "type": "constructor"
    },
    {
      "anonymous": false,
      "inputs": [
        {
          "indexed": false,
          "internalType": "address",
          "name": "_sellerId",
          "type": "address"
        }
      ],
      "name": "LandRequested",
      "type": "event"
    },
    {
      "anonymous": false,
      "inputs": [
        {
          "indexed": false,
          "internalType": "address",
          "name": "_registrationId",
          "type": "address"
        }
      ],
      "name": "Registration",
      "type": "event"
    },
    {
      "anonymous": false,
      "inputs": [
        {
          "indexed": false,
          "internalType": "address",
          "name": "_id",
          "type": "address"
        }
      ],
      "name": "Rejected",
      "type": "event"
    },
    {
      "anonymous": false,
      "inputs": [
        {
          "indexed": false,
          "internalType": "uint256",
          "name": "_reqId",
          "type": "uint256"
        }
      ],
      "name": "RequestApproved",
      "type": "event"
    },
    {
      "anonymous": false,
      "inputs": [
        {
          "indexed": false,
          "internalType": "address",
          "name": "_id",
          "type": "address"
        }
      ],
      "name": "Verified",
      "type": "event"
    },
    {
      "constant": true,
      "inputs": [
        {
          "internalType": "uint256",
          "name": "",
          "type": "uint256"
        }
      ],
      "name": "InspectorMapping",
      "outputs": [
        {
          "internalType": "uint256",
          "name": "id",
          "type": "uint256"
        },
        {
          "internalType": "string",
          "name": "name",
          "type": "string"
        },
        {
          "internalType": "uint256",
          "name": "age",
          "type": "uint256"
        },
        {
          "internalType": "string",
          "name": "designation",
          "type": "string"
        }
      ],
      "payable": false,
      "stateMutability": "view",
      "type": "function"
    },
    {
      "constant": true,
      "inputs": [
        {
          "internalType": "uint256",
          "name": "",
          "type": "uint256"
        }
      ],
      "name": "LandOwner",
      "outputs": [
        {
          "internalType": "address",
          "name": "",
          "type": "address"
        }
      ],
      "payable": false,
      "stateMutability": "view",
      "type": "function"
    },
    {
      "constant": true,
      "inputs": [
        {
          "internalType": "uint256",
          "name": "",
          "type": "uint256"
        }
      ],
      "name": "LandVerification",
      "outputs": [
        {
          "internalType": "bool",
          "name": "",
          "type": "bool"
        }
      ],
      "payable": false,
      "stateMutability": "view",
      "type": "function"
    },
    {
      "constant": true,
      "inputs": [],
      "name": "Land_Inspector",
      "outputs": [
        {
          "internalType": "address",
          "name": "",
          "type": "address"
        }
      ],
      "payable": false,
      "stateMutability": "view",
      "type": "function"
    },
    {
      "constant": true,
      "inputs": [
        {
          "internalType": "uint256",
          "name": "",
          "type": "uint256"
        }
      ],
      "name": "PaymentReceived",
      "outputs": [
        {
          "internalType": "bool",
          "name": "",
          "type": "bool"
        }
      ],
      "payable": false,
      "stateMutability": "view",
      "type": "function"
    },
    {
      "constant": true,
      "inputs": [
        {
          "internalType": "address",
          "name": "",
          "type": "address"
        }
      ],
      "name": "RegisteredAddressMapping",
      "outputs": [
        {
          "internalType": "bool",
          "name": "",
          "type": "bool"
        }
      ],
      "payable": false,
      "stateMutability": "view",
      "type": "function"
    },
    {
      "constant": true,
      "inputs": [
        {
          "internalType": "address",
          "name": "",
          "type": "address"
        }
      ],
      "name": "RegisteredUserMapping",
      "outputs": [
        {
          "internalType": "bool",
          "name": "",
          "type": "bool"
        }
      ],
      "payable": false,
      "stateMutability": "view",
      "type": "function"
    },
    {
      "constant": true,
      "inputs": [
        {
          "internalType": "uint256",
          "name": "",
          "type": "uint256"
        }
      ],
      "name": "RequestStatus",
      "outputs": [
        {
          "internalType": "bool",
          "name": "",
          "type": "bool"
        }
      ],
      "payable": false,
      "stateMutability": "view",
      "type": "function"
    },
    {
      "constant": true,
      "inputs": [
        {
          "internalType": "uint256",
          "name": "",
          "type": "uint256"
        }
      ],
      "name": "RequestedLands",
      "outputs": [
        {
          "internalType": "bool",
          "name": "",
          "type": "bool"
        }
      ],
      "payable": false,
      "stateMutability": "view",
      "type": "function"
    },
    {
      "constant": true,
      "inputs": [
        {
          "internalType": "uint256",
          "name": "",
          "type": "uint256"
        }
      ],
      "name": "RequestsMapping",
      "outputs": [
        {
          "internalType": "uint256",
          "name": "reqId",
          "type": "uint256"
        },
        {
          "internalType": "address",
          "name": "sellerId",
          "type": "address"
        },
        {
          "internalType": "address",
          "name": "buyerId",
          "type": "address"
        },
        {
          "internalType": "uint256",
          "name": "landId",
          "type": "uint256"
        }
      ],
      "payable": false,
      "stateMutability": "view",
      "type": "function"
    },
    {
      "constant": true,
      "inputs": [
        {
          "internalType": "address",
          "name": "",
          "type": "address"
        }
      ],
      "name": "UserMapping",
      "outputs": [
        {
          "internalType": "address",
          "name": "id",
          "type": "address"
        },
        {
          "internalType": "string",
          "name": "name",
          "type": "string"
        },
        {
          "internalType": "uint256",
          "name": "age",
          "type": "uint256"
        },
        {
          "internalType": "string",
          "name": "city",
          "type": "string"
        },
        {
          "internalType": "string",
          "name": "aadharNumber",
          "type": "string"
        },
        {
          "internalType": "string",
          "name": "panNumber",
          "type": "string"
        },
        {
          "internalType": "string",
          "name": "document",
          "type": "string"
        },
        {
          "internalType": "string",
          "name": "email",
          "type": "string"
        }
      ],
      "payable": false,
      "stateMutability": "view",
      "type": "function"
    },
    {
      "constant": true,
      "inputs": [
        {
          "internalType": "address",
          "name": "",
          "type": "address"
        }
      ],
      "name": "UserRejection",
      "outputs": [
        {
          "internalType": "bool",
          "name": "",
          "type": "bool"
        }
      ],
      "payable": false,
      "stateMutability": "view",
      "type": "function"
    },
    {
      "constant": true,
      "inputs": [
        {
          "internalType": "address",
          "name": "",
          "type": "address"
        }
      ],
      "name": "UserVerification",
      "outputs": [
        {
          "internalType": "bool",
          "name": "",
          "type": "bool"
        }
      ],
      "payable": false,
      "stateMutability": "view",
      "type": "function"
    },
    {
      "constant": true,
      "inputs": [],
      "name": "inspectorsCount",
      "outputs": [
        {
          "internalType": "uint256",
          "name": "",
          "type": "uint256"
        }
      ],
      "payable": false,
      "stateMutability": "view",
      "type": "function"
    },
    {
      "constant": true,
      "inputs": [
        {
          "internalType": "uint256",
          "name": "",
          "type": "uint256"
        }
      ],
      "name": "landIds",
      "outputs": [
        {
          "internalType": "uint256",
          "name": "",
          "type": "uint256"
        }
      ],
      "payable": false,
      "stateMutability": "view",
      "type": "function"
    },
    {
      "constant": true,
      "inputs": [
        {
          "internalType": "uint256",
          "name": "",
          "type": "uint256"
        }
      ],
      "name": "lands",
      "outputs": [
        {
          "internalType": "uint256",
          "name": "id",
          "type": "uint256"
        },
        {
          "internalType": "uint256",
          "name": "area",
          "type": "uint256"
        },
        {
          "internalType": "string",
          "name": "city",
          "type": "string"
        },
        {
          "internalType": "string",
          "name": "state",
          "type": "string"
        },
        {
          "internalType": "uint256",
          "name": "landPrice",
          "type": "uint256"
        },
        {
          "internalType": "uint256",
          "name": "propertyPID",
          "type": "uint256"
        },
        {
          "internalType": "uint256",
          "name": "physicalSurveyNumber",
          "type": "uint256"
        },
        {
          "internalType": "string",
          "name": "ipfsHash",
          "type": "string"
        },
        {
          "internalType": "string",
          "name": "document",
          "type": "string"
        },
        {
          "internalType": "address",
          "name": "landOwner",
          "type": "address"
        }
      ],
      "payable": false,
      "stateMutability": "view",
      "type": "function"
    },
    {
      "constant": true,
      "inputs": [],
      "name": "landsCount",
      "outputs": [
        {
          "internalType": "uint256",
          "name": "",
          "type": "uint256"
        }
      ],
      "payable": false,
      "stateMutability": "view",
      "type": "function"
    },
    {
      "constant": true,
      "inputs": [],
      "name": "requestsCount",
      "outputs": [
        {
          "internalType": "uint256",
          "name": "",
          "type": "uint256"
        }
      ],
      "payable": false,
      "stateMutability": "view",
      "type": "function"
    },
    {
      "constant": true,
      "inputs": [
        {
          "internalType": "address",
          "name": "",
          "type": "address"
        },
        {
          "internalType": "uint256",
          "name": "",
          "type": "uint256"
        }
      ],
      "name": "userOwnedLands",
      "outputs": [
        {
          "internalType": "uint256",
          "name": "",
          "type": "uint256"
        }
      ],
      "payable": false,
      "stateMutability": "view",
      "type": "function"
    },
    {
      "constant": true,
      "inputs": [
        {
          "internalType": "uint256",
          "name": "",
          "type": "uint256"
        }
      ],
      "name": "users",
      "outputs": [
        {
          "internalType": "address",
          "name": "",
          "type": "address"
        }
      ],
      "payable": false,
      "stateMutability": "view",
      "type": "function"
    },
    {
      "constant": true,
      "inputs": [],
      "name": "usersCount",
      "outputs": [
        {
          "internalType": "uint256",
          "name": "",
          "type": "uint256"
        }
      ],
      "payable": false,
      "stateMutability": "view",
      "type": "function"
    },
    {
      "constant": false,
      "inputs": [
        {
          "internalType": "uint256",
          "name": "_area",
          "type": "uint256"
        },
        {
          "internalType": "string",
          "name": "_city",
          "type": "string"
        },
        {
          "internalType": "string",
          "name": "_state",
          "type": "string"
        },
        {
          "internalType": "uint256",
          "name": "_landPrice",
          "type": "uint256"
        },
        {
          "internalType": "uint256",
          "name": "_propertyPID",
          "type": "uint256"
        },
        {
          "internalType": "uint256",
          "name": "_surveyNum",
          "type": "uint256"
        },
        {
          "internalType": "string",
          "name": "_ipfsHash",
          "type": "string"
        },
        {
          "internalType": "string",
          "name": "_document",
          "type": "string"
        }
      ],
      "name": "addLand",
      "outputs": [],
      "payable": false,
      "stateMutability": "nonpayable",
      "type": "function"
    },
    {
      "constant": true,
      "inputs": [],
      "name": "getAllLandIds",
      "outputs": [
        {
          "internalType": "uint256[]",
          "name": "",
          "type": "uint256[]"
        }
      ],
      "payable": false,
      "stateMutability": "view",
      "type": "function"
    },
    {
      "constant": false,
      "inputs": [
        {
          "internalType": "string",
          "name": "_name",
          "type": "string"
        },
        {
          "internalType": "uint256",
          "name": "_age",
          "type": "uint256"
        },
        {
          "internalType": "string",
          "name": "_city",
          "type": "string"
        },
        {
          "internalType": "string",
          "name": "_aadharNumber",
          "type": "string"
        },
        {
          "internalType": "string",
          "name": "_panNumber",
          "type": "string"
        },
        {
          "internalType": "string",
          "name": "_document",
          "type": "string"
        },
        {
          "internalType": "string",
          "name": "_email",
          "type": "string"
        }
      ],
      "name": "registerUser",
      "outputs": [],
      "payable": false,
      "stateMutability": "nonpayable",
      "type": "function"
    },
    {
      "constant": false,
      "inputs": [
        {
          "internalType": "address",
          "name": "_sellerId",
          "type": "address"
        },
        {
          "internalType": "uint256",
          "name": "_landId",
          "type": "uint256"
        }
      ],
      "name": "requestLand",
      "outputs": [],
      "payable": false,
      "stateMutability": "nonpayable",
      "type": "function"
    },
    {
      "constant": false,
      "inputs": [
        {
          "internalType": "uint256",
          "name": "_reqId",
          "type": "uint256"
        }
      ],
      "name": "approveRequest",
      "outputs": [],
      "payable": false,
      "stateMutability": "nonpayable",
      "type": "function"
    },
    {
      "constant": false,
      "inputs": [
        {
          "internalType": "address",
          "name": "_userId",
          "type": "address"
        }
      ],
      "name": "verifyUser",
      "outputs": [],
      "payable": false,
      "stateMutability": "nonpayable",
      "type": "function"
    },
    {
      "constant": false,
      "inputs": [
        {
          "internalType": "address",
          "name": "_userId",
          "type": "address"
        }
      ],
      "name": "rejectUser",
      "outputs": [],
      "payable": false,
      "stateMutability": "nonpayable",
      "type": "function"
    },
    {
      "constant": false,
      "inputs": [
        {
          "internalType": "uint256",
          "name": "_landId",
          "type": "uint256"
        }
      ],
      "name": "verifyLand",
      "outputs": [],
      "payable": false,
      "stateMutability": "nonpayable",
      "type": "function"
    },
    {
      "constant": true,
      "inputs": [
        {
          "internalType": "uint256",
          "name": "_id",
          "type": "uint256"
        }
      ],
      "name": "isLandVerified",
      "outputs": [
        {
          "internalType": "bool",
          "name": "",
          "type": "bool"
        }
      ],
      "payable": false,
      "stateMutability": "view",
      "type": "function"
    },
    {
      "constant": true,
      "inputs": [
        {
          "internalType": "address",
          "name": "_id",
          "type": "address"
        }
      ],
      "name": "isVerified",
      "outputs": [
        {
          "internalType": "bool",
          "name": "",
          "type": "bool"
        }
      ],
      "payable": false,
      "stateMutability": "view",
      "type": "function"
    },
    {
      "constant": true,
      "inputs": [
        {
          "internalType": "address",
          "name": "_id",
          "type": "address"
        }
      ],
      "name": "isRejected",
      "outputs": [
        {
          "internalType": "bool",
          "name": "",
          "type": "bool"
        }
      ],
      "payable": false,
      "stateMutability": "view",
      "type": "function"
    },
    {
      "constant": true,
      "inputs": [
        {
          "internalType": "address",
          "name": "_id",
          "type": "address"
        }
      ],
      "name": "isUser",
      "outputs": [
        {
          "internalType": "bool",
          "name": "",
          "type": "bool"
        }
      ],
      "payable": false,
      "stateMutability": "view",
      "type": "function"
    },
    {
      "constant": true,
      "inputs": [
        {
          "internalType": "address",
          "name": "_id",
          "type": "address"
        }
      ],
      "name": "isLandInspector",
      "outputs": [
        {
          "internalType": "bool",
          "name": "",
          "type": "bool"
        }
      ],
      "payable": false,
      "stateMutability": "view",
      "type": "function"
    },
    {
      "constant": true,
      "inputs": [
        {
          "internalType": "address",
          "name": "_id",
          "type": "address"
        }
      ],
      "name": "isRegistered",
      "outputs": [
        {
          "internalType": "bool",
          "name": "",
          "type": "bool"
        }
      ],
      "payable": false,
      "stateMutability": "view",
      "type": "function"
    },
    {
      "constant": true,
      "inputs": [],
      "name": "getLandsCount",
      "outputs": [
        {
          "internalType": "uint256",
          "name": "",
          "type": "uint256"
        }
      ],
      "payable": false,
      "stateMutability": "view",
      "type": "function"
    },
    {
      "constant": true,
      "inputs": [],
      "name": "getUsersCount",
      "outputs": [
        {
          "internalType": "uint256",
          "name": "",
          "type": "uint256"
        }
      ],
      "payable": false,
      "stateMutability": "view",
      "type": "function"
    },
    {
      "constant": true,
      "inputs": [],
      "name": "getUser",
      "outputs": [
        {
          "internalType": "address[]",
          "name": "",
          "type": "address[]"
        }
      ],
      "payable": false,
      "stateMutability": "view",
      "type": "function"
    },
    {
      "constant": true,
      "inputs": [
        {
          "internalType": "address",
          "name": "user",
          "type": "address"
        }
      ],
      "name": "getUserOwnedLands",
      "outputs": [
        {
          "internalType": "uint256[]",
          "name": "",
          "type": "uint256[]"
        }
      ],
      "payable": false,
      "stateMutability": "view",
      "type": "function"
    },
    {
      "constant": true,
      "inputs": [
        {
          "internalType": "uint256",
          "name": "landId",
          "type": "uint256"
        }
      ],
      "name": "getLandInfo",
      "outputs": [
        {
          "components": [
            {
              "internalType": "uint256",
              "name": "id",
              "type": "uint256"
            },
            {
              "internalType": "uint256",
              "name": "area",
              "type": "uint256"
            },
            {
              "internalType": "string",
              "name": "city",
              "type": "string"
            },
            {
              "internalType": "string",
              "name": "state",
              "type": "string"
            },
            {
              "internalType": "uint256",
              "name": "landPrice",
              "type": "uint256"
            },
            {
              "internalType": "uint256",
              "name": "propertyPID",
              "type": "uint256"
            },
            {
              "internalType": "uint256",
              "name": "physicalSurveyNumber",
              "type": "uint256"
            },
            {
              "internalType": "string",
              "name": "ipfsHash",
              "type": "string"
            },
            {
              "internalType": "string",
              "name": "document",
              "type": "string"
            },
            {
              "internalType": "address",
              "name": "landOwner",
              "type": "address"
            }
          ],
          "internalType": "struct Land.Landreg",
          "name": "",
          "type": "tuple"
        }
      ],
      "payable": false,
      "stateMutability": "view",
      "type": "function"
    },
    {
      "constant": true,
      "inputs": [
        {
          "internalType": "address",
          "name": "i",
          "type": "address"
        }
      ],
      "name": "getBuyerDetails",
      "outputs": [
        {
          "internalType": "string",
          "name": "",
          "type": "string"
        },
        {
          "internalType": "string",
          "name": "",
          "type": "string"
        },
        {
          "internalType": "string",
          "name": "",
          "type": "string"
        },
        {
          "internalType": "string",
          "name": "",
          "type": "string"
        },
        {
          "internalType": "string",
          "name": "",
          "type": "string"
        },
        {
          "internalType": "uint256",
          "name": "",
          "type": "uint256"
        },
        {
          "internalType": "string",
          "name": "",
          "type": "string"
        }
      ],
      "payable": false,
      "stateMutability": "view",
      "type": "function"
    },
    {
      "constant": true,
      "inputs": [
        {
          "internalType": "uint256",
          "name": "i",
          "type": "uint256"
        }
      ],
      "name": "getRequestDetails",
      "outputs": [
        {
          "internalType": "address",
          "name": "",
          "type": "address"
        },
        {
          "internalType": "address",
          "name": "",
          "type": "address"
        },
        {
          "internalType": "uint256",
          "name": "",
          "type": "uint256"
        },
        {
          "internalType": "bool",
          "name": "",
          "type": "bool"
        }
      ],
      "payable": false,
      "stateMutability": "view",
      "type": "function"
    },
    {
      "constant": true,
      "inputs": [
        {
          "internalType": "uint256",
          "name": "_id",
          "type": "uint256"
        }
      ],
      "name": "isRequested",
      "outputs": [
        {
          "internalType": "bool",
          "name": "",
          "type": "bool"
        }
      ],
      "payable": false,
      "stateMutability": "view",
      "type": "function"
    },
    {
      "constant": true,
      "inputs": [
        {
          "internalType": "uint256",
          "name": "_id",
          "type": "uint256"
        }
      ],
      "name": "isApproved",
      "outputs": [
        {
          "internalType": "bool",
          "name": "",
          "type": "bool"
        }
      ],
      "payable": false,
      "stateMutability": "view",
      "type": "function"
    },
    {
      "constant": false,
      "inputs": [
        {
          "internalType": "uint256",
          "name": "_landId",
          "type": "uint256"
        },
        {
          "internalType": "address",
          "name": "_newOwner",
          "type": "address"
        }
      ],
      "name": "LandOwnershipTransfer",
      "outputs": [],
      "payable": false,
      "stateMutability": "nonpayable",
      "type": "function"
    },
    {
      "constant": true,
      "inputs": [
        {
          "internalType": "uint256",
          "name": "_landId",
          "type": "uint256"
        }
      ],
      "name": "isPaid",
      "outputs": [
        {
          "internalType": "bool",
          "name": "",
          "type": "bool"
        }
      ],
      "payable": false,
      "stateMutability": "view",
      "type": "function"
    },
    {
      "constant": false,
      "inputs": [
        {
          "internalType": "address payable",
          "name": "_receiver",
          "type": "address"
        },
        {
          "internalType": "uint256",
          "name": "_landId",
          "type": "uint256"
        },
        {
          "internalType": "uint256",
          "name": "_landPrice",
          "type": "uint256"
        }
      ],
      "name": "payment",
      "outputs": [],
      "payable": true,
      "stateMutability": "payable",
      "type": "function"
    }
  ],
  "bytecode": "0x60806040523480156200001157600080fd5b50600e8054600160a060020a03191633178155604080518082018252600b81527f496e73706563746f72203100000000000000000000000000000000000000000060208083019190915282518084019093529282527f54656873696c204d616e6167657200000000000000000000000000000000000092820192909252620000a69190602d90640100000000620000ac810204565b620001db565b60118054600190810191829055604080516080810182528381526020808201888152828401889052606083018790526000958652600282529290942081518155915180519194929362000106939085019291019062000136565b5060408201516002820155606082015180516200012e91600384019160209091019062000136565b505050505050565b828054600181600116156101000203166002900490600052602060002090601f016020900481019282601f106200017957805160ff1916838001178555620001a9565b82800160010185558215620001a9579182015b82811115620001a95782518255916020019190600101906200018c565b50620001b7929150620001bb565b5090565b620001d891905b80821115620001b75760008155600101620001c2565b90565b612f6c80620001eb6000396000f3fe608060405260043610610325576000357c010000000000000000000000000000000000000000000000000000000090048063903a9451116101b7578063d7d1bbdb116100fe578063edfbe247116100a7578063f58f85b511610081578063f58f85b51461090b578063f9c43bdf1461092b578063fbfa4b7f1461094b57610325565b8063edfbe2471461089b578063f34d4c63146108bb578063f3f0c218146108eb57610325565b8063e165af87116100d8578063e165af8714610825578063e261f1e514610845578063e530c4001461087b57610325565b8063d7d1bbdb146107c0578063d7dee192146107e0578063def936c3146107f557610325565b8063b0a5dcd311610160578063c3c5a5471161013a578063c3c5a5471461074c578063cd392a831461076c578063d61ff68c1461078c57610325565b8063b0a5dcd3146106dc578063b9209e331461070c578063bed403c71461072c57610325565b80639dc1bfa9116101915780639dc1bfa914610687578063a4a1e263146106a7578063ac8afa8f146106bc57610325565b8063903a94511461063f578063941e24261461065f5780639b91293b1461067457610325565b80634d058d5a1161027b5780636cbf6cf811610224578063832880e7116101fe578063832880e7146105dd57806383546501146105ff57806389d213541461061f57610325565b80636cbf6cf8146105705780636f6f9bef146105905780637910867b146105bd57610325565b80634dc92885116102555780634dc928851461050857806368cfe6ee146105285780636ba13a821461055b57610325565b80634d058d5a146104a65780634d813120146104c65780634daa9dae146104e857610325565b806321ed6431116102dd5780634209fff1116102b75780634209fff11461043957806348a46bd3146104595780634ae1851b1461047957610325565b806321ed6431146103d957806332f2bb14146103f9578063365b98b21461041957610325565b8063170f39091161030e578063170f3909146103825780631a07f76e146103a45780631c9afd0f146103c457610325565b8063155fec721461032a57806316d9d66614610360575b600080fd5b34801561033657600080fd5b5061034a610345366004612626565b610960565b6040516103579190612bfb565b60405180910390f35b34801561036c57600080fd5b50610375610975565b6040516103579190612cf9565b34801561038e57600080fd5b5061039761097c565b6040516103579190612ad8565b3480156103b057600080fd5b5061034a6103bf366004612626565b61098b565b3480156103d057600080fd5b506103756109a0565b3480156103e557600080fd5b5061034a6103f436600461244e565b6109a6565b34801561040557600080fd5b5061034a61041436600461244e565b6109bb565b34801561042557600080fd5b50610397610434366004612626565b6109d0565b34801561044557600080fd5b5061034a61045436600461244e565b6109f7565b34801561046557600080fd5b5061034a61047436600461244e565b610a15565b34801561048557600080fd5b5061049961049436600461244e565b610a33565b6040516103579190612bea565b3480156104b257600080fd5b506103756104c13660046124c1565b610a9f565b3480156104d257600080fd5b506104e66104e136600461244e565b610acd565b005b3480156104f457600080fd5b5061034a610503366004612626565b610b61565b34801561051457600080fd5b506104e661052336600461244e565b610b76565b34801561053457600080fd5b5061054861054336600461244e565b610bf6565b6040516103579796959493929190612c09565b34801561056757600080fd5b50610375610fa7565b34801561057c57600080fd5b5061034a61058b366004612626565b610fad565b34801561059c57600080fd5b506105b06105ab366004612626565b610fc2565b6040516103579190612ce8565b3480156105c957600080fd5b5061034a6105d8366004612626565b611286565b3480156105e957600080fd5b506105f261129b565b6040516103579190612bd2565b34801561060b57600080fd5b5061034a61061a366004612626565b6112fd565b34801561062b57600080fd5b5061034a61063a366004612626565b611312565b34801561064b57600080fd5b5061037561065a366004612626565b611327565b34801561066b57600080fd5b50610375611345565b6104e6610682366004612474565b61134b565b34801561069357600080fd5b506103976106a2366004612626565b6113bb565b3480156106b357600080fd5b506103756113d6565b3480156106c857600080fd5b5061034a6106d736600461244e565b6113dc565b3480156106e857600080fd5b506106fc6106f7366004612626565b6113f1565b6040516103579493929190612d07565b34801561071857600080fd5b5061034a61072736600461244e565b611425565b34801561073857600080fd5b506104e6610747366004612644565b611443565b34801561075857600080fd5b5061034a61076736600461244e565b611490565b34801561077857600080fd5b5061034a610787366004612626565b6114ae565b34801561079857600080fd5b506107ac6107a736600461244e565b6114c3565b604051610357989796959493929190612b32565b3480156107cc57600080fd5b506104e66107db366004612626565b61184f565b3480156107ec57600080fd5b506104996118c0565b34801561080157600080fd5b50610815610810366004612626565b611917565b6040516103579493929190612d3c565b34801561083157600080fd5b5061034a61084036600461244e565b611a54565b34801561085157600080fd5b50610865610860366004612626565b611a68565b6040516103579a99989796959493929190612d87565b34801561088757600080fd5b506104e6610896366004612674565b611ce4565b3480156108a757600080fd5b506104e66108b63660046124fb565b611ee5565b3480156108c757600080fd5b506108db6108d6366004612626565b612102565b6040516103579493929190612af4565b3480156108f757600080fd5b506104e66109063660046124c1565b612144565b34801561091757600080fd5b5061034a61092636600461244e565b612287565b34801561093757600080fd5b506104e6610946366004612626565b61229c565b34801561095757600080fd5b506103756122e4565b6000908152600c602052604090205460ff1690565b6010545b90565b600e54600160a060020a031681565b600d6020526000908152604090205460ff1681565b60105481565b60076020526000908152604090205460ff1681565b60066020526000908152604090205460ff1681565b600f81815481106109dd57fe5b600091825260209091200154600160a060020a0316905081565b600160a060020a031660009081526006602052604090205460ff1690565b600160a060020a031660009081526008602052604090205460ff1690565b600160a060020a038116600090815260016020908152604091829020805483518184028101840190945280845260609392830182828015610a9357602002820191906000526020600020905b815481526020019060010190808311610a7f575b50505050509050919050565b60016020528160005260406000208181548110610ab857fe5b90600052602060002001600091509150505481565b600e54600160a060020a03163314610b035760405160e560020a62461bcd028152600401610afa90612cb8565b60405180910390fd5b600160a060020a03811660009081526007602052604090819020805460ff19166001179055517f6a6455914f452787eb3985452aceedc1000fb545e394eb3b370e3d08958e0a5b90610b56908390612ad8565b60405180910390a150565b600c6020526000908152604090205460ff1681565b600e54600160a060020a03163314610ba35760405160e560020a62461bcd028152600401610afa90612cb8565b600160a060020a03811660009081526008602052604090819020805460ff19166001179055517faf77f8960cf590e245ec8b6d41c193a5dcacad8986ae4eb57ac9e5be7b6af03190610b56908390612ad8565b600160a060020a03811660009081526003602081815260408084206002808201546001808401805486519281161561010002600019011693909304601f81018790048702820187019095528481526060978897889788978897939688969095938501946005810194600682019460078301946004909301928991830182828015610cc15780601f10610c9657610100808354040283529160200191610cc1565b820191906000526020600020905b815481529060010190602001808311610ca457829003601f168201915b5050895460408051602060026001851615610100026000190190941693909304601f8101849004840282018401909252818152959c508b945092508401905082828015610d4f5780601f10610d2457610100808354040283529160200191610d4f565b820191906000526020600020905b815481529060010190602001808311610d3257829003601f168201915b5050885460408051602060026001851615610100026000190190941693909304601f8101849004840282018401909252818152959b508a945092508401905082828015610ddd5780601f10610db257610100808354040283529160200191610ddd565b820191906000526020600020905b815481529060010190602001808311610dc057829003601f168201915b5050875460408051602060026001851615610100026000190190941693909304601f8101849004840282018401909252818152959a5089945092508401905082828015610e6b5780601f10610e4057610100808354040283529160200191610e6b565b820191906000526020600020905b815481529060010190602001808311610e4e57829003601f168201915b5050865460408051602060026001851615610100026000190190941693909304601f810184900484028201840190925281815295995088945092508401905082828015610ef95780601f10610ece57610100808354040283529160200191610ef9565b820191906000526020600020905b815481529060010190602001808311610edc57829003601f168201915b5050845460408051602060026001851615610100026000190190941693909304601f810184900484028201840190925281815295985086945092508401905082828015610f875780601f10610f5c57610100808354040283529160200191610f87565b820191906000526020600020905b815481529060010190602001808311610f6a57829003601f168201915b505050505090509650965096509650965096509650919395979092949650565b60125481565b60009081526009602052604090205460ff1690565b610fca6122ea565b6000828152602081815260409182902082516101408101845281548152600180830154828501526002808401805487519381161561010002600019011691909104601f8101869004860283018601875280835292959394938601939192909183018282801561107a5780601f1061104f5761010080835404028352916020019161107a565b820191906000526020600020905b81548152906001019060200180831161105d57829003601f168201915b505050918352505060038201805460408051602060026001851615610100026000190190941693909304601f810184900484028201840190925281815293820193929183018282801561110e5780601f106110e35761010080835404028352916020019161110e565b820191906000526020600020905b8154815290600101906020018083116110f157829003601f168201915b50505050508152602001600482015481526020016005820154815260200160068201548152602001600782018054600181600116156101000203166002900480601f0160208091040260200160405190810160405280929190818152602001828054600181600116156101000203166002900480156111ce5780601f106111a3576101008083540402835291602001916111ce565b820191906000526020600020905b8154815290600101906020018083116111b157829003601f168201915b505050918352505060088201805460408051602060026001851615610100026000190190941693909304601f81018490048402820184019092528181529382019392918301828280156112625780601f1061123757610100808354040283529160200191611262565b820191906000526020600020905b81548152906001019060200180831161124557829003601f168201915b505050918352505060099190910154600160a060020a031660209091015292915050565b6000908152600b602052604090205460ff1690565b6060600f8054806020026020016040519081016040528092919081815260200182805480156112f357602002820191906000526020600020905b8154600160a060020a031681526001909101906020018083116112d5575b5050505050905090565b60096020526000908152604090205460ff1681565b600b6020526000908152604090205460ff1681565b6014818154811061133457fe5b600091825260209091200154905081565b60115481565b8034101561136e5760405160e560020a62461bcd028152600401610afa90612cc8565b6000828152600d6020526040808220805460ff1916600117905551600160a060020a0385169183156108fc02918491818181858888f193505050501580156113b557600080fd5b50505050565b600a60205260009081526040902054600160a060020a031681565b60125490565b60086020526000908152604090205460ff1681565b60046020526000908152604090208054600182015460028301546003909301549192600160a060020a039182169291169084565b600160a060020a031660009081526007602052604090205460ff1690565b61144c33611a54565b61145557600080fd5b6000918252600a6020526040909120805473ffffffffffffffffffffffffffffffffffffffff1916600160a060020a03909216919091179055565b600160a060020a031660009081526005602052604090205460ff1690565b6000908152600d602052604090205460ff1690565b6003602090815260009182526040918290208054600180830180548651600261010094831615949094026000190190911692909204601f8101869004860283018601909652858252600160a060020a0390921694929390929083018282801561156d5780601f106115425761010080835404028352916020019161156d565b820191906000526020600020905b81548152906001019060200180831161155057829003601f168201915b505050506002838101546003850180546040805160206001841615610100026000190190931695909504601f8101839004830286018301909152808552959692959294509091908301828280156116055780601f106115da57610100808354040283529160200191611605565b820191906000526020600020905b8154815290600101906020018083116115e857829003601f168201915b5050505060048301805460408051602060026001851615610100026000190190941693909304601f81018490048402820184019092528181529495949350908301828280156116955780601f1061166a57610100808354040283529160200191611695565b820191906000526020600020905b81548152906001019060200180831161167857829003601f168201915b5050505060058301805460408051602060026001851615610100026000190190941693909304601f81018490048402820184019092528181529495949350908301828280156117255780601f106116fa57610100808354040283529160200191611725565b820191906000526020600020905b81548152906001019060200180831161170857829003601f168201915b5050505060068301805460408051602060026001851615610100026000190190941693909304601f81018490048402820184019092528181529495949350908301828280156117b55780601f1061178a576101008083540402835291602001916117b5565b820191906000526020600020905b81548152906001019060200180831161179857829003601f168201915b5050505060078301805460408051602060026001851615610100026000190190941693909304601f81018490048402820184019092528181529495949350908301828280156118455780601f1061181a57610100808354040283529160200191611845565b820191906000526020600020905b81548152906001019060200180831161182857829003601f168201915b5050505050905088565b611858336109f7565b6118775760405160e560020a62461bcd028152600401610afa90612c98565b6000818152600b602052604090819020805460ff19166001179055517fbecbbd7543b68baaaf7e9c3fd12e4719f1f506f4253abef4a6573d0adf3a73ed90610b56908390612cf9565b606060148054806020026020016040519081016040528092919081815260200182805480156112f357602002820191906000526020600020905b8154815260200190600101908083116118fa575050505050905090565b60026020818152600092835260409283902080546001808301805487519281161561010002600019011695909504601f81018590048502820185019096528581529094919390929091908301828280156119b25780601f10611987576101008083540402835291602001916119b2565b820191906000526020600020905b81548152906001019060200180831161199557829003601f168201915b505050506002838101546003850180546040805160206001841615610100026000190190931695909504601f810183900483028601830190915280855295969295929450909190830182828015611a4a5780601f10611a1f57610100808354040283529160200191611a4a565b820191906000526020600020905b815481529060010190602001808311611a2d57829003601f168201915b5050505050905084565b600e54600160a060020a0391821691161490565b6000602081815291815260409081902080546001808301546002808501805487519481161561010002600019011691909104601f81018890048802840188019096528583529295909491929190830182828015611b065780601f10611adb57610100808354040283529160200191611b06565b820191906000526020600020905b815481529060010190602001808311611ae957829003601f168201915b5050505060038301805460408051602060026001851615610100026000190190941693909304601f8101849004840282018401909252818152949594935090830182828015611b965780601f10611b6b57610100808354040283529160200191611b96565b820191906000526020600020905b815481529060010190602001808311611b7957829003601f168201915b505050600484015460058501546006860154600787018054604080516020601f60026000196101006001881615020190951694909404938401819004810282018101909252828152989995989497509295509091830182828015611c3b5780601f10611c1057610100808354040283529160200191611c3b565b820191906000526020600020905b815481529060010190602001808311611c1e57829003601f168201915b5050505060088301805460408051602060026001851615610100026000190190941693909304601f8101849004840282018401909252818152949594935090830182828015611ccb5780601f10611ca057610100808354040283529160200191611ccb565b820191906000526020600020905b815481529060010190602001808311611cae57829003601f168201915b50505060099093015491925050600160a060020a03168a565b611ced336109f7565b611d0c5760405160e560020a62461bcd028152600401610afa90612c98565b611d1533611425565b611d345760405160e560020a62461bcd028152600401610afa90612ca8565b60108054600190810191829055604080516101408101825283815260208082018d81528284018d8152606084018d9052608084018c905260a084018b905260c084018a905260e084018990526101008401889052336101208501526000968752868352939095208251815594519385019390935590518051919392611dc192600285019290910190612346565b5060608201518051611ddd916003840191602090910190612346565b506080820151600482015560a0820151600582015560c0820151600682015560e08201518051611e17916007840191602090910190612346565b506101008201518051611e34916008840191602090910190612346565b50610120919091015160099091018054600160a060020a0390921673ffffffffffffffffffffffffffffffffffffffff19928316179055601080546000908152600a602090815260408083208054909516339081179095559382526001808252938220835481548087018355918452918320015590546014805493840181559091527fce6d7b5282bd9a3661ae061feed1dbda4e52ab073b1f9285be6e155d9c38d4ec909101555050505050505050565b3360009081526005602052604090205460ff1615611f185760405160e560020a62461bcd028152600401610afa90612cd8565b3360008181526005602090815260408083208054600160ff1991821681179092556006845282852080549091168217905560128054820190558151610100810183528581528084018d81528184018d9052606082018c9052608082018b905260a082018a905260c0820189905260e0820188905295855260038452919093208151815473ffffffffffffffffffffffffffffffffffffffff1916600160a060020a0390911617815593518051919493611fd79390850192910190612346565b506040820151600282015560608201518051611ffd916003840191602090910190612346565b5060808201518051612019916004840191602090910190612346565b5060a08201518051612035916005840191602090910190612346565b5060c08201518051612051916006840191602090910190612346565b5060e0820151805161206d916007840191602090910190612346565b5050600f80546001810182556000919091527f8d1108e10bcb7c27dddfc02ed9d693a074039d026cf4ea4240b40f7d581ac80201805473ffffffffffffffffffffffffffffffffffffffff1916339081179091556040517f478f5152d8fc568db3f8de9fb402fd9d98a1a7541ecfe434e59cf574fbfc552492506120f19190612ae6565b60405180910390a150505050505050565b600090815260046020908152604080832060018101546002820154600390920154600b9094529190932054600160a060020a0391821694919093169260ff1690565b61214d336109f7565b61216c5760405160e560020a62461bcd028152600401610afa90612c98565b61217533611425565b6121945760405160e560020a62461bcd028152600401610afa90612ca8565b60138054600190810180835560408051608081018252828152600160a060020a03808816602080840191825233848601908152606085018a8152600097885260048352868820955186559251858901805491861673ffffffffffffffffffffffffffffffffffffffff199283161790559051600286018054919095169116179092555160039092019190915584548352600b8152818320805460ff1990811690915594548352600c9052908190208054909316909117909155517f226be41bcaf9760851410ade1cd6450b48b6b4d0adc46c61ea33b5a37b41bad79061227b908490612ad8565b60405180910390a15050565b60056020526000908152604090205460ff1681565b600e54600160a060020a031633146122c95760405160e560020a62461bcd028152600401610afa90612cb8565b6000908152600960205260409020805460ff19166001179055565b60135481565b6040518061014001604052806000815260200160008152602001606081526020016060815260200160008152602001600081526020016000815260200160608152602001606081526020016000600160a060020a031681525090565b828054600181600116156101000203166002900490600052602060002090601f016020900481019282601f1061238757805160ff19168380011785556123b4565b828001600101855582156123b4579182015b828111156123b4578251825591602001919060010190612399565b506123c09291506123c4565b5090565b61097991905b808211156123c057600081556001016123ca565b80356123e981612f09565b92915050565b600082601f83011261240057600080fd5b813561241361240e82612e5f565b612e38565b9150808252602083016020830185838301111561242f57600080fd5b61243a838284612ec7565b50505092915050565b80356123e981612f20565b60006020828403121561246057600080fd5b600061246c84846123de565b949350505050565b60008060006060848603121561248957600080fd5b600061249586866123de565b93505060206124a686828701612443565b92505060406124b786828701612443565b9150509250925092565b600080604083850312156124d457600080fd5b60006124e085856123de565b92505060206124f185828601612443565b9150509250929050565b600080600080600080600060e0888a03121561251657600080fd5b873567ffffffffffffffff81111561252d57600080fd5b6125398a828b016123ef565b975050602061254a8a828b01612443565b965050604088013567ffffffffffffffff81111561256757600080fd5b6125738a828b016123ef565b955050606088013567ffffffffffffffff81111561259057600080fd5b61259c8a828b016123ef565b945050608088013567ffffffffffffffff8111156125b957600080fd5b6125c58a828b016123ef565b93505060a088013567ffffffffffffffff8111156125e257600080fd5b6125ee8a828b016123ef565b92505060c088013567ffffffffffffffff81111561260b57600080fd5b6126178a828b016123ef565b91505092959891949750929550565b60006020828403121561263857600080fd5b600061246c8484612443565b6000806040838503121561265757600080fd5b60006126638585612443565b92505060206124f1858286016123de565b600080600080600080600080610100898b03121561269157600080fd5b600061269d8b8b612443565b985050602089013567ffffffffffffffff8111156126ba57600080fd5b6126c68b828c016123ef565b975050604089013567ffffffffffffffff8111156126e357600080fd5b6126ef8b828c016123ef565b96505060606127008b828c01612443565b95505060806127118b828c01612443565b94505060a06127228b828c01612443565b93505060c089013567ffffffffffffffff81111561273f57600080fd5b61274b8b828c016123ef565b92505060e089013567ffffffffffffffff81111561276857600080fd5b6127748b828c016123ef565b9150509295985092959890939650565b600061279083836127b3565b505060200190565b60006127908383612acf565b6127ad81612eb6565b82525050565b6127ad81612e9a565b60006127c782612e8d565b6127d18185612e91565b93506127dc83612e87565b8060005b8381101561280a5781516127f48882612784565b97506127ff83612e87565b9250506001016127e0565b509495945050505050565b600061282082612e8d565b61282a8185612e91565b935061283583612e87565b8060005b8381101561280a57815161284d8882612798565b975061285883612e87565b925050600101612839565b6127ad81612ea5565b600061287782612e8d565b6128818185612e91565b9350612891818560208601612ed3565b61289a81612eff565b9093019392505050565b60006128b1601f83612e91565b7f43616c6c6572206973206e6f7420612072656769737465726564205573657200815260200192915050565b60006128ea601483612e91565b7f55736572206973206e6f74207665726966696564000000000000000000000000815260200192915050565b6000612923602a83612e91565b7f4f6e6c79206c616e6420696e73706563746f722063616e2063616c6c2074686981527f732066756e6374696f6e00000000000000000000000000000000000000000000602082015260400192915050565b6000612982601b83612e91565b7f496e73756666696369656e74207061796d656e7420616d6f756e740000000000815260200192915050565b60006129bb601a83612e91565b7f5573657220697320616c72656164792072656769737465726564000000000000815260200192915050565b80516000906101408401906129fc8582612acf565b506020830151612a0f6020860182612acf565b5060408301518482036040860152612a27828261286c565b91505060608301518482036060860152612a41828261286c565b9150506080830151612a566080860182612acf565b5060a0830151612a6960a0860182612acf565b5060c0830151612a7c60c0860182612acf565b5060e083015184820360e0860152612a94828261286c565b915050610100830151848203610100860152612ab0828261286c565b915050610120830151612ac76101208601826127b3565b509392505050565b6127ad81610979565b602081016123e982846127b3565b602081016123e982846127a4565b60808101612b0282876127b3565b612b0f60208301866127b3565b612b1c6040830185612acf565b612b296060830184612863565b95945050505050565b6101008101612b41828b6127b3565b8181036020830152612b53818a61286c565b9050612b626040830189612acf565b8181036060830152612b74818861286c565b90508181036080830152612b88818761286c565b905081810360a0830152612b9c818661286c565b905081810360c0830152612bb0818561286c565b905081810360e0830152612bc4818461286c565b9a9950505050505050505050565b60208082528101612be381846127bc565b9392505050565b60208082528101612be38184612815565b602081016123e98284612863565b60e08082528101612c1a818a61286c565b90508181036020830152612c2e818961286c565b90508181036040830152612c42818861286c565b90508181036060830152612c56818761286c565b90508181036080830152612c6a818661286c565b9050612c7960a0830185612acf565b81810360c0830152612c8b818461286c565b9998505050505050505050565b602080825281016123e9816128a4565b602080825281016123e9816128dd565b602080825281016123e981612916565b602080825281016123e981612975565b602080825281016123e9816129ae565b60208082528101612be381846129e7565b602081016123e98284612acf565b60808101612d158287612acf565b612d2260208301866127b3565b612d2f60408301856127b3565b612b296060830184612acf565b60808101612d4a8287612acf565b8181036020830152612d5c818661286c565b9050612d6b6040830185612acf565b8181036060830152612d7d818461286c565b9695505050505050565b6101408101612d96828d612acf565b612da3602083018c612acf565b8181036040830152612db5818b61286c565b90508181036060830152612dc9818a61286c565b9050612dd86080830189612acf565b612de560a0830188612acf565b612df260c0830187612acf565b81810360e0830152612e04818661286c565b9050818103610100830152612e19818561286c565b9050612e296101208301846127b3565b9b9a5050505050505050505050565b60405181810167ffffffffffffffff81118282101715612e5757600080fd5b604052919050565b600067ffffffffffffffff821115612e7657600080fd5b506020601f91909101601f19160190565b60200190565b5190565b90815260200190565b60006123e982612eaa565b151590565b600160a060020a031690565b60006123e98260006123e982612e9a565b82818337506000910152565b60005b83811015612eee578181015183820152602001612ed6565b838111156113b55750506000910152565b601f01601f191690565b612f1281612e9a565b8114612f1d57600080fd5b50565b612f128161097956fea365627a7a7231582063ec54c75ccd8102e8603de20cb01cbc2b23a26d79536202e3b1aeace89740aa6c6578706572696d656e74616cf564736f6c63430005100040",
  "source": "// SPDX-License-Identifier: GPL-3.0\r\n\r\npragma solidity >=0.5.2;\r\npragma experimental ABIEncoderV2;\r\n\r\ncontract Land {\r\n    struct Landreg {\r\n        uint id;\r\n        uint area;\r\n        string city;\r\n        string state;\r\n        uint landPrice;\r\n        uint propertyPID;\r\n        uint physicalSurveyNumber;\r\n        string ipfsHash;\r\n        string document;\r\n        address landOwner;\r\n    }\r\n\r\n    struct User {\r\n        address id;\r\n        string name;\r\n        uint age;\r\n        string city;\r\n        string aadharNumber;\r\n        string panNumber;\r\n        string document;\r\n        string email;\r\n    }\r\n\r\n    struct LandInspector {\r\n        uint id;\r\n        string name;\r\n        uint age;\r\n        string designation;\r\n    }\r\n\r\n    struct LandRequest {\r\n        uint reqId;\r\n        address sellerId;\r\n        address buyerId;\r\n        uint landId;\r\n    }\r\n\r\n    mapping(uint => Landreg) public lands;\r\n    mapping(address => uint[]) public userOwnedLands;\r\n    mapping(uint => LandInspector) public InspectorMapping;\r\n    mapping(address => User) public UserMapping;\r\n    mapping(uint => LandRequest) public RequestsMapping;\r\n\r\n    mapping(address => bool) public RegisteredAddressMapping;\r\n    mapping(address => bool) public RegisteredUserMapping;\r\n    mapping(address => bool) public UserVerification;\r\n    mapping(address => bool) public UserRejection;\r\n    mapping(uint => bool) public LandVerification;\r\n    mapping(uint => address) public LandOwner;\r\n    mapping(uint => bool) public RequestStatus;\r\n    mapping(uint => bool) public RequestedLands;\r\n    mapping(uint => bool) public PaymentReceived;\r\n\r\n    address public Land_Inspector;\r\n    address[] public users;\r\n    uint public landsCount;\r\n    uint public inspectorsCount;\r\n    uint public usersCount;\r\n    uint public requestsCount;\r\n    uint[] public landIds;\r\n\r\n    event Registration(address _registrationId);\r\n    event LandRequested(address _sellerId);\r\n    event RequestApproved(uint _reqId);\r\n    event Verified(address _id);\r\n    event Rejected(address _id);\r\n\r\n    modifier onlyLandInspector() {\r\n        require(\r\n            msg.sender == Land_Inspector,\r\n            \"Only land inspector can call this function\"\r\n        );\r\n        _;\r\n    }\r\n    modifier onlyUser() {\r\n        require(isUser(msg.sender), \"Caller is not a registered User\");\r\n        _;\r\n    }\r\n\r\n    constructor() public {\r\n        Land_Inspector = msg.sender;\r\n        addLandInspector(\"Inspector 1\", 45, \"Tehsil Manager\");\r\n    }\r\n\r\n    function addLandInspector(\r\n        string memory _name,\r\n        uint _age,\r\n        string memory _designation\r\n    ) private {\r\n        inspectorsCount++;\r\n        InspectorMapping[inspectorsCount] = LandInspector(\r\n            inspectorsCount,\r\n            _name,\r\n            _age,\r\n            _designation\r\n        );\r\n    }\r\n\r\n    function addLand(\r\n        uint _area,\r\n        string memory _city,\r\n        string memory _state,\r\n        uint _landPrice,\r\n        uint _propertyPID,\r\n        uint _surveyNum,\r\n        string memory _ipfsHash,\r\n        string memory _document\r\n    ) public onlyUser {\r\n        require(isVerified(msg.sender), \"User is not verified\");\r\n\r\n        landsCount++;\r\n        lands[landsCount] = Landreg(\r\n            landsCount,\r\n            _area,\r\n            _city,\r\n            _state,\r\n            _landPrice,\r\n            _propertyPID,\r\n            _surveyNum,\r\n            _ipfsHash,\r\n            _document,\r\n            msg.sender\r\n        );\r\n        LandOwner[landsCount] = msg.sender;\r\n        userOwnedLands[msg.sender].push(landsCount);\r\n        landIds.push(landsCount);\r\n    }\r\n\r\n    function getAllLandIds() public view returns (uint[] memory) {\r\n        return landIds;\r\n    }\r\n\r\n    function registerUser(\r\n        string memory _name,\r\n        uint _age,\r\n        string memory _city,\r\n        string memory _aadharNumber,\r\n        string memory _panNumber,\r\n        string memory _document,\r\n        string memory _email\r\n    ) public {\r\n        require(\r\n            !RegisteredAddressMapping[msg.sender],\r\n            \"User is already registered\"\r\n        );\r\n\r\n        RegisteredAddressMapping[msg.sender] = true;\r\n        RegisteredUserMapping[msg.sender] = true;\r\n        usersCount++;\r\n        UserMapping[msg.sender] = User(\r\n            msg.sender,\r\n            _name,\r\n            _age,\r\n            _city,\r\n            _aadharNumber,\r\n            _panNumber,\r\n            _document,\r\n            _email\r\n        );\r\n        users.push(msg.sender);\r\n\r\n        emit Registration(msg.sender);\r\n    }\r\n\r\n    function requestLand(address _sellerId, uint _landId) public onlyUser {\r\n        require(isVerified(msg.sender), \"User is not verified\");\r\n\r\n        requestsCount++;\r\n        RequestsMapping[requestsCount] = LandRequest(\r\n            requestsCount,\r\n            _sellerId,\r\n            msg.sender,\r\n            _landId\r\n        );\r\n        RequestStatus[requestsCount] = false;\r\n        RequestedLands[requestsCount] = true;\r\n\r\n        emit LandRequested(_sellerId);\r\n    }\r\n\r\n    function approveRequest(uint _reqId) public onlyUser {\r\n        RequestStatus[_reqId] = true;\r\n\r\n        emit RequestApproved(_reqId);\r\n    }\r\n\r\n    function verifyUser(address _userId) public onlyLandInspector {\r\n        UserVerification[_userId] = true;\r\n        emit Verified(_userId);\r\n    }\r\n\r\n    function rejectUser(address _userId) public onlyLandInspector {\r\n        UserRejection[_userId] = true;\r\n        emit Rejected(_userId);\r\n    }\r\n\r\n    function verifyLand(uint _landId) public onlyLandInspector {\r\n        LandVerification[_landId] = true;\r\n    }\r\n\r\n    function isLandVerified(uint _id) public view returns (bool) {\r\n        return LandVerification[_id];\r\n    }\r\n\r\n    function isVerified(address _id) public view returns (bool) {\r\n        return UserVerification[_id];\r\n    }\r\n\r\n    function isRejected(address _id) public view returns (bool) {\r\n        return UserRejection[_id];\r\n    }\r\n\r\n    function isUser(address _id) public view returns (bool) {\r\n        return RegisteredUserMapping[_id];\r\n    }\r\n\r\n    function isLandInspector(address _id) public view returns (bool) {\r\n        return Land_Inspector == _id;\r\n    }\r\n\r\n    function isRegistered(address _id) public view returns (bool) {\r\n        return RegisteredAddressMapping[_id];\r\n    }\r\n\r\n    function getLandsCount() public view returns (uint) {\r\n        return landsCount;\r\n    }\r\n\r\n    function getUsersCount() public view returns (uint) {\r\n        return usersCount;\r\n    }\r\n\r\n    function getUser() public view returns (address[] memory) {\r\n        return (users);\r\n    }\r\n\r\n    function getUserOwnedLands(\r\n        address user\r\n    ) public view returns (uint[] memory) {\r\n        return userOwnedLands[user];\r\n    }\r\n\r\n    function getLandInfo(uint landId) public view returns (Landreg memory) {\r\n        return lands[landId];\r\n    }\r\n\r\n    function getBuyerDetails(\r\n        address i\r\n    )\r\n        public\r\n        view\r\n        returns (\r\n            string memory,\r\n            string memory,\r\n            string memory,\r\n            string memory,\r\n            string memory,\r\n            uint,\r\n            string memory\r\n        )\r\n    {\r\n        return (\r\n            UserMapping[i].name,\r\n            UserMapping[i].city,\r\n            UserMapping[i].panNumber,\r\n            UserMapping[i].document,\r\n            UserMapping[i].email,\r\n            UserMapping[i].age,\r\n            UserMapping[i].aadharNumber\r\n        );\r\n    }\r\n\r\n    function getRequestDetails(\r\n        uint i\r\n    ) public view returns (address, address, uint, bool) {\r\n        return (\r\n            RequestsMapping[i].sellerId,\r\n            RequestsMapping[i].buyerId,\r\n            RequestsMapping[i].landId,\r\n            RequestStatus[i]\r\n        );\r\n    }\r\n\r\n    function isRequested(uint _id) public view returns (bool) {\r\n        return RequestedLands[_id];\r\n    }\r\n\r\n    function isApproved(uint _id) public view returns (bool) {\r\n        return RequestStatus[_id];\r\n    }\r\n\r\n    function LandOwnershipTransfer(uint _landId, address _newOwner) public {\r\n        require(isLandInspector(msg.sender));\r\n\r\n        LandOwner[_landId] = _newOwner;\r\n    }\r\n\r\n    function isPaid(uint _landId) public view returns (bool) {\r\n        return PaymentReceived[_landId];\r\n    }\r\n\r\n    function payment(\r\n        address payable _receiver,\r\n        uint _landId,\r\n        uint _landPrice\r\n    ) public payable {\r\n        require(msg.value >= _landPrice, \"Insufficient payment amount\");\r\n\r\n        PaymentReceived[_landId] = true;\r\n        _receiver.transfer(_landPrice);\r\n    }\r\n}\r\n",
  "sourcePath": "C:\\College Projects\\blockchain-project\\contracts\\Land.sol",
  "compiler": {
    "name": "solc",
    "version": "0.5.16+commit.9c3226ce.Emscripten.clang"
  },
  "schemaVersion": "3.4.16",
  "updatedAt": "2024-04-11T09:16:44.155Z",
  "networkType": "ethereum",
  "devdoc": {
    "methods": {}
  },
  "userdoc": {
    "methods": {}
  }
}