{
  "contractName": "Land",
  "abi": [
    {
      "inputs": [],
      "payable": false,
      "stateMutability": "nonpayable",
      "type": "constructor"
    },
    {
      "anonymous": false,
      "inputs": [
        {
          "indexed": false,
          "internalType": "address",
          "name": "_sellerId",
          "type": "address"
        }
      ],
      "name": "LandRequested",
      "type": "event"
    },
    {
      "anonymous": false,
      "inputs": [
        {
          "indexed": false,
          "internalType": "address",
          "name": "_registrationId",
          "type": "address"
        }
      ],
      "name": "Registration",
      "type": "event"
    },
    {
      "anonymous": false,
      "inputs": [
        {
          "indexed": false,
          "internalType": "address",
          "name": "_id",
          "type": "address"
        }
      ],
      "name": "Rejected",
      "type": "event"
    },
    {
      "anonymous": false,
      "inputs": [
        {
          "indexed": false,
          "internalType": "uint256",
          "name": "_reqId",
          "type": "uint256"
        }
      ],
      "name": "RequestApproved",
      "type": "event"
    },
    {
      "anonymous": false,
      "inputs": [
        {
          "indexed": false,
          "internalType": "address",
          "name": "_id",
          "type": "address"
        }
      ],
      "name": "Verified",
      "type": "event"
    },
    {
      "constant": true,
      "inputs": [
        {
          "internalType": "uint256",
          "name": "",
          "type": "uint256"
        }
      ],
      "name": "InspectorMapping",
      "outputs": [
        {
          "internalType": "uint256",
          "name": "id",
          "type": "uint256"
        },
        {
          "internalType": "string",
          "name": "name",
          "type": "string"
        },
        {
          "internalType": "uint256",
          "name": "age",
          "type": "uint256"
        },
        {
          "internalType": "string",
          "name": "designation",
          "type": "string"
        }
      ],
      "payable": false,
      "stateMutability": "view",
      "type": "function"
    },
    {
      "constant": true,
      "inputs": [
        {
          "internalType": "uint256",
          "name": "",
          "type": "uint256"
        }
      ],
      "name": "LandOwner",
      "outputs": [
        {
          "internalType": "address",
          "name": "",
          "type": "address"
        }
      ],
      "payable": false,
      "stateMutability": "view",
      "type": "function"
    },
    {
      "constant": true,
      "inputs": [
        {
          "internalType": "uint256",
          "name": "",
          "type": "uint256"
        }
      ],
      "name": "LandVerification",
      "outputs": [
        {
          "internalType": "bool",
          "name": "",
          "type": "bool"
        }
      ],
      "payable": false,
      "stateMutability": "view",
      "type": "function"
    },
    {
      "constant": true,
      "inputs": [],
      "name": "Land_Inspector",
      "outputs": [
        {
          "internalType": "address",
          "name": "",
          "type": "address"
        }
      ],
      "payable": false,
      "stateMutability": "view",
      "type": "function"
    },
    {
      "constant": true,
      "inputs": [
        {
          "internalType": "uint256",
          "name": "",
          "type": "uint256"
        }
      ],
      "name": "PaymentReceived",
      "outputs": [
        {
          "internalType": "bool",
          "name": "",
          "type": "bool"
        }
      ],
      "payable": false,
      "stateMutability": "view",
      "type": "function"
    },
    {
      "constant": true,
      "inputs": [
        {
          "internalType": "address",
          "name": "",
          "type": "address"
        }
      ],
      "name": "RegisteredAddressMapping",
      "outputs": [
        {
          "internalType": "bool",
          "name": "",
          "type": "bool"
        }
      ],
      "payable": false,
      "stateMutability": "view",
      "type": "function"
    },
    {
      "constant": true,
      "inputs": [
        {
          "internalType": "address",
          "name": "",
          "type": "address"
        }
      ],
      "name": "RegisteredUserMapping",
      "outputs": [
        {
          "internalType": "bool",
          "name": "",
          "type": "bool"
        }
      ],
      "payable": false,
      "stateMutability": "view",
      "type": "function"
    },
    {
      "constant": true,
      "inputs": [
        {
          "internalType": "uint256",
          "name": "",
          "type": "uint256"
        }
      ],
      "name": "RequestStatus",
      "outputs": [
        {
          "internalType": "bool",
          "name": "",
          "type": "bool"
        }
      ],
      "payable": false,
      "stateMutability": "view",
      "type": "function"
    },
    {
      "constant": true,
      "inputs": [
        {
          "internalType": "uint256",
          "name": "",
          "type": "uint256"
        }
      ],
      "name": "RequestedLands",
      "outputs": [
        {
          "internalType": "bool",
          "name": "",
          "type": "bool"
        }
      ],
      "payable": false,
      "stateMutability": "view",
      "type": "function"
    },
    {
      "constant": true,
      "inputs": [
        {
          "internalType": "uint256",
          "name": "",
          "type": "uint256"
        }
      ],
      "name": "RequestsMapping",
      "outputs": [
        {
          "internalType": "uint256",
          "name": "reqId",
          "type": "uint256"
        },
        {
          "internalType": "address",
          "name": "sellerId",
          "type": "address"
        },
        {
          "internalType": "address",
          "name": "buyerId",
          "type": "address"
        },
        {
          "internalType": "uint256",
          "name": "landId",
          "type": "uint256"
        },
        {
          "internalType": "bool",
          "name": "isRejected",
          "type": "bool"
        }
      ],
      "payable": false,
      "stateMutability": "view",
      "type": "function"
    },
    {
      "constant": true,
      "inputs": [
        {
          "internalType": "address",
          "name": "",
          "type": "address"
        }
      ],
      "name": "UserMapping",
      "outputs": [
        {
          "internalType": "address",
          "name": "id",
          "type": "address"
        },
        {
          "internalType": "string",
          "name": "name",
          "type": "string"
        },
        {
          "internalType": "uint256",
          "name": "age",
          "type": "uint256"
        },
        {
          "internalType": "string",
          "name": "city",
          "type": "string"
        },
        {
          "internalType": "string",
          "name": "aadharNumber",
          "type": "string"
        },
        {
          "internalType": "string",
          "name": "panNumber",
          "type": "string"
        },
        {
          "internalType": "string",
          "name": "document",
          "type": "string"
        },
        {
          "internalType": "string",
          "name": "email",
          "type": "string"
        }
      ],
      "payable": false,
      "stateMutability": "view",
      "type": "function"
    },
    {
      "constant": true,
      "inputs": [
        {
          "internalType": "address",
          "name": "",
          "type": "address"
        }
      ],
      "name": "UserRejection",
      "outputs": [
        {
          "internalType": "bool",
          "name": "",
          "type": "bool"
        }
      ],
      "payable": false,
      "stateMutability": "view",
      "type": "function"
    },
    {
      "constant": true,
      "inputs": [
        {
          "internalType": "address",
          "name": "",
          "type": "address"
        }
      ],
      "name": "UserVerification",
      "outputs": [
        {
          "internalType": "bool",
          "name": "",
          "type": "bool"
        }
      ],
      "payable": false,
      "stateMutability": "view",
      "type": "function"
    },
    {
      "constant": true,
      "inputs": [],
      "name": "inspectorsCount",
      "outputs": [
        {
          "internalType": "uint256",
          "name": "",
          "type": "uint256"
        }
      ],
      "payable": false,
      "stateMutability": "view",
      "type": "function"
    },
    {
      "constant": true,
      "inputs": [
        {
          "internalType": "uint256",
          "name": "",
          "type": "uint256"
        }
      ],
      "name": "landIds",
      "outputs": [
        {
          "internalType": "uint256",
          "name": "",
          "type": "uint256"
        }
      ],
      "payable": false,
      "stateMutability": "view",
      "type": "function"
    },
    {
      "constant": true,
      "inputs": [
        {
          "internalType": "uint256",
          "name": "",
          "type": "uint256"
        }
      ],
      "name": "lands",
      "outputs": [
        {
          "internalType": "uint256",
          "name": "id",
          "type": "uint256"
        },
        {
          "internalType": "uint256",
          "name": "area",
          "type": "uint256"
        },
        {
          "internalType": "string",
          "name": "city",
          "type": "string"
        },
        {
          "internalType": "string",
          "name": "state",
          "type": "string"
        },
        {
          "internalType": "uint256",
          "name": "landPrice",
          "type": "uint256"
        },
        {
          "internalType": "uint256",
          "name": "propertyPID",
          "type": "uint256"
        },
        {
          "internalType": "uint256",
          "name": "physicalSurveyNumber",
          "type": "uint256"
        },
        {
          "internalType": "string",
          "name": "ipfsHash",
          "type": "string"
        },
        {
          "internalType": "string",
          "name": "document",
          "type": "string"
        },
        {
          "internalType": "address",
          "name": "landOwner",
          "type": "address"
        },
        {
          "internalType": "bool",
          "name": "isLandForSale",
          "type": "bool"
        }
      ],
      "payable": false,
      "stateMutability": "view",
      "type": "function"
    },
    {
      "constant": true,
      "inputs": [],
      "name": "landsCount",
      "outputs": [
        {
          "internalType": "uint256",
          "name": "",
          "type": "uint256"
        }
      ],
      "payable": false,
      "stateMutability": "view",
      "type": "function"
    },
    {
      "constant": true,
      "inputs": [
        {
          "internalType": "uint256",
          "name": "",
          "type": "uint256"
        },
        {
          "internalType": "uint256",
          "name": "",
          "type": "uint256"
        }
      ],
      "name": "ownershipTransfers",
      "outputs": [
        {
          "internalType": "address",
          "name": "previousOwner",
          "type": "address"
        },
        {
          "internalType": "address",
          "name": "newOwner",
          "type": "address"
        },
        {
          "internalType": "uint256",
          "name": "timestamp",
          "type": "uint256"
        }
      ],
      "payable": false,
      "stateMutability": "view",
      "type": "function"
    },
    {
      "constant": true,
      "inputs": [],
      "name": "requestsCount",
      "outputs": [
        {
          "internalType": "uint256",
          "name": "",
          "type": "uint256"
        }
      ],
      "payable": false,
      "stateMutability": "view",
      "type": "function"
    },
    {
      "constant": true,
      "inputs": [
        {
          "internalType": "address",
          "name": "",
          "type": "address"
        },
        {
          "internalType": "uint256",
          "name": "",
          "type": "uint256"
        }
      ],
      "name": "userOwnedLands",
      "outputs": [
        {
          "internalType": "uint256",
          "name": "",
          "type": "uint256"
        }
      ],
      "payable": false,
      "stateMutability": "view",
      "type": "function"
    },
    {
      "constant": true,
      "inputs": [
        {
          "internalType": "uint256",
          "name": "",
          "type": "uint256"
        }
      ],
      "name": "users",
      "outputs": [
        {
          "internalType": "address",
          "name": "",
          "type": "address"
        }
      ],
      "payable": false,
      "stateMutability": "view",
      "type": "function"
    },
    {
      "constant": true,
      "inputs": [],
      "name": "usersCount",
      "outputs": [
        {
          "internalType": "uint256",
          "name": "",
          "type": "uint256"
        }
      ],
      "payable": false,
      "stateMutability": "view",
      "type": "function"
    },
    {
      "constant": false,
      "inputs": [
        {
          "internalType": "uint256",
          "name": "_area",
          "type": "uint256"
        },
        {
          "internalType": "string",
          "name": "_city",
          "type": "string"
        },
        {
          "internalType": "string",
          "name": "_state",
          "type": "string"
        },
        {
          "internalType": "uint256",
          "name": "_landPrice",
          "type": "uint256"
        },
        {
          "internalType": "uint256",
          "name": "_propertyPID",
          "type": "uint256"
        },
        {
          "internalType": "uint256",
          "name": "_surveyNum",
          "type": "uint256"
        },
        {
          "internalType": "string",
          "name": "_ipfsHash",
          "type": "string"
        },
        {
          "internalType": "string",
          "name": "_document",
          "type": "string"
        }
      ],
      "name": "addLand",
      "outputs": [],
      "payable": false,
      "stateMutability": "nonpayable",
      "type": "function"
    },
    {
      "constant": false,
      "inputs": [
        {
          "internalType": "uint256",
          "name": "_landId",
          "type": "uint256"
        }
      ],
      "name": "makeLandForSale",
      "outputs": [],
      "payable": false,
      "stateMutability": "nonpayable",
      "type": "function"
    },
    {
      "constant": true,
      "inputs": [
        {
          "internalType": "uint256",
          "name": "_landId",
          "type": "uint256"
        }
      ],
      "name": "isLandForSale",
      "outputs": [
        {
          "internalType": "bool",
          "name": "",
          "type": "bool"
        }
      ],
      "payable": false,
      "stateMutability": "view",
      "type": "function"
    },
    {
      "constant": true,
      "inputs": [],
      "name": "getAllLandIds",
      "outputs": [
        {
          "internalType": "uint256[]",
          "name": "",
          "type": "uint256[]"
        }
      ],
      "payable": false,
      "stateMutability": "view",
      "type": "function"
    },
    {
      "constant": false,
      "inputs": [
        {
          "internalType": "string",
          "name": "_name",
          "type": "string"
        },
        {
          "internalType": "uint256",
          "name": "_age",
          "type": "uint256"
        },
        {
          "internalType": "string",
          "name": "_city",
          "type": "string"
        },
        {
          "internalType": "string",
          "name": "_aadharNumber",
          "type": "string"
        },
        {
          "internalType": "string",
          "name": "_panNumber",
          "type": "string"
        },
        {
          "internalType": "string",
          "name": "_document",
          "type": "string"
        },
        {
          "internalType": "string",
          "name": "_email",
          "type": "string"
        }
      ],
      "name": "registerUser",
      "outputs": [],
      "payable": false,
      "stateMutability": "nonpayable",
      "type": "function"
    },
    {
      "constant": false,
      "inputs": [
        {
          "internalType": "address",
          "name": "_sellerId",
          "type": "address"
        },
        {
          "internalType": "uint256",
          "name": "_landId",
          "type": "uint256"
        }
      ],
      "name": "requestLand",
      "outputs": [],
      "payable": false,
      "stateMutability": "nonpayable",
      "type": "function"
    },
    {
      "constant": false,
      "inputs": [
        {
          "internalType": "uint256",
          "name": "_reqId",
          "type": "uint256"
        }
      ],
      "name": "approveRequest",
      "outputs": [],
      "payable": false,
      "stateMutability": "nonpayable",
      "type": "function"
    },
    {
      "constant": false,
      "inputs": [
        {
          "internalType": "uint256",
          "name": "_reqId",
          "type": "uint256"
        }
      ],
      "name": "rejectRequest",
      "outputs": [],
      "payable": false,
      "stateMutability": "nonpayable",
      "type": "function"
    },
    {
      "constant": false,
      "inputs": [
        {
          "internalType": "address",
          "name": "_userId",
          "type": "address"
        }
      ],
      "name": "verifyUser",
      "outputs": [],
      "payable": false,
      "stateMutability": "nonpayable",
      "type": "function"
    },
    {
      "constant": false,
      "inputs": [
        {
          "internalType": "address",
          "name": "_userId",
          "type": "address"
        }
      ],
      "name": "rejectUser",
      "outputs": [],
      "payable": false,
      "stateMutability": "nonpayable",
      "type": "function"
    },
    {
      "constant": false,
      "inputs": [
        {
          "internalType": "uint256",
          "name": "_landId",
          "type": "uint256"
        }
      ],
      "name": "verifyLand",
      "outputs": [],
      "payable": false,
      "stateMutability": "nonpayable",
      "type": "function"
    },
    {
      "constant": true,
      "inputs": [
        {
          "internalType": "uint256",
          "name": "_id",
          "type": "uint256"
        }
      ],
      "name": "isLandVerified",
      "outputs": [
        {
          "internalType": "bool",
          "name": "",
          "type": "bool"
        }
      ],
      "payable": false,
      "stateMutability": "view",
      "type": "function"
    },
    {
      "constant": true,
      "inputs": [
        {
          "internalType": "address",
          "name": "_id",
          "type": "address"
        }
      ],
      "name": "isVerified",
      "outputs": [
        {
          "internalType": "bool",
          "name": "",
          "type": "bool"
        }
      ],
      "payable": false,
      "stateMutability": "view",
      "type": "function"
    },
    {
      "constant": true,
      "inputs": [
        {
          "internalType": "address",
          "name": "_id",
          "type": "address"
        }
      ],
      "name": "isRejected",
      "outputs": [
        {
          "internalType": "bool",
          "name": "",
          "type": "bool"
        }
      ],
      "payable": false,
      "stateMutability": "view",
      "type": "function"
    },
    {
      "constant": true,
      "inputs": [
        {
          "internalType": "address",
          "name": "_id",
          "type": "address"
        }
      ],
      "name": "isUser",
      "outputs": [
        {
          "internalType": "bool",
          "name": "",
          "type": "bool"
        }
      ],
      "payable": false,
      "stateMutability": "view",
      "type": "function"
    },
    {
      "constant": true,
      "inputs": [
        {
          "internalType": "address",
          "name": "_id",
          "type": "address"
        }
      ],
      "name": "isLandInspector",
      "outputs": [
        {
          "internalType": "bool",
          "name": "",
          "type": "bool"
        }
      ],
      "payable": false,
      "stateMutability": "view",
      "type": "function"
    },
    {
      "constant": true,
      "inputs": [
        {
          "internalType": "address",
          "name": "_id",
          "type": "address"
        }
      ],
      "name": "isRegistered",
      "outputs": [
        {
          "internalType": "bool",
          "name": "",
          "type": "bool"
        }
      ],
      "payable": false,
      "stateMutability": "view",
      "type": "function"
    },
    {
      "constant": true,
      "inputs": [],
      "name": "getLandsCount",
      "outputs": [
        {
          "internalType": "uint256",
          "name": "",
          "type": "uint256"
        }
      ],
      "payable": false,
      "stateMutability": "view",
      "type": "function"
    },
    {
      "constant": true,
      "inputs": [],
      "name": "getUsersCount",
      "outputs": [
        {
          "internalType": "uint256",
          "name": "",
          "type": "uint256"
        }
      ],
      "payable": false,
      "stateMutability": "view",
      "type": "function"
    },
    {
      "constant": true,
      "inputs": [],
      "name": "getUser",
      "outputs": [
        {
          "internalType": "address[]",
          "name": "",
          "type": "address[]"
        }
      ],
      "payable": false,
      "stateMutability": "view",
      "type": "function"
    },
    {
      "constant": true,
      "inputs": [
        {
          "internalType": "address",
          "name": "user",
          "type": "address"
        }
      ],
      "name": "getUserOwnedLands",
      "outputs": [
        {
          "internalType": "uint256[]",
          "name": "",
          "type": "uint256[]"
        }
      ],
      "payable": false,
      "stateMutability": "view",
      "type": "function"
    },
    {
      "constant": true,
      "inputs": [
        {
          "internalType": "uint256",
          "name": "landId",
          "type": "uint256"
        }
      ],
      "name": "getLandInfo",
      "outputs": [
        {
          "components": [
            {
              "internalType": "uint256",
              "name": "id",
              "type": "uint256"
            },
            {
              "internalType": "uint256",
              "name": "area",
              "type": "uint256"
            },
            {
              "internalType": "string",
              "name": "city",
              "type": "string"
            },
            {
              "internalType": "string",
              "name": "state",
              "type": "string"
            },
            {
              "internalType": "uint256",
              "name": "landPrice",
              "type": "uint256"
            },
            {
              "internalType": "uint256",
              "name": "propertyPID",
              "type": "uint256"
            },
            {
              "internalType": "uint256",
              "name": "physicalSurveyNumber",
              "type": "uint256"
            },
            {
              "internalType": "string",
              "name": "ipfsHash",
              "type": "string"
            },
            {
              "internalType": "string",
              "name": "document",
              "type": "string"
            },
            {
              "internalType": "address",
              "name": "landOwner",
              "type": "address"
            },
            {
              "internalType": "bool",
              "name": "isLandForSale",
              "type": "bool"
            }
          ],
          "internalType": "struct Land.Landreg",
          "name": "",
          "type": "tuple"
        }
      ],
      "payable": false,
      "stateMutability": "view",
      "type": "function"
    },
    {
      "constant": true,
      "inputs": [
        {
          "internalType": "address",
          "name": "i",
          "type": "address"
        }
      ],
      "name": "getBuyerDetails",
      "outputs": [
        {
          "internalType": "string",
          "name": "",
          "type": "string"
        },
        {
          "internalType": "string",
          "name": "",
          "type": "string"
        },
        {
          "internalType": "string",
          "name": "",
          "type": "string"
        },
        {
          "internalType": "string",
          "name": "",
          "type": "string"
        },
        {
          "internalType": "string",
          "name": "",
          "type": "string"
        },
        {
          "internalType": "uint256",
          "name": "",
          "type": "uint256"
        },
        {
          "internalType": "string",
          "name": "",
          "type": "string"
        }
      ],
      "payable": false,
      "stateMutability": "view",
      "type": "function"
    },
    {
      "constant": true,
      "inputs": [
        {
          "internalType": "uint256",
          "name": "i",
          "type": "uint256"
        }
      ],
      "name": "getRequestDetails",
      "outputs": [
        {
          "internalType": "address",
          "name": "",
          "type": "address"
        },
        {
          "internalType": "address",
          "name": "",
          "type": "address"
        },
        {
          "internalType": "uint256",
          "name": "",
          "type": "uint256"
        },
        {
          "internalType": "bool",
          "name": "",
          "type": "bool"
        }
      ],
      "payable": false,
      "stateMutability": "view",
      "type": "function"
    },
    {
      "constant": true,
      "inputs": [
        {
          "internalType": "address",
          "name": "_buyer",
          "type": "address"
        }
      ],
      "name": "getBuyerRequestDetails",
      "outputs": [
        {
          "internalType": "uint256[]",
          "name": "",
          "type": "uint256[]"
        },
        {
          "internalType": "address[]",
          "name": "",
          "type": "address[]"
        },
        {
          "internalType": "uint256[]",
          "name": "",
          "type": "uint256[]"
        },
        {
          "internalType": "bool[]",
          "name": "",
          "type": "bool[]"
        },
        {
          "internalType": "bool[]",
          "name": "",
          "type": "bool[]"
        }
      ],
      "payable": false,
      "stateMutability": "view",
      "type": "function"
    },
    {
      "constant": true,
      "inputs": [
        {
          "internalType": "address",
          "name": "_seller",
          "type": "address"
        }
      ],
      "name": "getSellerRequestDetails",
      "outputs": [
        {
          "internalType": "uint256[]",
          "name": "",
          "type": "uint256[]"
        },
        {
          "internalType": "address[]",
          "name": "",
          "type": "address[]"
        },
        {
          "internalType": "uint256[]",
          "name": "",
          "type": "uint256[]"
        },
        {
          "internalType": "bool[]",
          "name": "",
          "type": "bool[]"
        },
        {
          "internalType": "bool[]",
          "name": "",
          "type": "bool[]"
        }
      ],
      "payable": false,
      "stateMutability": "view",
      "type": "function"
    },
    {
      "constant": true,
      "inputs": [
        {
          "internalType": "uint256",
          "name": "_id",
          "type": "uint256"
        }
      ],
      "name": "isRequested",
      "outputs": [
        {
          "internalType": "bool",
          "name": "",
          "type": "bool"
        }
      ],
      "payable": false,
      "stateMutability": "view",
      "type": "function"
    },
    {
      "constant": true,
      "inputs": [
        {
          "internalType": "uint256",
          "name": "_id",
          "type": "uint256"
        }
      ],
      "name": "isApproved",
      "outputs": [
        {
          "internalType": "bool",
          "name": "",
          "type": "bool"
        }
      ],
      "payable": false,
      "stateMutability": "view",
      "type": "function"
    },
    {
      "constant": false,
      "inputs": [
        {
          "internalType": "uint256",
          "name": "_landId",
          "type": "uint256"
        },
        {
          "internalType": "address",
          "name": "_newOwner",
          "type": "address"
        }
      ],
      "name": "LandOwnershipTransfer",
      "outputs": [],
      "payable": false,
      "stateMutability": "nonpayable",
      "type": "function"
    },
    {
      "constant": true,
      "inputs": [
        {
          "internalType": "uint256",
          "name": "_landId",
          "type": "uint256"
        }
      ],
      "name": "getOwnershipTransfers",
      "outputs": [
        {
          "components": [
            {
              "internalType": "address",
              "name": "previousOwner",
              "type": "address"
            },
            {
              "internalType": "address",
              "name": "newOwner",
              "type": "address"
            },
            {
              "internalType": "uint256",
              "name": "timestamp",
              "type": "uint256"
            }
          ],
          "internalType": "struct Land.OwnershipTransfer[]",
          "name": "",
          "type": "tuple[]"
        }
      ],
      "payable": false,
      "stateMutability": "view",
      "type": "function"
    },
    {
      "constant": true,
      "inputs": [
        {
          "internalType": "uint256",
          "name": "_landId",
          "type": "uint256"
        }
      ],
      "name": "isPaid",
      "outputs": [
        {
          "internalType": "bool",
          "name": "",
          "type": "bool"
        }
      ],
      "payable": false,
      "stateMutability": "view",
      "type": "function"
    },
    {
      "constant": true,
      "inputs": [],
      "name": "getCompletedTransactions",
      "outputs": [
        {
          "internalType": "address[]",
          "name": "",
          "type": "address[]"
        },
        {
          "internalType": "address[]",
          "name": "",
          "type": "address[]"
        },
        {
          "internalType": "uint256[]",
          "name": "",
          "type": "uint256[]"
        }
      ],
      "payable": false,
      "stateMutability": "view",
      "type": "function"
    },
    {
      "constant": true,
      "inputs": [],
      "name": "getAllOwnershipTransfers",
      "outputs": [
        {
          "components": [
            {
              "internalType": "address",
              "name": "previousOwner",
              "type": "address"
            },
            {
              "internalType": "address",
              "name": "newOwner",
              "type": "address"
            },
            {
              "internalType": "uint256",
              "name": "timestamp",
              "type": "uint256"
            }
          ],
          "internalType": "struct Land.OwnershipTransfer[][]",
          "name": "",
          "type": "tuple[][]"
        }
      ],
      "payable": false,
      "stateMutability": "view",
      "type": "function"
    },
    {
      "constant": false,
      "inputs": [
        {
          "internalType": "address payable",
          "name": "_receiver",
          "type": "address"
        },
        {
          "internalType": "uint256",
          "name": "_landId",
          "type": "uint256"
        },
        {
          "internalType": "uint256",
          "name": "_landPrice",
          "type": "uint256"
        }
      ],
      "name": "payment",
      "outputs": [],
      "payable": true,
      "stateMutability": "payable",
      "type": "function"
    }
  ],
  "bytecode": "0x60806040523480156200001157600080fd5b50600f8054600160a060020a03191633179055604080518082018252600b81527f496e73706563746f7220310000000000000000000000000000000000000000006020808301919091528251808401909352600e83527f54656873696c204d616e6167657200000000000000000000000000000000000090830152620000a391602d90640100000000620000a9810204565b620001d8565b60128054600190810191829055604080516080810182528381526020808201888152828401889052606083018790526000958652600382529290942081518155915180519194929362000103939085019291019062000133565b5060408201516002820155606082015180516200012b91600384019160209091019062000133565b505050505050565b828054600181600116156101000203166002900490600052602060002090601f016020900481019282601f106200017657805160ff1916838001178555620001a6565b82800160010185558215620001a6579182015b82811115620001a657825182559160200191906001019062000189565b50620001b4929150620001b8565b5090565b620001d591905b80821115620001b45760008155600101620001bf565b90565b61424680620001e86000396000f3fe608060405260043610610388576000357c01000000000000000000000000000000000000000000000000000000009004806395cd1944116101e3578063d61ff68c11610114578063edfbe247116100b2578063f58f85b51161008c578063f58f85b514610aa1578063f9c43bdf14610ac1578063faf1699a14610ae1578063fbfa4b7f14610b0357610388565b8063edfbe24714610a31578063f34d4c6314610a51578063f3f0c21814610a8157610388565b8063def936c3116100ee578063def936c31461098a578063e165af87146109ba578063e261f1e5146109da578063e530c40014610a1157610388565b8063d61ff68c14610921578063d7d1bbdb14610955578063d7dee1921461097557610388565b8063b9209e3311610181578063c3c5a5471161015b578063c3c5a547146108a1578063c7751bab146108c1578063c9bf1f93146108e1578063cd392a831461090157610388565b8063b9209e3314610841578063b9dfbbba14610861578063bed403c71461088157610388565b8063a4a1e263116101bd578063a4a1e263146107b7578063ac8afa8f146107cc578063ae5a9d17146107ec578063b0a5dcd31461081057610388565b806395cd1944146107575780639b91293b146107845780639dc1bfa91461079757610388565b80634d813120116102bd5780637910867b1161025b578063835465011161023557806383546501146106e257806389d2135414610702578063903a945114610722578063941e24261461074257610388565b80637910867b1461066f5780637f01f4351461068f578063832880e7146106c057610388565b806368cfe6ee1161029757806368cfe6ee146105da5780636ba13a821461060d5780636cbf6cf8146106225780636f6f9bef1461064257610388565b80634d8131201461057a5780634daa9dae1461059a5780634dc92885146105ba57610388565b80632d7788db1161032a5780634209fff1116103045780634209fff1146104ed57806348a46bd31461050d5780634ae1851b1461052d5780634d058d5a1461055a57610388565b80632d7788db1461048b57806332f2bb14146104ad578063365b98b2146104cd57610388565b80631a07f76e116103665780631a07f76e146104075780631c9afd0f1461042757806321ed64311461043c5780632ab5c66c1461045c57610388565b8063155fec721461038d57806316d9d666146103c3578063170f3909146103e5575b600080fd5b34801561039957600080fd5b506103ad6103a83660046134bd565b610b18565b6040516103ba9190613e89565b60405180910390f35b3480156103cf57600080fd5b506103d8610b2d565b6040516103ba9190613fb7565b3480156103f157600080fd5b506103fa610b34565b6040516103ba9190613c7e565b34801561041357600080fd5b506103ad6104223660046134bd565b610b43565b34801561043357600080fd5b506103d8610b58565b34801561044857600080fd5b506103ad6104573660046132e5565b610b5e565b34801561046857600080fd5b5061047c61047736600461361b565b610b73565b6040516103ba93929190613c9a565b34801561049757600080fd5b506104ab6104a63660046134bd565b610bbd565b005b3480156104b957600080fd5b506103ad6104c83660046132e5565b610c20565b3480156104d957600080fd5b506103fa6104e83660046134bd565b610c35565b3480156104f957600080fd5b506103ad6105083660046132e5565b610c5c565b34801561051957600080fd5b506103ad6105283660046132e5565b610c7a565b34801561053957600080fd5b5061054d6105483660046132e5565b610c98565b6040516103ba9190613e0c565b34801561056657600080fd5b506103d8610575366004613358565b610d04565b34801561058657600080fd5b506104ab6105953660046132e5565b610d32565b3480156105a657600080fd5b506103ad6105b53660046134bd565b610dbd565b3480156105c657600080fd5b506104ab6105d53660046132e5565b610dd2565b3480156105e657600080fd5b506105fa6105f53660046132e5565b610e52565b6040516103ba9796959493929190613e97565b34801561061957600080fd5b506103d8611204565b34801561062e57600080fd5b506103ad61063d3660046134bd565b61120a565b34801561064e57600080fd5b5061066261065d3660046134bd565b61121f565b6040516103ba9190613fa6565b34801561067b57600080fd5b506103ad61068a3660046134bd565b61152a565b34801561069b57600080fd5b506106af6106aa3660046132e5565b61153f565b6040516103ba959493929190613e1d565b3480156106cc57600080fd5b506106d5611804565b6040516103ba9190613da0565b3480156106ee57600080fd5b506103ad6106fd3660046134bd565b611866565b34801561070e57600080fd5b506103ad61071d3660046134bd565b61187b565b34801561072e57600080fd5b506103d861073d3660046134bd565b611890565b34801561074e57600080fd5b506103d86118ae565b34801561076357600080fd5b506107776107723660046134bd565b6118b4565b6040516103ba9190613dfb565b6104ab61079236600461330b565b611945565b3480156107a357600080fd5b506103fa6107b23660046134bd565b6119b5565b3480156107c357600080fd5b506103d86119d0565b3480156107d857600080fd5b506103ad6107e73660046132e5565b6119d6565b3480156107f857600080fd5b506108016119eb565b6040516103ba93929190613db1565b34801561081c57600080fd5b5061083061082b3660046134bd565b611c4b565b6040516103ba959493929190613fc5565b34801561084d57600080fd5b506103ad61085c3660046132e5565b611c89565b34801561086d57600080fd5b506106af61087c3660046132e5565b611ca7565b34801561088d57600080fd5b506104ab61089c3660046134db565b611eeb565b3480156108ad57600080fd5b506103ad6108bc3660046132e5565b612085565b3480156108cd57600080fd5b506103ad6108dc3660046134bd565b6120a3565b3480156108ed57600080fd5b506104ab6108fc3660046134bd565b6120d3565b34801561090d57600080fd5b506103ad61091c3660046134bd565b612183565b34801561092d57600080fd5b5061094161093c3660046132e5565b612198565b6040516103ba989796959493929190613d00565b34801561096157600080fd5b506104ab6109703660046134bd565b612524565b34801561098157600080fd5b5061054d612595565b34801561099657600080fd5b506109aa6109a53660046134bd565b6125ec565b6040516103ba9493929190614011565b3480156109c657600080fd5b506103ad6109d53660046132e5565b61272b565b3480156109e657600080fd5b506109fa6109f53660046134bd565b61273f565b6040516103ba9b9a99989796959493929190614052565b348015610a1d57600080fd5b506104ab610a2c36600461350b565b6129f3565b348015610a3d57600080fd5b506104ab610a4c366004613392565b612c3f565b348015610a5d57600080fd5b50610a71610a6c3660046134bd565b612e5c565b6040516103ba9493929190613cc2565b348015610a8d57600080fd5b506104ab610a9c366004613358565b612e9e565b348015610aad57600080fd5b506103ad610abc3660046132e5565b612ff9565b348015610acd57600080fd5b506104ab610adc3660046134bd565b61300e565b348015610aed57600080fd5b50610af6613056565b6040516103ba9190613dea565b348015610b0f57600080fd5b506103d8613172565b6000908152600d602052604090205460ff1690565b6011545b90565b600f54600160a060020a031681565b600e6020526000908152604090205460ff1681565b60115481565b60086020526000908152604090205460ff1681565b60006020528160005260406000208181548110610b8c57fe5b6000918252602090912060039091020180546001820154600290920154600160a060020a0391821694509116915083565b600081815260056020526040902060010154600160a060020a03163314610c025760405160e560020a62461bcd028152600401610bf990613f56565b60405180910390fd5b6000908152600560205260409020600401805460ff19166001179055565b60076020526000908152604090205460ff1681565b60108181548110610c4257fe5b600091825260209091200154600160a060020a0316905081565b600160a060020a031660009081526007602052604090205460ff1690565b600160a060020a031660009081526009602052604090205460ff1690565b600160a060020a038116600090815260026020908152604091829020805483518184028101840190945280845260609392830182828015610cf857602002820191906000526020600020905b815481526020019060010190808311610ce4575b50505050509050919050565b60026020528160005260406000208181548110610d1d57fe5b90600052602060002001600091509150505481565b600f54600160a060020a03163314610d5f5760405160e560020a62461bcd028152600401610bf990613f66565b600160a060020a03811660009081526008602052604090819020805460ff19166001179055517f6a6455914f452787eb3985452aceedc1000fb545e394eb3b370e3d08958e0a5b90610db2908390613c7e565b60405180910390a150565b600d6020526000908152604090205460ff1681565b600f54600160a060020a03163314610dff5760405160e560020a62461bcd028152600401610bf990613f66565b600160a060020a03811660009081526009602052604090819020805460ff19166001179055517faf77f8960cf590e245ec8b6d41c193a5dcacad8986ae4eb57ac9e5be7b6af03190610db2908390613c7e565b600160a060020a03811660009081526004602081815260408084206002808201546001808401805486519281161561010002600019011693909304601f8101879004870282018701909552848152606097889788978897889793968896909560038601956005810195600682019560078301959290910192918991830182828015610f1e5780601f10610ef357610100808354040283529160200191610f1e565b820191906000526020600020905b815481529060010190602001808311610f0157829003601f168201915b5050895460408051602060026001851615610100026000190190941693909304601f8101849004840282018401909252818152959c508b945092508401905082828015610fac5780601f10610f8157610100808354040283529160200191610fac565b820191906000526020600020905b815481529060010190602001808311610f8f57829003601f168201915b5050885460408051602060026001851615610100026000190190941693909304601f8101849004840282018401909252818152959b508a94509250840190508282801561103a5780601f1061100f5761010080835404028352916020019161103a565b820191906000526020600020905b81548152906001019060200180831161101d57829003601f168201915b5050875460408051602060026001851615610100026000190190941693909304601f8101849004840282018401909252818152959a50899450925084019050828280156110c85780601f1061109d576101008083540402835291602001916110c8565b820191906000526020600020905b8154815290600101906020018083116110ab57829003601f168201915b5050865460408051602060026001851615610100026000190190941693909304601f8101849004840282018401909252818152959950889450925084019050828280156111565780601f1061112b57610100808354040283529160200191611156565b820191906000526020600020905b81548152906001019060200180831161113957829003601f168201915b5050845460408051602060026001851615610100026000190190941693909304601f8101849004840282018401909252818152959850869450925084019050828280156111e45780601f106111b9576101008083540402835291602001916111e4565b820191906000526020600020905b8154815290600101906020018083116111c757829003601f168201915b505050505090509650965096509650965096509650919395979092949650565b60135481565b6000908152600a602052604090205460ff1690565b611227613178565b61122f613178565b6000838152600160208181526040928390208351610160810185528154815281840154818401526002808301805487519681161561010002600019011691909104601f8101859004850286018501875280865291959294928601939091908301828280156112de5780601f106112b3576101008083540402835291602001916112de565b820191906000526020600020905b8154815290600101906020018083116112c157829003601f168201915b505050918352505060038201805460408051602060026001851615610100026000190190941693909304601f81018490048402820184019092528181529382019392918301828280156113725780601f1061134757610100808354040283529160200191611372565b820191906000526020600020905b81548152906001019060200180831161135557829003601f168201915b50505050508152602001600482015481526020016005820154815260200160068201548152602001600782018054600181600116156101000203166002900480601f0160208091040260200160405190810160405280929190818152602001828054600181600116156101000203166002900480156114325780601f1061140757610100808354040283529160200191611432565b820191906000526020600020905b81548152906001019060200180831161141557829003601f168201915b505050918352505060088201805460408051602060026001851615610100026000190190941693909304601f81018490048402820184019092528181529382019392918301828280156114c65780601f1061149b576101008083540402835291602001916114c6565b820191906000526020600020905b8154815290600101906020018083116114a957829003601f168201915b505050918352505060099190910154600160a060020a038082166020808501919091527401000000000000000000000000000000000000000090920460ff1615156040938401526000968752600b9091529420549093166101208401525090919050565b6000908152600c602052604090205460ff1690565b606080606080606080601454604051908082528060200260200182016040528015611574578160200160208202803883390190505b50905060606014546040519080825280602002602001820160405280156115a5578160200160208202803883390190505b50905060606014546040519080825280602002602001820160405280156115d6578160200160208202803883390190505b5090506060601454604051908082528060200260200182016040528015611607578160200160208202803883390190505b5090506060601454604051908082528060200260200182016040528015611638578160200160208202803883390190505b509050600060015b601454811161178357600081815260056020526040902060010154600160a060020a038e81169116141561177b57600081815260056020526040902054875188908490811061168b57fe5b6020908102919091018101919091526000828152600590915260409020600201548651600160a060020a03909116908790849081106116c657fe5b600160a060020a0390921660209283029190910182015260008281526005909152604090206003015485518690849081106116fd57fe5b6020908102919091018101919091526000828152600c9091526040902054845160ff9091169085908490811061172f57fe5b911515602092830291909101820152600082815260059091526040902060040154835160ff9091169084908490811061176457fe5b911515602092830291909101909101526001909101905b600101611640565b50808652808552808452808352808252858560158585828054806020026020016040519081016040528092919081815260200182805480156117e457602002820191906000526020600020905b8154815260200190600101908083116117d0575b505050505092509a509a509a509a509a5050505050505091939590929450565b6060601080548060200260200160405190810160405280929190818152602001828054801561185c57602002820191906000526020600020905b8154600160a060020a0316815260019091019060200180831161183e575b5050505050905090565b600a6020526000908152604090205460ff1681565b600c6020526000908152604090205460ff1681565b6015818154811061189d57fe5b600091825260209091200154905081565b60125481565b600081815260208181526040808320805482518185028101850190935280835260609492939192909184015b8282101561193a57600084815260209081902060408051606081018252600386029092018054600160a060020a039081168452600180830154909116848601526002909101549183019190915290835290920191016118e0565b505050509050919050565b803410156119685760405160e560020a62461bcd028152600401610bf990613f76565b6000828152600e6020526040808220805460ff1916600117905551600160a060020a0385169183156108fc02918491818181858888f193505050501580156119af57600080fd5b50505050565b600b60205260009081526040902054600160a060020a031681565b60135490565b60096020526000908152604090205460ff1681565b60608080600060015b6014548111611a4d576000818152600c602052604090205460ff168015611a3957506000818152600560209081526040808320600301548352600e90915290205460ff165b15611a45576001909101905b6001016119f4565b50606081604051908082528060200260200182016040528015611a7a578160200160208202803883390190505b509050606082604051908082528060200260200182016040528015611aa9578160200160208202803883390190505b509050606083604051908082528060200260200182016040528015611ad8578160200160208202803883390190505b509050600060015b6014548111611be4576000818152600c602052604090205460ff168015611b2557506000818152600560209081526040808320600301548352600e90915290205460ff165b15611bdc576000818152600560205260409020600101548551600160a060020a0390911690869084908110611b5657fe5b600160a060020a039283166020918202929092018101919091526000838152600590915260409020600201548551911690859084908110611b9357fe5b600160a060020a039092166020928302919091018201526000828152600590915260409020600301548351849084908110611bca57fe5b60209081029190910101526001909101905b600101611ae0565b508383601580805480602002602001604051908101604052809291908181526020018280548015611c3457602002820191906000526020600020905b815481526020019060010190808311611c20575b505050505090509750975097505050505050909192565b600560205260009081526040902080546001820154600283015460038401546004909401549293600160a060020a0392831693929091169160ff1685565b600160a060020a031660009081526008602052604090205460ff1690565b606080606080606080601454604051908082528060200260200182016040528015611cdc578160200160208202803883390190505b5090506060601454604051908082528060200260200182016040528015611d0d578160200160208202803883390190505b5090506060601454604051908082528060200260200182016040528015611d3e578160200160208202803883390190505b5090506060601454604051908082528060200260200182016040528015611d6f578160200160208202803883390190505b5090506060601454604051908082528060200260200182016040528015611da0578160200160208202803883390190505b509050600060015b601454811161178357600081815260056020526040902060020154600160a060020a038e811691161415611ee3576000818152600560205260409020548751889084908110611df357fe5b6020908102919091018101919091526000828152600590915260409020600101548651600160a060020a0390911690879084908110611e2e57fe5b600160a060020a039092166020928302919091018201526000828152600590915260409020600301548551869084908110611e6557fe5b6020908102919091018101919091526000828152600c9091526040902054845160ff90911690859084908110611e9757fe5b911515602092830291909101820152600082815260059091526040902060040154835160ff90911690849084908110611ecc57fe5b911515602092830291909101909101526001909101905b600101611da8565b611ef43361272b565b611efd57600080fd5b6000828152600b60209081526040808320805473ffffffffffffffffffffffffffffffffffffffff19808216600160a060020a03888116918217909455868652848720855160608101875293851680855284880192835242858801908152825460018181018555938b52898b20965160039091029096018054861696881696909617865592518583018054909516961695909517909255516002928301558786528452828520600901805474ff000000000000000000000000000000000000000019169055818552909252822090915b81548110156120585784828281548110611fe357fe5b906000526020600020015414156120505781548290600019810190811061200657fe5b906000526020600020015482828154811061201d57fe5b90600052602060002001819055508180548061203557fe5b60019003818190600052602060002001600090559055612058565b600101611fcd565b505050600160a060020a031660009081526002602090815260408220805460018101825590835291200155565b600160a060020a031660009081526006602052604090205460ff1690565b60009081526001602052604090206009015474010000000000000000000000000000000000000000900460ff1690565b6000818152600a602052604090205460ff166121045760405160e560020a62461bcd028152600401610bf990613f46565b6000818152600b6020526040902054600160a060020a0316331461213d5760405160e560020a62461bcd028152600401610bf990613f96565b6000908152600160205260409020600901805474ff0000000000000000000000000000000000000000191674010000000000000000000000000000000000000000179055565b6000908152600e602052604090205460ff1690565b6004602090815260009182526040918290208054600180830180548651600261010094831615949094026000190190911692909204601f8101869004860283018601909652858252600160a060020a039092169492939092908301828280156122425780601f1061221757610100808354040283529160200191612242565b820191906000526020600020905b81548152906001019060200180831161222557829003601f168201915b505050506002838101546003850180546040805160206001841615610100026000190190931695909504601f8101839004830286018301909152808552959692959294509091908301828280156122da5780601f106122af576101008083540402835291602001916122da565b820191906000526020600020905b8154815290600101906020018083116122bd57829003601f168201915b5050505060048301805460408051602060026001851615610100026000190190941693909304601f810184900484028201840190925281815294959493509083018282801561236a5780601f1061233f5761010080835404028352916020019161236a565b820191906000526020600020905b81548152906001019060200180831161234d57829003601f168201915b5050505060058301805460408051602060026001851615610100026000190190941693909304601f81018490048402820184019092528181529495949350908301828280156123fa5780601f106123cf576101008083540402835291602001916123fa565b820191906000526020600020905b8154815290600101906020018083116123dd57829003601f168201915b5050505060068301805460408051602060026001851615610100026000190190941693909304601f810184900484028201840190925281815294959493509083018282801561248a5780601f1061245f5761010080835404028352916020019161248a565b820191906000526020600020905b81548152906001019060200180831161246d57829003601f168201915b5050505060078301805460408051602060026001851615610100026000190190941693909304601f810184900484028201840190925281815294959493509083018282801561251a5780601f106124ef5761010080835404028352916020019161251a565b820191906000526020600020905b8154815290600101906020018083116124fd57829003601f168201915b5050505050905088565b61252d33610c5c565b61254c5760405160e560020a62461bcd028152600401610bf990613f26565b6000818152600c602052604090819020805460ff19166001179055517fbecbbd7543b68baaaf7e9c3fd12e4719f1f506f4253abef4a6573d0adf3a73ed90610db2908390613fb7565b6060601580548060200260200160405190810160405280929190818152602001828054801561185c57602002820191906000526020600020905b8154815260200190600101908083116125cf575050505050905090565b6003602090815260009182526040918290208054600180830180548651600293821615610100026000190190911692909204601f8101869004860283018601909652858252919492939092908301828280156126895780601f1061265e57610100808354040283529160200191612689565b820191906000526020600020905b81548152906001019060200180831161266c57829003601f168201915b505050506002838101546003850180546040805160206001841615610100026000190190931695909504601f8101839004830286018301909152808552959692959294509091908301828280156127215780601f106126f657610100808354040283529160200191612721565b820191906000526020600020905b81548152906001019060200180831161270457829003601f168201915b5050505050905084565b600f54600160a060020a0391821691161490565b6001602052806000526040600020600091509050806000015490806001015490806002018054600181600116156101000203166002900480601f0160208091040260200160405190810160405280929190818152602001828054600181600116156101000203166002900480156127f75780601f106127cc576101008083540402835291602001916127f7565b820191906000526020600020905b8154815290600101906020018083116127da57829003601f168201915b5050505060038301805460408051602060026001851615610100026000190190941693909304601f81018490048402820184019092528181529495949350908301828280156128875780601f1061285c57610100808354040283529160200191612887565b820191906000526020600020905b81548152906001019060200180831161286a57829003601f168201915b505050600484015460058501546006860154600787018054604080516020601f6002600019610100600188161502019095169490940493840181900481028201810190925282815298999598949750929550909183018282801561292c5780601f106129015761010080835404028352916020019161292c565b820191906000526020600020905b81548152906001019060200180831161290f57829003601f168201915b5050505060088301805460408051602060026001851615610100026000190190941693909304601f81018490048402820184019092528181529495949350908301828280156129bc5780601f10612991576101008083540402835291602001916129bc565b820191906000526020600020905b81548152906001019060200180831161299f57829003601f168201915b50505060099093015491925050600160a060020a0381169060ff74010000000000000000000000000000000000000000909104168b565b6129fc33610c5c565b612a1b5760405160e560020a62461bcd028152600401610bf990613f26565b612a2433611c89565b612a435760405160e560020a62461bcd028152600401610bf990613f36565b60118054600190810191829055604080516101608101825283815260208082018d81528284018d8152606084018d9052608084018c905260a084018b905260c084018a905260e0840189905261010084018890523361012085015260006101408501819052968752858352939095208251815594519385019390935590518051919392612ad8926002850192909101906131dd565b5060608201518051612af49160038401916020909101906131dd565b506080820151600482015560a0820151600582015560c0820151600682015560e08201518051612b2e9160078401916020909101906131dd565b506101008201518051612b4b9160088401916020909101906131dd565b5061012082015160099091018054610140909301511515740100000000000000000000000000000000000000000274ff000000000000000000000000000000000000000019600160a060020a0390931673ffffffffffffffffffffffffffffffffffffffff199485161792909216919091179055601180546000908152600b602090815260408083208054909516339081179095559382526002815292812082548154600181810184559284529483209094019390935590546015805493840181559091527f55f448fdea98c4d29eb340757ef0a66cd03dbb9538908a6a81d96026b71ec475909101555050505050505050565b3360009081526006602052604090205460ff1615612c725760405160e560020a62461bcd028152600401610bf990613f86565b3360008181526006602090815260408083208054600160ff1991821681179092556007845282852080549091168217905560138054820190558151610100810183528581528084018d81528184018d9052606082018c9052608082018b905260a082018a905260c0820189905260e0820188905295855260048452919093208151815473ffffffffffffffffffffffffffffffffffffffff1916600160a060020a0390911617815593518051919493612d3193908501929101906131dd565b506040820151600282015560608201518051612d579160038401916020909101906131dd565b5060808201518051612d739160048401916020909101906131dd565b5060a08201518051612d8f9160058401916020909101906131dd565b5060c08201518051612dab9160068401916020909101906131dd565b5060e08201518051612dc79160078401916020909101906131dd565b5050601080546001810182556000919091527f1b6847dc741a1b0cd08d278845f9d819d87b734759afb55fe2de5cb82a9ae67201805473ffffffffffffffffffffffffffffffffffffffff1916339081179091556040517f478f5152d8fc568db3f8de9fb402fd9d98a1a7541ecfe434e59cf574fbfc55249250612e4b9190613c8c565b60405180910390a150505050505050565b600090815260056020908152604080832060018101546002820154600390920154600c9094529190932054600160a060020a0391821694919093169260ff1690565b612ea733610c5c565b612ec65760405160e560020a62461bcd028152600401610bf990613f26565b612ecf33611c89565b612eee5760405160e560020a62461bcd028152600401610bf990613f36565b6014805460019081018083556040805160a081018252828152600160a060020a03808816602080840191825233848601908152606085018a815260006080870181815298815260058452878120965187559351868a01805491871673ffffffffffffffffffffffffffffffffffffffff199283161790559151600287018054919096169216919091179093559151600384015593516004909201805492151560ff1993841617905585548452600c815282842080548316905594548352600d909452908190208054909316909117909155517f226be41bcaf9760851410ade1cd6450b48b6b4d0adc46c61ea33b5a37b41bad790612fed908490613c7e565b60405180910390a15050565b60066020526000908152604090205460ff1681565b600f54600160a060020a0316331461303b5760405160e560020a62461bcd028152600401610bf990613f66565b6000908152600a60205260409020805460ff19166001179055565b606080613061612595565b90506060815160405190808252806020026020018201604052801561309a57816020015b60608152602001906001900390816130855790505b50905060005b825181101561316b576000808483815181106130b857fe5b60200260200101518152602001908152602001600020805480602002602001604051908101604052809291908181526020016000905b8282101561314857600084815260209081902060408051606081018252600386029092018054600160a060020a039081168452600180830154909116848601526002909101549183019190915290835290920191016130ee565b5050505082828151811061315857fe5b60209081029190910101526001016130a0565b5091505090565b60145481565b6040518061016001604052806000815260200160008152602001606081526020016060815260200160008152602001600081526020016000815260200160608152602001606081526020016000600160a060020a031681526020016000151581525090565b828054600181600116156101000203166002900490600052602060002090601f016020900481019282601f1061321e57805160ff191683800117855561324b565b8280016001018555821561324b579182015b8281111561324b578251825591602001919060010190613230565b5061325792915061325b565b5090565b610b3191905b808211156132575760008155600101613261565b8035613280816141e3565b92915050565b600082601f83011261329757600080fd5b81356132aa6132a582614139565b614112565b915080825260208301602083018583830111156132c657600080fd5b6132d18382846141a1565b50505092915050565b8035613280816141fa565b6000602082840312156132f757600080fd5b60006133038484613275565b949350505050565b60008060006060848603121561332057600080fd5b600061332c8686613275565b935050602061333d868287016132da565b925050604061334e868287016132da565b9150509250925092565b6000806040838503121561336b57600080fd5b60006133778585613275565b9250506020613388858286016132da565b9150509250929050565b600080600080600080600060e0888a0312156133ad57600080fd5b873567ffffffffffffffff8111156133c457600080fd5b6133d08a828b01613286565b97505060206133e18a828b016132da565b965050604088013567ffffffffffffffff8111156133fe57600080fd5b61340a8a828b01613286565b955050606088013567ffffffffffffffff81111561342757600080fd5b6134338a828b01613286565b945050608088013567ffffffffffffffff81111561345057600080fd5b61345c8a828b01613286565b93505060a088013567ffffffffffffffff81111561347957600080fd5b6134858a828b01613286565b92505060c088013567ffffffffffffffff8111156134a257600080fd5b6134ae8a828b01613286565b91505092959891949750929550565b6000602082840312156134cf57600080fd5b600061330384846132da565b600080604083850312156134ee57600080fd5b60006134fa85856132da565b925050602061338885828601613275565b600080600080600080600080610100898b03121561352857600080fd5b60006135348b8b6132da565b985050602089013567ffffffffffffffff81111561355157600080fd5b61355d8b828c01613286565b975050604089013567ffffffffffffffff81111561357a57600080fd5b6135868b828c01613286565b96505060606135978b828c016132da565b95505060806135a88b828c016132da565b94505060a06135b98b828c016132da565b93505060c089013567ffffffffffffffff8111156135d657600080fd5b6135e28b828c01613286565b92505060e089013567ffffffffffffffff8111156135ff57600080fd5b61360b8b828c01613286565b9150509295985092959890939650565b6000806040838503121561362e57600080fd5b600061337785856132da565b6000613646838361369c565b505060200190565b600061365a8383613808565b9392505050565b600061364683836138a4565b60006136798383613c42565b505060600190565b60006136468383613c75565b61369681614190565b82525050565b61369681614174565b60006136b082614167565b6136ba818561416b565b93506136c583614161565b8060005b838110156136f35781516136dd888261363a565b97506136e883614161565b9250506001016136c9565b509495945050505050565b600061370982614167565b613713818561416b565b93508360208202850161372585614161565b8060005b8581101561375f5784840389528151613742858261364e565b945061374d83614161565b60209a909a0199925050600101613729565b5091979650505050505050565b600061377782614167565b613781818561416b565b935061378c83614161565b8060005b838110156136f35781516137a48882613661565b97506137af83614161565b925050600101613790565b60006137c582614167565b6137cf818561416b565b93506137da83614161565b8060005b838110156136f35781516137f2888261366d565b97506137fd83614161565b9250506001016137de565b600061381382614167565b61381d818561416b565b935061382883614161565b8060005b838110156136f3578151613840888261366d565b975061384b83614161565b92505060010161382c565b600061386182614167565b61386b818561416b565b935061387683614161565b8060005b838110156136f357815161388e8882613681565b975061389983614161565b92505060010161387a565b6136968161417f565b60006138b882614167565b6138c2818561416b565b93506138d28185602086016141ad565b6138db816141d9565b9093019392505050565b60006138f2601f8361416b565b7f43616c6c6572206973206e6f7420612072656769737465726564205573657200815260200192915050565b600061392b60148361416b565b7f55736572206973206e6f74207665726966696564000000000000000000000000815260200192915050565b6000613964602b8361416b565b7f4c616e64206d75737420626520766572696669656420746f206265207075742081527f757020666f722073616c65000000000000000000000000000000000000000000602082015260400192915050565b60006139c360268361416b565b7f4f6e6c79207468652073656c6c65722063616e2072656a65637420746865207281527f6571756573740000000000000000000000000000000000000000000000000000602082015260400192915050565b6000613a22602a8361416b565b7f4f6e6c79206c616e6420696e73706563746f722063616e2063616c6c2074686981527f732066756e6374696f6e00000000000000000000000000000000000000000000602082015260400192915050565b6000613a81601b8361416b565b7f496e73756666696369656e74207061796d656e7420616d6f756e740000000000815260200192915050565b6000613aba601a8361416b565b7f5573657220697320616c72656164792072656769737465726564000000000000815260200192915050565b6000613af360308361416b565b7f4f6e6c7920746865206c616e64206f776e65722063616e20707574207468652081527f6c616e6420757020666f722073616c6500000000000000000000000000000000602082015260400192915050565b8051600090610160840190613b5a8582613c75565b506020830151613b6d6020860182613c75565b5060408301518482036040860152613b8582826138ad565b91505060608301518482036060860152613b9f82826138ad565b9150506080830151613bb46080860182613c75565b5060a0830151613bc760a0860182613c75565b5060c0830151613bda60c0860182613c75565b5060e083015184820360e0860152613bf282826138ad565b915050610100830151848203610100860152613c0e82826138ad565b915050610120830151613c2561012086018261369c565b50610140830151613c3a6101408601826138a4565b509392505050565b80516060830190613c53848261369c565b506020820151613c66602085018261369c565b5060408201516119af60408501825b61369681610b31565b60208101613280828461369c565b60208101613280828461368d565b60608101613ca8828661369c565b613cb5602083018561369c565b6133036040830184613c75565b60808101613cd0828761369c565b613cdd602083018661369c565b613cea6040830185613c75565b613cf760608301846138a4565b95945050505050565b6101008101613d0f828b61369c565b8181036020830152613d21818a6138ad565b9050613d306040830189613c75565b8181036060830152613d4281886138ad565b90508181036080830152613d5681876138ad565b905081810360a0830152613d6a81866138ad565b905081810360c0830152613d7e81856138ad565b905081810360e0830152613d9281846138ad565b9a9950505050505050505050565b6020808252810161365a81846136a5565b60608082528101613dc281866136a5565b90508181036020830152613dd681856136a5565b90508181036040830152613cf78184613856565b6020808252810161365a81846136fe565b6020808252810161365a81846137ba565b6020808252810161365a8184613856565b60a08082528101613e2e8188613856565b90508181036020830152613e4281876136a5565b90508181036040830152613e568186613856565b90508181036060830152613e6a818561376c565b90508181036080830152613e7e818461376c565b979650505050505050565b6020810161328082846138a4565b60e08082528101613ea8818a6138ad565b90508181036020830152613ebc81896138ad565b90508181036040830152613ed081886138ad565b90508181036060830152613ee481876138ad565b90508181036080830152613ef881866138ad565b9050613f0760a0830185613c75565b81810360c0830152613f1981846138ad565b9998505050505050505050565b60208082528101613280816138e5565b602080825281016132808161391e565b6020808252810161328081613957565b60208082528101613280816139b6565b6020808252810161328081613a15565b6020808252810161328081613a74565b6020808252810161328081613aad565b6020808252810161328081613ae6565b6020808252810161365a8184613b45565b602081016132808284613c75565b60a08101613fd38288613c75565b613fe0602083018761369c565b613fed604083018661369c565b613ffa6060830185613c75565b61400760808301846138a4565b9695505050505050565b6080810161401f8287613c75565b818103602083015261403181866138ad565b90506140406040830185613c75565b818103606083015261400781846138ad565b6101608101614061828e613c75565b61406e602083018d613c75565b8181036040830152614080818c6138ad565b90508181036060830152614094818b6138ad565b90506140a3608083018a613c75565b6140b060a0830189613c75565b6140bd60c0830188613c75565b81810360e08301526140cf81876138ad565b90508181036101008301526140e481866138ad565b90506140f461012083018561369c565b6141026101408301846138a4565b9c9b505050505050505050505050565b60405181810167ffffffffffffffff8111828210171561413157600080fd5b604052919050565b600067ffffffffffffffff82111561415057600080fd5b506020601f91909101601f19160190565b60200190565b5190565b90815260200190565b600061328082614184565b151590565b600160a060020a031690565b600061328082600061328082614174565b82818337506000910152565b60005b838110156141c85781810151838201526020016141b0565b838111156119af5750506000910152565b601f01601f191690565b6141ec81614174565b81146141f757600080fd5b50565b6141ec81610b3156fea365627a7a72315820bd97f37adad13b1022a726365f3e160f898a24d74c95b7ba94c78fa4c88dffd26c6578706572696d656e74616cf564736f6c63430005100040",
  "source": "// SPDX-License-Identifier: GPL-3.0\r\n\r\npragma solidity >=0.5.2;\r\npragma experimental ABIEncoderV2;\r\n\r\ncontract Land {\r\n    struct Landreg {\r\n        uint id;\r\n        uint area;\r\n        string city;\r\n        string state;\r\n        uint landPrice;\r\n        uint propertyPID;\r\n        uint physicalSurveyNumber;\r\n        string ipfsHash;\r\n        string document;\r\n        address landOwner;\r\n        bool isLandForSale;\r\n    }\r\n\r\n    struct User {\r\n        address id;\r\n        string name;\r\n        uint age;\r\n        string city;\r\n        string aadharNumber;\r\n        string panNumber;\r\n        string document;\r\n        string email;\r\n    }\r\n\r\n    struct LandInspector {\r\n        uint id;\r\n        string name;\r\n        uint age;\r\n        string designation;\r\n    }\r\n\r\n    struct LandRequest {\r\n        uint reqId;\r\n        address sellerId;\r\n        address buyerId;\r\n        uint landId;\r\n        bool isRejected;\r\n    }\r\n\r\n    struct OwnershipTransfer {\r\n        address previousOwner;\r\n        address newOwner;\r\n        uint timestamp;\r\n    }\r\n    mapping(uint => OwnershipTransfer[]) public ownershipTransfers;\r\n    mapping(uint => Landreg) public lands;\r\n    mapping(address => uint[]) public userOwnedLands;\r\n    mapping(uint => LandInspector) public InspectorMapping;\r\n    mapping(address => User) public UserMapping;\r\n    mapping(uint => LandRequest) public RequestsMapping;\r\n\r\n    mapping(address => bool) public RegisteredAddressMapping;\r\n    mapping(address => bool) public RegisteredUserMapping;\r\n    mapping(address => bool) public UserVerification;\r\n    mapping(address => bool) public UserRejection;\r\n    mapping(uint => bool) public LandVerification;\r\n    mapping(uint => address) public LandOwner;\r\n    mapping(uint => bool) public RequestStatus;\r\n    mapping(uint => bool) public RequestedLands;\r\n    mapping(uint => bool) public PaymentReceived;\r\n\r\n    address public Land_Inspector;\r\n    address[] public users;\r\n    uint public landsCount;\r\n    uint public inspectorsCount;\r\n    uint public usersCount;\r\n    uint public requestsCount;\r\n    uint[] public landIds;\r\n\r\n    event Registration(address _registrationId);\r\n    event LandRequested(address _sellerId);\r\n    event RequestApproved(uint _reqId);\r\n    event Verified(address _id);\r\n    event Rejected(address _id);\r\n\r\n    modifier onlyLandInspector() {\r\n        require(\r\n            msg.sender == Land_Inspector,\r\n            \"Only land inspector can call this function\"\r\n        );\r\n        _;\r\n    }\r\n    modifier onlyUser() {\r\n        require(isUser(msg.sender), \"Caller is not a registered User\");\r\n        _;\r\n    }\r\n\r\n    constructor() public {\r\n        Land_Inspector = msg.sender;\r\n        addLandInspector(\"Inspector 1\", 45, \"Tehsil Manager\");\r\n    }\r\n\r\n    function addLandInspector(\r\n        string memory _name,\r\n        uint _age,\r\n        string memory _designation\r\n    ) private {\r\n        inspectorsCount++;\r\n        InspectorMapping[inspectorsCount] = LandInspector(\r\n            inspectorsCount,\r\n            _name,\r\n            _age,\r\n            _designation\r\n        );\r\n    }\r\n\r\n    function addLand(\r\n        uint _area,\r\n        string memory _city,\r\n        string memory _state,\r\n        uint _landPrice,\r\n        uint _propertyPID,\r\n        uint _surveyNum,\r\n        string memory _ipfsHash,\r\n        string memory _document\r\n    ) public onlyUser {\r\n        require(isVerified(msg.sender), \"User is not verified\");\r\n\r\n        landsCount++;\r\n        lands[landsCount] = Landreg(\r\n            landsCount,\r\n            _area,\r\n            _city,\r\n            _state,\r\n            _landPrice,\r\n            _propertyPID,\r\n            _surveyNum,\r\n            _ipfsHash,\r\n            _document,\r\n            msg.sender,\r\n            false\r\n        );\r\n        LandOwner[landsCount] = msg.sender;\r\n        userOwnedLands[msg.sender].push(landsCount);\r\n        landIds.push(landsCount);\r\n    }\r\n\r\n    function makeLandForSale(uint _landId) public {\r\n        require(\r\n            LandVerification[_landId],\r\n            \"Land must be verified to be put up for sale\"\r\n        );\r\n        require(\r\n            LandOwner[_landId] == msg.sender,\r\n            \"Only the land owner can put the land up for sale\"\r\n        );\r\n\r\n        lands[_landId].isLandForSale = true;\r\n    }\r\n\r\n    function isLandForSale(uint _landId) public view returns (bool) {\r\n        return lands[_landId].isLandForSale;\r\n    }\r\n\r\n    function getAllLandIds() public view returns (uint[] memory) {\r\n        return landIds;\r\n    }\r\n\r\n    function registerUser(\r\n        string memory _name,\r\n        uint _age,\r\n        string memory _city,\r\n        string memory _aadharNumber,\r\n        string memory _panNumber,\r\n        string memory _document,\r\n        string memory _email\r\n    ) public {\r\n        require(\r\n            !RegisteredAddressMapping[msg.sender],\r\n            \"User is already registered\"\r\n        );\r\n\r\n        RegisteredAddressMapping[msg.sender] = true;\r\n        RegisteredUserMapping[msg.sender] = true;\r\n        usersCount++;\r\n        UserMapping[msg.sender] = User(\r\n            msg.sender,\r\n            _name,\r\n            _age,\r\n            _city,\r\n            _aadharNumber,\r\n            _panNumber,\r\n            _document,\r\n            _email\r\n        );\r\n        users.push(msg.sender);\r\n\r\n        emit Registration(msg.sender);\r\n    }\r\n\r\n    function requestLand(address _sellerId, uint _landId) public onlyUser {\r\n        require(isVerified(msg.sender), \"User is not verified\");\r\n\r\n        requestsCount++;\r\n        RequestsMapping[requestsCount] = LandRequest(\r\n            requestsCount,\r\n            _sellerId,\r\n            msg.sender,\r\n            _landId,\r\n            false\r\n        );\r\n        RequestStatus[requestsCount] = false;\r\n        RequestedLands[requestsCount] = true;\r\n\r\n        emit LandRequested(_sellerId);\r\n    }\r\n\r\n    function approveRequest(uint _reqId) public onlyUser {\r\n        RequestStatus[_reqId] = true;\r\n\r\n        emit RequestApproved(_reqId);\r\n    }\r\n\r\n    function rejectRequest(uint _reqId) public {\r\n        require(\r\n            RequestsMapping[_reqId].sellerId == msg.sender,\r\n            \"Only the seller can reject the request\"\r\n        );\r\n\r\n        RequestsMapping[_reqId].isRejected = true;\r\n    }\r\n\r\n    function verifyUser(address _userId) public onlyLandInspector {\r\n        UserVerification[_userId] = true;\r\n        emit Verified(_userId);\r\n    }\r\n\r\n    function rejectUser(address _userId) public onlyLandInspector {\r\n        UserRejection[_userId] = true;\r\n        emit Rejected(_userId);\r\n    }\r\n\r\n    function verifyLand(uint _landId) public onlyLandInspector {\r\n        LandVerification[_landId] = true;\r\n    }\r\n\r\n    function isLandVerified(uint _id) public view returns (bool) {\r\n        return LandVerification[_id];\r\n    }\r\n\r\n    function isVerified(address _id) public view returns (bool) {\r\n        return UserVerification[_id];\r\n    }\r\n\r\n    function isRejected(address _id) public view returns (bool) {\r\n        return UserRejection[_id];\r\n    }\r\n\r\n    function isUser(address _id) public view returns (bool) {\r\n        return RegisteredUserMapping[_id];\r\n    }\r\n\r\n    function isLandInspector(address _id) public view returns (bool) {\r\n        return Land_Inspector == _id;\r\n    }\r\n\r\n    function isRegistered(address _id) public view returns (bool) {\r\n        return RegisteredAddressMapping[_id];\r\n    }\r\n\r\n    function getLandsCount() public view returns (uint) {\r\n        return landsCount;\r\n    }\r\n\r\n    function getUsersCount() public view returns (uint) {\r\n        return usersCount;\r\n    }\r\n\r\n    function getUser() public view returns (address[] memory) {\r\n        return (users);\r\n    }\r\n\r\n    function getUserOwnedLands(\r\n        address user\r\n    ) public view returns (uint[] memory) {\r\n        return userOwnedLands[user];\r\n    }\r\n\r\n    function getLandInfo(uint landId) public view returns (Landreg memory) {\r\n        Landreg memory land = lands[landId];\r\n        land.landOwner = LandOwner[landId]; // Update land owner with the latest owner from LandOwner mapping\r\n        return land;\r\n    }\r\n\r\n    function getBuyerDetails(\r\n        address i\r\n    )\r\n        public\r\n        view\r\n        returns (\r\n            string memory,\r\n            string memory,\r\n            string memory,\r\n            string memory,\r\n            string memory,\r\n            uint,\r\n            string memory\r\n        )\r\n    {\r\n        return (\r\n            UserMapping[i].name,\r\n            UserMapping[i].city,\r\n            UserMapping[i].panNumber,\r\n            UserMapping[i].document,\r\n            UserMapping[i].email,\r\n            UserMapping[i].age,\r\n            UserMapping[i].aadharNumber\r\n        );\r\n    }\r\n\r\n    function getRequestDetails(\r\n        uint i\r\n    ) public view returns (address, address, uint, bool) {\r\n        return (\r\n            RequestsMapping[i].sellerId,\r\n            RequestsMapping[i].buyerId,\r\n            RequestsMapping[i].landId,\r\n            RequestStatus[i]\r\n        );\r\n    }\r\n\r\n    function getBuyerRequestDetails(\r\n        address _buyer\r\n    )\r\n        public\r\n        view\r\n        returns (\r\n            uint[] memory,\r\n            address[] memory,\r\n            uint[] memory,\r\n            bool[] memory,\r\n            bool[] memory\r\n        )\r\n    {\r\n        uint[] memory reqIds = new uint[](requestsCount);\r\n        address[] memory sellerIds = new address[](requestsCount);\r\n        uint[] memory allIds = new uint[](requestsCount);\r\n        bool[] memory statuses = new bool[](requestsCount);\r\n        bool[] memory rejections = new bool[](requestsCount);\r\n\r\n        uint index = 0;\r\n        for (uint i = 1; i <= requestsCount; i++) {\r\n            if (RequestsMapping[i].buyerId == _buyer) {\r\n                reqIds[index] = RequestsMapping[i].reqId;\r\n                sellerIds[index] = RequestsMapping[i].sellerId;\r\n                allIds[index] = RequestsMapping[i].landId;\r\n                statuses[index] = RequestStatus[i];\r\n                rejections[index] = RequestsMapping[i].isRejected;\r\n                index++;\r\n            }\r\n        }\r\n\r\n        assembly {\r\n            mstore(reqIds, index)\r\n            mstore(sellerIds, index)\r\n            mstore(allIds, index)\r\n            mstore(statuses, index)\r\n            mstore(rejections, index)\r\n        }\r\n\r\n        return (reqIds, sellerIds, landIds, statuses, rejections);\r\n    }\r\n\r\n    function getSellerRequestDetails(\r\n        address _seller\r\n    )\r\n        public\r\n        view\r\n        returns (\r\n            uint[] memory,\r\n            address[] memory,\r\n            uint[] memory,\r\n            bool[] memory,\r\n            bool[] memory\r\n        )\r\n    {\r\n        uint[] memory reqIds = new uint[](requestsCount);\r\n        address[] memory buyerIds = new address[](requestsCount);\r\n        uint[] memory allIds = new uint[](requestsCount);\r\n        bool[] memory statuses = new bool[](requestsCount);\r\n        bool[] memory rejections = new bool[](requestsCount);\r\n\r\n        uint index = 0;\r\n        for (uint i = 1; i <= requestsCount; i++) {\r\n            if (RequestsMapping[i].sellerId == _seller) {\r\n                reqIds[index] = RequestsMapping[i].reqId;\r\n                buyerIds[index] = RequestsMapping[i].buyerId;\r\n                allIds[index] = RequestsMapping[i].landId;\r\n                statuses[index] = RequestStatus[i];\r\n                rejections[index] = RequestsMapping[i].isRejected;\r\n                index++;\r\n            }\r\n        }\r\n\r\n        // Resize arrays to remove any unused slots\r\n        assembly {\r\n            mstore(reqIds, index)\r\n            mstore(buyerIds, index)\r\n            mstore(allIds, index)\r\n            mstore(statuses, index)\r\n            mstore(rejections, index)\r\n        }\r\n\r\n        return (reqIds, buyerIds, landIds, statuses, rejections);\r\n    }\r\n\r\n    function isRequested(uint _id) public view returns (bool) {\r\n        return RequestedLands[_id];\r\n    }\r\n\r\n    function isApproved(uint _id) public view returns (bool) {\r\n        return RequestStatus[_id];\r\n    }\r\n\r\n    function LandOwnershipTransfer(uint _landId, address _newOwner) public {\r\n        require(isLandInspector(msg.sender));\r\n\r\n        address previousOwner = LandOwner[_landId]; // Store the previous owner\r\n        LandOwner[_landId] = _newOwner; // Update land ownership to the new owner\r\n\r\n        ownershipTransfers[_landId].push(\r\n            OwnershipTransfer({\r\n                previousOwner: previousOwner,\r\n                newOwner: _newOwner,\r\n                timestamp: block.timestamp\r\n            })\r\n        );\r\n\r\n        lands[_landId].isLandForSale = false; // Set isLandForSale to false\r\n\r\n        uint[] storage ownedLandIds = userOwnedLands[previousOwner];\r\n        for (uint i = 0; i < ownedLandIds.length; i++) {\r\n            if (ownedLandIds[i] == _landId) {\r\n                ownedLandIds[i] = ownedLandIds[ownedLandIds.length - 1];\r\n                ownedLandIds.pop();\r\n                break;\r\n            }\r\n        }\r\n\r\n        userOwnedLands[_newOwner].push(_landId);\r\n    }\r\n\r\n    function getOwnershipTransfers(\r\n        uint _landId\r\n    ) public view returns (OwnershipTransfer[] memory) {\r\n        return ownershipTransfers[_landId];\r\n    }\r\n\r\n    function isPaid(uint _landId) public view returns (bool) {\r\n        return PaymentReceived[_landId];\r\n    }\r\n\r\n    function getCompletedTransactions()\r\n        public\r\n        view\r\n        returns (address[] memory, address[] memory, uint[] memory)\r\n    {\r\n        uint count = 0;\r\n\r\n        for (uint i = 1; i <= requestsCount; i++) {\r\n            if (\r\n                RequestStatus[i] && PaymentReceived[RequestsMapping[i].landId]\r\n            ) {\r\n                count++;\r\n            }\r\n        }\r\n\r\n        address[] memory sellers = new address[](count);\r\n        address[] memory buyers = new address[](count);\r\n        uint[] memory allIds = new uint[](count);\r\n\r\n        uint index = 0;\r\n        for (uint i = 1; i <= requestsCount; i++) {\r\n            if (\r\n                RequestStatus[i] && PaymentReceived[RequestsMapping[i].landId]\r\n            ) {\r\n                sellers[index] = RequestsMapping[i].sellerId;\r\n                buyers[index] = RequestsMapping[i].buyerId;\r\n                allIds[index] = RequestsMapping[i].landId;\r\n                index++;\r\n            }\r\n        }\r\n\r\n        return (sellers, buyers, landIds);\r\n    }\r\n\r\n    function getAllOwnershipTransfers()\r\n        public\r\n        view\r\n        returns (OwnershipTransfer[][] memory)\r\n    {\r\n        uint[] memory allIds = getAllLandIds();\r\n        OwnershipTransfer[][] memory allTransfers = new OwnershipTransfer[][](\r\n            allIds.length\r\n        );\r\n\r\n        for (uint i = 0; i < allIds.length; i++) {\r\n            allTransfers[i] = ownershipTransfers[allIds[i]];\r\n        }\r\n\r\n        return allTransfers;\r\n    }\r\n\r\n    function payment(\r\n        address payable _receiver,\r\n        uint _landId,\r\n        uint _landPrice\r\n    ) public payable {\r\n        require(msg.value >= _landPrice, \"Insufficient payment amount\");\r\n\r\n        PaymentReceived[_landId] = true;\r\n        _receiver.transfer(_landPrice);\r\n    }\r\n}\r\n",
  "sourcePath": "C:\\College Projects\\blockchain-project\\contracts\\Land.sol",
  "compiler": {
    "name": "solc",
    "version": "0.5.16+commit.9c3226ce.Emscripten.clang"
  },
  "schemaVersion": "3.4.16",
  "updatedAt": "2024-04-13T14:20:18.173Z",
  "networkType": "ethereum",
  "devdoc": {
    "methods": {}
  },
  "userdoc": {
    "methods": {}
  }
}