{
  "contractName": "Land",
  "abi": [
    {
      "inputs": [],
      "payable": false,
      "stateMutability": "nonpayable",
      "type": "constructor"
    },
    {
      "anonymous": false,
      "inputs": [
        {
          "indexed": false,
          "internalType": "address",
          "name": "_sellerId",
          "type": "address"
        }
      ],
      "name": "LandRequested",
      "type": "event"
    },
    {
      "anonymous": false,
      "inputs": [
        {
          "indexed": false,
          "internalType": "address",
          "name": "_registrationId",
          "type": "address"
        }
      ],
      "name": "Registration",
      "type": "event"
    },
    {
      "anonymous": false,
      "inputs": [
        {
          "indexed": false,
          "internalType": "address",
          "name": "_id",
          "type": "address"
        }
      ],
      "name": "Rejected",
      "type": "event"
    },
    {
      "anonymous": false,
      "inputs": [
        {
          "indexed": false,
          "internalType": "uint256",
          "name": "_reqId",
          "type": "uint256"
        }
      ],
      "name": "RequestApproved",
      "type": "event"
    },
    {
      "anonymous": false,
      "inputs": [
        {
          "indexed": false,
          "internalType": "address",
          "name": "_id",
          "type": "address"
        }
      ],
      "name": "Verified",
      "type": "event"
    },
    {
      "constant": true,
      "inputs": [
        {
          "internalType": "uint256",
          "name": "",
          "type": "uint256"
        }
      ],
      "name": "InspectorMapping",
      "outputs": [
        {
          "internalType": "uint256",
          "name": "id",
          "type": "uint256"
        },
        {
          "internalType": "string",
          "name": "name",
          "type": "string"
        },
        {
          "internalType": "uint256",
          "name": "age",
          "type": "uint256"
        },
        {
          "internalType": "string",
          "name": "designation",
          "type": "string"
        }
      ],
      "payable": false,
      "stateMutability": "view",
      "type": "function"
    },
    {
      "constant": true,
      "inputs": [
        {
          "internalType": "uint256",
          "name": "",
          "type": "uint256"
        }
      ],
      "name": "LandOwner",
      "outputs": [
        {
          "internalType": "address",
          "name": "",
          "type": "address"
        }
      ],
      "payable": false,
      "stateMutability": "view",
      "type": "function"
    },
    {
      "constant": true,
      "inputs": [
        {
          "internalType": "uint256",
          "name": "",
          "type": "uint256"
        }
      ],
      "name": "LandVerification",
      "outputs": [
        {
          "internalType": "bool",
          "name": "",
          "type": "bool"
        }
      ],
      "payable": false,
      "stateMutability": "view",
      "type": "function"
    },
    {
      "constant": true,
      "inputs": [],
      "name": "Land_Inspector",
      "outputs": [
        {
          "internalType": "address",
          "name": "",
          "type": "address"
        }
      ],
      "payable": false,
      "stateMutability": "view",
      "type": "function"
    },
    {
      "constant": true,
      "inputs": [
        {
          "internalType": "uint256",
          "name": "",
          "type": "uint256"
        }
      ],
      "name": "PaymentReceived",
      "outputs": [
        {
          "internalType": "bool",
          "name": "",
          "type": "bool"
        }
      ],
      "payable": false,
      "stateMutability": "view",
      "type": "function"
    },
    {
      "constant": true,
      "inputs": [
        {
          "internalType": "address",
          "name": "",
          "type": "address"
        }
      ],
      "name": "RegisteredAddressMapping",
      "outputs": [
        {
          "internalType": "bool",
          "name": "",
          "type": "bool"
        }
      ],
      "payable": false,
      "stateMutability": "view",
      "type": "function"
    },
    {
      "constant": true,
      "inputs": [
        {
          "internalType": "address",
          "name": "",
          "type": "address"
        }
      ],
      "name": "RegisteredUserMapping",
      "outputs": [
        {
          "internalType": "bool",
          "name": "",
          "type": "bool"
        }
      ],
      "payable": false,
      "stateMutability": "view",
      "type": "function"
    },
    {
      "constant": true,
      "inputs": [
        {
          "internalType": "uint256",
          "name": "",
          "type": "uint256"
        }
      ],
      "name": "RequestStatus",
      "outputs": [
        {
          "internalType": "bool",
          "name": "",
          "type": "bool"
        }
      ],
      "payable": false,
      "stateMutability": "view",
      "type": "function"
    },
    {
      "constant": true,
      "inputs": [
        {
          "internalType": "uint256",
          "name": "",
          "type": "uint256"
        }
      ],
      "name": "RequestedLands",
      "outputs": [
        {
          "internalType": "bool",
          "name": "",
          "type": "bool"
        }
      ],
      "payable": false,
      "stateMutability": "view",
      "type": "function"
    },
    {
      "constant": true,
      "inputs": [
        {
          "internalType": "uint256",
          "name": "",
          "type": "uint256"
        }
      ],
      "name": "RequestsMapping",
      "outputs": [
        {
          "internalType": "uint256",
          "name": "reqId",
          "type": "uint256"
        },
        {
          "internalType": "address",
          "name": "sellerId",
          "type": "address"
        },
        {
          "internalType": "address",
          "name": "buyerId",
          "type": "address"
        },
        {
          "internalType": "uint256",
          "name": "landId",
          "type": "uint256"
        },
        {
          "internalType": "bool",
          "name": "isRejected",
          "type": "bool"
        }
      ],
      "payable": false,
      "stateMutability": "view",
      "type": "function"
    },
    {
      "constant": true,
      "inputs": [
        {
          "internalType": "address",
          "name": "",
          "type": "address"
        }
      ],
      "name": "UserMapping",
      "outputs": [
        {
          "internalType": "address",
          "name": "id",
          "type": "address"
        },
        {
          "internalType": "string",
          "name": "name",
          "type": "string"
        },
        {
          "internalType": "uint256",
          "name": "age",
          "type": "uint256"
        },
        {
          "internalType": "string",
          "name": "city",
          "type": "string"
        },
        {
          "internalType": "string",
          "name": "aadharNumber",
          "type": "string"
        },
        {
          "internalType": "string",
          "name": "panNumber",
          "type": "string"
        },
        {
          "internalType": "string",
          "name": "document",
          "type": "string"
        },
        {
          "internalType": "string",
          "name": "email",
          "type": "string"
        }
      ],
      "payable": false,
      "stateMutability": "view",
      "type": "function"
    },
    {
      "constant": true,
      "inputs": [
        {
          "internalType": "address",
          "name": "",
          "type": "address"
        }
      ],
      "name": "UserRejection",
      "outputs": [
        {
          "internalType": "bool",
          "name": "",
          "type": "bool"
        }
      ],
      "payable": false,
      "stateMutability": "view",
      "type": "function"
    },
    {
      "constant": true,
      "inputs": [
        {
          "internalType": "address",
          "name": "",
          "type": "address"
        }
      ],
      "name": "UserVerification",
      "outputs": [
        {
          "internalType": "bool",
          "name": "",
          "type": "bool"
        }
      ],
      "payable": false,
      "stateMutability": "view",
      "type": "function"
    },
    {
      "constant": true,
      "inputs": [],
      "name": "inspectorsCount",
      "outputs": [
        {
          "internalType": "uint256",
          "name": "",
          "type": "uint256"
        }
      ],
      "payable": false,
      "stateMutability": "view",
      "type": "function"
    },
    {
      "constant": true,
      "inputs": [
        {
          "internalType": "uint256",
          "name": "",
          "type": "uint256"
        }
      ],
      "name": "landIds",
      "outputs": [
        {
          "internalType": "uint256",
          "name": "",
          "type": "uint256"
        }
      ],
      "payable": false,
      "stateMutability": "view",
      "type": "function"
    },
    {
      "constant": true,
      "inputs": [
        {
          "internalType": "uint256",
          "name": "",
          "type": "uint256"
        }
      ],
      "name": "lands",
      "outputs": [
        {
          "internalType": "uint256",
          "name": "id",
          "type": "uint256"
        },
        {
          "internalType": "uint256",
          "name": "area",
          "type": "uint256"
        },
        {
          "internalType": "string",
          "name": "city",
          "type": "string"
        },
        {
          "internalType": "string",
          "name": "state",
          "type": "string"
        },
        {
          "internalType": "uint256",
          "name": "landPrice",
          "type": "uint256"
        },
        {
          "internalType": "uint256",
          "name": "propertyPID",
          "type": "uint256"
        },
        {
          "internalType": "uint256",
          "name": "physicalSurveyNumber",
          "type": "uint256"
        },
        {
          "internalType": "string",
          "name": "ipfsHash",
          "type": "string"
        },
        {
          "internalType": "string",
          "name": "document",
          "type": "string"
        },
        {
          "internalType": "address",
          "name": "landOwner",
          "type": "address"
        },
        {
          "internalType": "bool",
          "name": "isLandForSale",
          "type": "bool"
        }
      ],
      "payable": false,
      "stateMutability": "view",
      "type": "function"
    },
    {
      "constant": true,
      "inputs": [],
      "name": "landsCount",
      "outputs": [
        {
          "internalType": "uint256",
          "name": "",
          "type": "uint256"
        }
      ],
      "payable": false,
      "stateMutability": "view",
      "type": "function"
    },
    {
      "constant": true,
      "inputs": [],
      "name": "requestsCount",
      "outputs": [
        {
          "internalType": "uint256",
          "name": "",
          "type": "uint256"
        }
      ],
      "payable": false,
      "stateMutability": "view",
      "type": "function"
    },
    {
      "constant": true,
      "inputs": [
        {
          "internalType": "address",
          "name": "",
          "type": "address"
        },
        {
          "internalType": "uint256",
          "name": "",
          "type": "uint256"
        }
      ],
      "name": "userOwnedLands",
      "outputs": [
        {
          "internalType": "uint256",
          "name": "",
          "type": "uint256"
        }
      ],
      "payable": false,
      "stateMutability": "view",
      "type": "function"
    },
    {
      "constant": true,
      "inputs": [
        {
          "internalType": "uint256",
          "name": "",
          "type": "uint256"
        }
      ],
      "name": "users",
      "outputs": [
        {
          "internalType": "address",
          "name": "",
          "type": "address"
        }
      ],
      "payable": false,
      "stateMutability": "view",
      "type": "function"
    },
    {
      "constant": true,
      "inputs": [],
      "name": "usersCount",
      "outputs": [
        {
          "internalType": "uint256",
          "name": "",
          "type": "uint256"
        }
      ],
      "payable": false,
      "stateMutability": "view",
      "type": "function"
    },
    {
      "constant": false,
      "inputs": [
        {
          "internalType": "uint256",
          "name": "_area",
          "type": "uint256"
        },
        {
          "internalType": "string",
          "name": "_city",
          "type": "string"
        },
        {
          "internalType": "string",
          "name": "_state",
          "type": "string"
        },
        {
          "internalType": "uint256",
          "name": "_landPrice",
          "type": "uint256"
        },
        {
          "internalType": "uint256",
          "name": "_propertyPID",
          "type": "uint256"
        },
        {
          "internalType": "uint256",
          "name": "_surveyNum",
          "type": "uint256"
        },
        {
          "internalType": "string",
          "name": "_ipfsHash",
          "type": "string"
        },
        {
          "internalType": "string",
          "name": "_document",
          "type": "string"
        }
      ],
      "name": "addLand",
      "outputs": [],
      "payable": false,
      "stateMutability": "nonpayable",
      "type": "function"
    },
    {
      "constant": false,
      "inputs": [
        {
          "internalType": "uint256",
          "name": "_landId",
          "type": "uint256"
        }
      ],
      "name": "makeLandForSale",
      "outputs": [],
      "payable": false,
      "stateMutability": "nonpayable",
      "type": "function"
    },
    {
      "constant": true,
      "inputs": [
        {
          "internalType": "uint256",
          "name": "_landId",
          "type": "uint256"
        }
      ],
      "name": "isLandForSale",
      "outputs": [
        {
          "internalType": "bool",
          "name": "",
          "type": "bool"
        }
      ],
      "payable": false,
      "stateMutability": "view",
      "type": "function"
    },
    {
      "constant": true,
      "inputs": [],
      "name": "getAllLandIds",
      "outputs": [
        {
          "internalType": "uint256[]",
          "name": "",
          "type": "uint256[]"
        }
      ],
      "payable": false,
      "stateMutability": "view",
      "type": "function"
    },
    {
      "constant": false,
      "inputs": [
        {
          "internalType": "string",
          "name": "_name",
          "type": "string"
        },
        {
          "internalType": "uint256",
          "name": "_age",
          "type": "uint256"
        },
        {
          "internalType": "string",
          "name": "_city",
          "type": "string"
        },
        {
          "internalType": "string",
          "name": "_aadharNumber",
          "type": "string"
        },
        {
          "internalType": "string",
          "name": "_panNumber",
          "type": "string"
        },
        {
          "internalType": "string",
          "name": "_document",
          "type": "string"
        },
        {
          "internalType": "string",
          "name": "_email",
          "type": "string"
        }
      ],
      "name": "registerUser",
      "outputs": [],
      "payable": false,
      "stateMutability": "nonpayable",
      "type": "function"
    },
    {
      "constant": false,
      "inputs": [
        {
          "internalType": "address",
          "name": "_sellerId",
          "type": "address"
        },
        {
          "internalType": "uint256",
          "name": "_landId",
          "type": "uint256"
        }
      ],
      "name": "requestLand",
      "outputs": [],
      "payable": false,
      "stateMutability": "nonpayable",
      "type": "function"
    },
    {
      "constant": false,
      "inputs": [
        {
          "internalType": "uint256",
          "name": "_reqId",
          "type": "uint256"
        }
      ],
      "name": "approveRequest",
      "outputs": [],
      "payable": false,
      "stateMutability": "nonpayable",
      "type": "function"
    },
    {
      "constant": false,
      "inputs": [
        {
          "internalType": "uint256",
          "name": "_reqId",
          "type": "uint256"
        }
      ],
      "name": "rejectRequest",
      "outputs": [],
      "payable": false,
      "stateMutability": "nonpayable",
      "type": "function"
    },
    {
      "constant": false,
      "inputs": [
        {
          "internalType": "address",
          "name": "_userId",
          "type": "address"
        }
      ],
      "name": "verifyUser",
      "outputs": [],
      "payable": false,
      "stateMutability": "nonpayable",
      "type": "function"
    },
    {
      "constant": false,
      "inputs": [
        {
          "internalType": "address",
          "name": "_userId",
          "type": "address"
        }
      ],
      "name": "rejectUser",
      "outputs": [],
      "payable": false,
      "stateMutability": "nonpayable",
      "type": "function"
    },
    {
      "constant": false,
      "inputs": [
        {
          "internalType": "uint256",
          "name": "_landId",
          "type": "uint256"
        }
      ],
      "name": "verifyLand",
      "outputs": [],
      "payable": false,
      "stateMutability": "nonpayable",
      "type": "function"
    },
    {
      "constant": true,
      "inputs": [
        {
          "internalType": "uint256",
          "name": "_id",
          "type": "uint256"
        }
      ],
      "name": "isLandVerified",
      "outputs": [
        {
          "internalType": "bool",
          "name": "",
          "type": "bool"
        }
      ],
      "payable": false,
      "stateMutability": "view",
      "type": "function"
    },
    {
      "constant": true,
      "inputs": [
        {
          "internalType": "address",
          "name": "_id",
          "type": "address"
        }
      ],
      "name": "isVerified",
      "outputs": [
        {
          "internalType": "bool",
          "name": "",
          "type": "bool"
        }
      ],
      "payable": false,
      "stateMutability": "view",
      "type": "function"
    },
    {
      "constant": true,
      "inputs": [
        {
          "internalType": "address",
          "name": "_id",
          "type": "address"
        }
      ],
      "name": "isRejected",
      "outputs": [
        {
          "internalType": "bool",
          "name": "",
          "type": "bool"
        }
      ],
      "payable": false,
      "stateMutability": "view",
      "type": "function"
    },
    {
      "constant": true,
      "inputs": [
        {
          "internalType": "address",
          "name": "_id",
          "type": "address"
        }
      ],
      "name": "isUser",
      "outputs": [
        {
          "internalType": "bool",
          "name": "",
          "type": "bool"
        }
      ],
      "payable": false,
      "stateMutability": "view",
      "type": "function"
    },
    {
      "constant": true,
      "inputs": [
        {
          "internalType": "address",
          "name": "_id",
          "type": "address"
        }
      ],
      "name": "isLandInspector",
      "outputs": [
        {
          "internalType": "bool",
          "name": "",
          "type": "bool"
        }
      ],
      "payable": false,
      "stateMutability": "view",
      "type": "function"
    },
    {
      "constant": true,
      "inputs": [
        {
          "internalType": "address",
          "name": "_id",
          "type": "address"
        }
      ],
      "name": "isRegistered",
      "outputs": [
        {
          "internalType": "bool",
          "name": "",
          "type": "bool"
        }
      ],
      "payable": false,
      "stateMutability": "view",
      "type": "function"
    },
    {
      "constant": true,
      "inputs": [],
      "name": "getLandsCount",
      "outputs": [
        {
          "internalType": "uint256",
          "name": "",
          "type": "uint256"
        }
      ],
      "payable": false,
      "stateMutability": "view",
      "type": "function"
    },
    {
      "constant": true,
      "inputs": [],
      "name": "getUsersCount",
      "outputs": [
        {
          "internalType": "uint256",
          "name": "",
          "type": "uint256"
        }
      ],
      "payable": false,
      "stateMutability": "view",
      "type": "function"
    },
    {
      "constant": true,
      "inputs": [],
      "name": "getUser",
      "outputs": [
        {
          "internalType": "address[]",
          "name": "",
          "type": "address[]"
        }
      ],
      "payable": false,
      "stateMutability": "view",
      "type": "function"
    },
    {
      "constant": true,
      "inputs": [
        {
          "internalType": "address",
          "name": "user",
          "type": "address"
        }
      ],
      "name": "getUserOwnedLands",
      "outputs": [
        {
          "internalType": "uint256[]",
          "name": "",
          "type": "uint256[]"
        }
      ],
      "payable": false,
      "stateMutability": "view",
      "type": "function"
    },
    {
      "constant": true,
      "inputs": [
        {
          "internalType": "uint256",
          "name": "landId",
          "type": "uint256"
        }
      ],
      "name": "getLandInfo",
      "outputs": [
        {
          "components": [
            {
              "internalType": "uint256",
              "name": "id",
              "type": "uint256"
            },
            {
              "internalType": "uint256",
              "name": "area",
              "type": "uint256"
            },
            {
              "internalType": "string",
              "name": "city",
              "type": "string"
            },
            {
              "internalType": "string",
              "name": "state",
              "type": "string"
            },
            {
              "internalType": "uint256",
              "name": "landPrice",
              "type": "uint256"
            },
            {
              "internalType": "uint256",
              "name": "propertyPID",
              "type": "uint256"
            },
            {
              "internalType": "uint256",
              "name": "physicalSurveyNumber",
              "type": "uint256"
            },
            {
              "internalType": "string",
              "name": "ipfsHash",
              "type": "string"
            },
            {
              "internalType": "string",
              "name": "document",
              "type": "string"
            },
            {
              "internalType": "address",
              "name": "landOwner",
              "type": "address"
            },
            {
              "internalType": "bool",
              "name": "isLandForSale",
              "type": "bool"
            }
          ],
          "internalType": "struct Land.Landreg",
          "name": "",
          "type": "tuple"
        }
      ],
      "payable": false,
      "stateMutability": "view",
      "type": "function"
    },
    {
      "constant": true,
      "inputs": [
        {
          "internalType": "address",
          "name": "i",
          "type": "address"
        }
      ],
      "name": "getBuyerDetails",
      "outputs": [
        {
          "internalType": "string",
          "name": "",
          "type": "string"
        },
        {
          "internalType": "string",
          "name": "",
          "type": "string"
        },
        {
          "internalType": "string",
          "name": "",
          "type": "string"
        },
        {
          "internalType": "string",
          "name": "",
          "type": "string"
        },
        {
          "internalType": "string",
          "name": "",
          "type": "string"
        },
        {
          "internalType": "uint256",
          "name": "",
          "type": "uint256"
        },
        {
          "internalType": "string",
          "name": "",
          "type": "string"
        }
      ],
      "payable": false,
      "stateMutability": "view",
      "type": "function"
    },
    {
      "constant": true,
      "inputs": [
        {
          "internalType": "uint256",
          "name": "i",
          "type": "uint256"
        }
      ],
      "name": "getRequestDetails",
      "outputs": [
        {
          "internalType": "address",
          "name": "",
          "type": "address"
        },
        {
          "internalType": "address",
          "name": "",
          "type": "address"
        },
        {
          "internalType": "uint256",
          "name": "",
          "type": "uint256"
        },
        {
          "internalType": "bool",
          "name": "",
          "type": "bool"
        }
      ],
      "payable": false,
      "stateMutability": "view",
      "type": "function"
    },
    {
      "constant": true,
      "inputs": [
        {
          "internalType": "address",
          "name": "_buyer",
          "type": "address"
        }
      ],
      "name": "getBuyerRequestDetails",
      "outputs": [
        {
          "internalType": "uint256[]",
          "name": "",
          "type": "uint256[]"
        },
        {
          "internalType": "address[]",
          "name": "",
          "type": "address[]"
        },
        {
          "internalType": "uint256[]",
          "name": "",
          "type": "uint256[]"
        },
        {
          "internalType": "bool[]",
          "name": "",
          "type": "bool[]"
        },
        {
          "internalType": "bool[]",
          "name": "",
          "type": "bool[]"
        }
      ],
      "payable": false,
      "stateMutability": "view",
      "type": "function"
    },
    {
      "constant": true,
      "inputs": [
        {
          "internalType": "address",
          "name": "_seller",
          "type": "address"
        }
      ],
      "name": "getSellerRequestDetails",
      "outputs": [
        {
          "internalType": "uint256[]",
          "name": "",
          "type": "uint256[]"
        },
        {
          "internalType": "address[]",
          "name": "",
          "type": "address[]"
        },
        {
          "internalType": "uint256[]",
          "name": "",
          "type": "uint256[]"
        },
        {
          "internalType": "bool[]",
          "name": "",
          "type": "bool[]"
        },
        {
          "internalType": "bool[]",
          "name": "",
          "type": "bool[]"
        }
      ],
      "payable": false,
      "stateMutability": "view",
      "type": "function"
    },
    {
      "constant": true,
      "inputs": [
        {
          "internalType": "uint256",
          "name": "_id",
          "type": "uint256"
        }
      ],
      "name": "isRequested",
      "outputs": [
        {
          "internalType": "bool",
          "name": "",
          "type": "bool"
        }
      ],
      "payable": false,
      "stateMutability": "view",
      "type": "function"
    },
    {
      "constant": true,
      "inputs": [
        {
          "internalType": "uint256",
          "name": "_id",
          "type": "uint256"
        }
      ],
      "name": "isApproved",
      "outputs": [
        {
          "internalType": "bool",
          "name": "",
          "type": "bool"
        }
      ],
      "payable": false,
      "stateMutability": "view",
      "type": "function"
    },
    {
      "constant": false,
      "inputs": [
        {
          "internalType": "uint256",
          "name": "_landId",
          "type": "uint256"
        },
        {
          "internalType": "address",
          "name": "_newOwner",
          "type": "address"
        }
      ],
      "name": "LandOwnershipTransfer",
      "outputs": [],
      "payable": false,
      "stateMutability": "nonpayable",
      "type": "function"
    },
    {
      "constant": true,
      "inputs": [
        {
          "internalType": "uint256",
          "name": "_landId",
          "type": "uint256"
        }
      ],
      "name": "isPaid",
      "outputs": [
        {
          "internalType": "bool",
          "name": "",
          "type": "bool"
        }
      ],
      "payable": false,
      "stateMutability": "view",
      "type": "function"
    },
    {
      "constant": false,
      "inputs": [
        {
          "internalType": "address payable",
          "name": "_receiver",
          "type": "address"
        },
        {
          "internalType": "uint256",
          "name": "_landId",
          "type": "uint256"
        },
        {
          "internalType": "uint256",
          "name": "_landPrice",
          "type": "uint256"
        }
      ],
      "name": "payment",
      "outputs": [],
      "payable": true,
      "stateMutability": "payable",
      "type": "function"
    }
  ],
  "bytecode": "0x60806040523480156200001157600080fd5b50600e8054600160a060020a03191633178155604080518082018252600b81527f496e73706563746f72203100000000000000000000000000000000000000000060208083019190915282518084019093529282527f54656873696c204d616e6167657200000000000000000000000000000000000092820192909252620000a69190602d90640100000000620000ac810204565b620001db565b60118054600190810191829055604080516080810182528381526020808201888152828401889052606083018790526000958652600282529290942081518155915180519194929362000106939085019291019062000136565b5060408201516002820155606082015180516200012e91600384019160209091019062000136565b505050505050565b828054600181600116156101000203166002900490600052602060002090601f016020900481019282601f106200017957805160ff1916838001178555620001a9565b82800160010185558215620001a9579182015b82811115620001a95782518255916020019190600101906200018c565b50620001b7929150620001bb565b5090565b620001d891905b80821115620001b75760008155600101620001c2565b90565b61392a80620001eb6000396000f3fe60806040526004361061035c576000357c010000000000000000000000000000000000000000000000000000000090048063941e2426116101cd578063d61ff68c11610109578063e530c400116100b2578063f3f0c2181161008c578063f3f0c218146109d5578063f58f85b5146109f5578063f9c43bdf14610a15578063fbfa4b7f14610a355761035c565b8063e530c40014610965578063edfbe24714610985578063f34d4c63146109a55761035c565b8063def936c3116100e3578063def936c3146108de578063e165af871461090e578063e261f1e51461092e5761035c565b8063d61ff68c14610875578063d7d1bbdb146108a9578063d7dee192146108c95761035c565b8063b9209e3311610176578063c3c5a54711610150578063c3c5a547146107f5578063c7751bab14610815578063c9bf1f9314610835578063cd392a83146108555761035c565b8063b9209e3314610795578063b9dfbbba146107b5578063bed403c7146107d55761035c565b8063a4a1e263116101a7578063a4a1e2631461072f578063ac8afa8f14610744578063b0a5dcd3146107645761035c565b8063941e2426146106e75780639b91293b146106fc5780639dc1bfa91461070f5761035c565b80634d8131201161029c5780636f6f9bef11610245578063832880e71161021f578063832880e714610665578063835465011461068757806389d21354146106a7578063903a9451146106c75761035c565b80636f6f9bef146105e75780637910867b146106145780637f01f435146106345761035c565b806368cfe6ee1161027657806368cfe6ee1461057f5780636ba13a82146105b25780636cbf6cf8146105c75761035c565b80634d8131201461051f5780634daa9dae1461053f5780634dc928851461055f5761035c565b80632d7788db116103095780634209fff1116102e35780634209fff11461049257806348a46bd3146104b25780634ae1851b146104d25780634d058d5a146104ff5761035c565b80632d7788db1461043057806332f2bb1414610452578063365b98b2146104725761035c565b80631a07f76e1161033a5780631a07f76e146103db5780631c9afd0f146103fb57806321ed6431146104105761035c565b8063155fec721461036157806316d9d66614610397578063170f3909146103b9575b600080fd5b34801561036d57600080fd5b5061038161037c366004612da0565b610a4a565b60405161038e919061356d565b60405180910390f35b3480156103a357600080fd5b506103ac610a5f565b60405161038e919061369b565b3480156103c557600080fd5b506103ce610a66565b60405161038e91906133de565b3480156103e757600080fd5b506103816103f6366004612da0565b610a75565b34801561040757600080fd5b506103ac610a8a565b34801561041c57600080fd5b5061038161042b366004612bc8565b610a90565b34801561043c57600080fd5b5061045061044b366004612da0565b610aa5565b005b34801561045e57600080fd5b5061038161046d366004612bc8565b610b09565b34801561047e57600080fd5b506103ce61048d366004612da0565b610b1e565b34801561049e57600080fd5b506103816104ad366004612bc8565b610b45565b3480156104be57600080fd5b506103816104cd366004612bc8565b610b63565b3480156104de57600080fd5b506104f26104ed366004612bc8565b610b81565b60405161038e91906134f0565b34801561050b57600080fd5b506103ac61051a366004612c3b565b610bed565b34801561052b57600080fd5b5061045061053a366004612bc8565b610c1b565b34801561054b57600080fd5b5061038161055a366004612da0565b610ca6565b34801561056b57600080fd5b5061045061057a366004612bc8565b610cbb565b34801561058b57600080fd5b5061059f61059a366004612bc8565b610d3b565b60405161038e979695949392919061357b565b3480156105be57600080fd5b506103ac6110ec565b3480156105d357600080fd5b506103816105e2366004612da0565b6110f2565b3480156105f357600080fd5b50610607610602366004612da0565b611107565b60405161038e919061368a565b34801561062057600080fd5b5061038161062f366004612da0565b6113ee565b34801561064057600080fd5b5061065461064f366004612bc8565b611403565b60405161038e959493929190613501565b34801561067157600080fd5b5061067a611667565b60405161038e91906134d8565b34801561069357600080fd5b506103816106a2366004612da0565b6116c9565b3480156106b357600080fd5b506103816106c2366004612da0565b6116de565b3480156106d357600080fd5b506103ac6106e2366004612da0565b6116f3565b3480156106f357600080fd5b506103ac611711565b61045061070a366004612bee565b611717565b34801561071b57600080fd5b506103ce61072a366004612da0565b611787565b34801561073b57600080fd5b506103ac6117a2565b34801561075057600080fd5b5061038161075f366004612bc8565b6117a8565b34801561077057600080fd5b5061078461077f366004612da0565b6117bd565b60405161038e9594939291906136a9565b3480156107a157600080fd5b506103816107b0366004612bc8565b6117fb565b3480156107c157600080fd5b506106546107d0366004612bc8565b611819565b3480156107e157600080fd5b506104506107f0366004612dbe565b611a5c565b34801561080157600080fd5b50610381610810366004612bc8565b611aa9565b34801561082157600080fd5b50610381610830366004612da0565b611ac7565b34801561084157600080fd5b50610450610850366004612da0565b611af7565b34801561086157600080fd5b50610381610870366004612da0565b611ba7565b34801561088157600080fd5b50610895610890366004612bc8565b611bbc565b60405161038e989796959493929190613438565b3480156108b557600080fd5b506104506108c4366004612da0565b611f48565b3480156108d557600080fd5b506104f2611fb9565b3480156108ea57600080fd5b506108fe6108f9366004612da0565b612010565b60405161038e94939291906136f5565b34801561091a57600080fd5b50610381610929366004612bc8565b61214d565b34801561093a57600080fd5b5061094e610949366004612da0565b612161565b60405161038e9b9a99989796959493929190613736565b34801561097157600080fd5b50610450610980366004612dee565b6123fb565b34801561099157600080fd5b506104506109a0366004612c75565b612641565b3480156109b157600080fd5b506109c56109c0366004612da0565b61285e565b60405161038e94939291906133fa565b3480156109e157600080fd5b506104506109f0366004612c3b565b6128a0565b348015610a0157600080fd5b50610381610a10366004612bc8565b6129f8565b348015610a2157600080fd5b50610450610a30366004612da0565b612a0d565b348015610a4157600080fd5b506103ac612a55565b6000908152600c602052604090205460ff1690565b6010545b90565b600e54600160a060020a031681565b600d6020526000908152604090205460ff1681565b60105481565b60076020526000908152604090205460ff1681565b600081815260046020526040902060010154600160a060020a03163314610aea5760405160e560020a62461bcd028152600401610ae19061363a565b60405180910390fd5b600090815260046020819052604090912001805460ff19166001179055565b60066020526000908152604090205460ff1681565b600f8181548110610b2b57fe5b600091825260209091200154600160a060020a0316905081565b600160a060020a031660009081526006602052604090205460ff1690565b600160a060020a031660009081526008602052604090205460ff1690565b600160a060020a038116600090815260016020908152604091829020805483518184028101840190945280845260609392830182828015610be157602002820191906000526020600020905b815481526020019060010190808311610bcd575b50505050509050919050565b60016020528160005260406000208181548110610c0657fe5b90600052602060002001600091509150505481565b600e54600160a060020a03163314610c485760405160e560020a62461bcd028152600401610ae19061364a565b600160a060020a03811660009081526007602052604090819020805460ff19166001179055517f6a6455914f452787eb3985452aceedc1000fb545e394eb3b370e3d08958e0a5b90610c9b9083906133de565b60405180910390a150565b600c6020526000908152604090205460ff1681565b600e54600160a060020a03163314610ce85760405160e560020a62461bcd028152600401610ae19061364a565b600160a060020a03811660009081526008602052604090819020805460ff19166001179055517faf77f8960cf590e245ec8b6d41c193a5dcacad8986ae4eb57ac9e5be7b6af03190610c9b9083906133de565b600160a060020a03811660009081526003602081815260408084206002808201546001808401805486519281161561010002600019011693909304601f81018790048702820187019095528481526060978897889788978897939688969095938501946005810194600682019460078301946004909301928991830182828015610e065780601f10610ddb57610100808354040283529160200191610e06565b820191906000526020600020905b815481529060010190602001808311610de957829003601f168201915b5050895460408051602060026001851615610100026000190190941693909304601f8101849004840282018401909252818152959c508b945092508401905082828015610e945780601f10610e6957610100808354040283529160200191610e94565b820191906000526020600020905b815481529060010190602001808311610e7757829003601f168201915b5050885460408051602060026001851615610100026000190190941693909304601f8101849004840282018401909252818152959b508a945092508401905082828015610f225780601f10610ef757610100808354040283529160200191610f22565b820191906000526020600020905b815481529060010190602001808311610f0557829003601f168201915b5050875460408051602060026001851615610100026000190190941693909304601f8101849004840282018401909252818152959a5089945092508401905082828015610fb05780601f10610f8557610100808354040283529160200191610fb0565b820191906000526020600020905b815481529060010190602001808311610f9357829003601f168201915b5050865460408051602060026001851615610100026000190190941693909304601f81018490048402820184019092528181529599508894509250840190508282801561103e5780601f106110135761010080835404028352916020019161103e565b820191906000526020600020905b81548152906001019060200180831161102157829003601f168201915b5050845460408051602060026001851615610100026000190190941693909304601f8101849004840282018401909252818152959850869450925084019050828280156110cc5780601f106110a1576101008083540402835291602001916110cc565b820191906000526020600020905b8154815290600101906020018083116110af57829003601f168201915b505050505090509650965096509650965096509650919395979092949650565b60125481565b60009081526009602052604090205460ff1690565b61110f612a5b565b6000828152602081815260409182902082516101608101845281548152600180830154828501526002808401805487519381161561010002600019011691909104601f810186900486028301860187528083529295939493860193919290918301828280156111bf5780601f10611194576101008083540402835291602001916111bf565b820191906000526020600020905b8154815290600101906020018083116111a257829003601f168201915b505050918352505060038201805460408051602060026001851615610100026000190190941693909304601f81018490048402820184019092528181529382019392918301828280156112535780601f1061122857610100808354040283529160200191611253565b820191906000526020600020905b81548152906001019060200180831161123657829003601f168201915b50505050508152602001600482015481526020016005820154815260200160068201548152602001600782018054600181600116156101000203166002900480601f0160208091040260200160405190810160405280929190818152602001828054600181600116156101000203166002900480156113135780601f106112e857610100808354040283529160200191611313565b820191906000526020600020905b8154815290600101906020018083116112f657829003601f168201915b505050918352505060088201805460408051602060026001851615610100026000190190941693909304601f81018490048402820184019092528181529382019392918301828280156113a75780601f1061137c576101008083540402835291602001916113a7565b820191906000526020600020905b81548152906001019060200180831161138a57829003601f168201915b505050918352505060099190910154600160a060020a038116602083015274010000000000000000000000000000000000000000900460ff16151560409091015292915050565b6000908152600b602052604090205460ff1690565b606080606080606080601354604051908082528060200260200182016040528015611438578160200160208202803883390190505b5090506060601354604051908082528060200260200182016040528015611469578160200160208202803883390190505b509050606060135460405190808252806020026020018201604052801561149a578160200160208202803883390190505b50905060606013546040519080825280602002602001820160405280156114cb578160200160208202803883390190505b50905060606013546040519080825280602002602001820160405280156114fc578160200160208202803883390190505b509050600060015b601354811161164657600081815260046020526040902060010154600160a060020a038e81169116141561163e57600081815260046020526040902054875188908490811061154f57fe5b6020908102919091018101919091526000828152600490915260409020600201548651600160a060020a039091169087908490811061158a57fe5b600160a060020a0390921660209283029190910182015260008281526004909152604090206003015485518690849081106115c157fe5b6020908102919091018101919091526000828152600b9091526040902054845160ff909116908590849081106115f357fe5b9115156020928302919091018201526000828152600491829052604090200154835160ff9091169084908490811061162757fe5b911515602092830291909101909101526001909101905b600101611504565b508086528085528084528083528152939a9299509097509550909350915050565b6060600f8054806020026020016040519081016040528092919081815260200182805480156116bf57602002820191906000526020600020905b8154600160a060020a031681526001909101906020018083116116a1575b5050505050905090565b60096020526000908152604090205460ff1681565b600b6020526000908152604090205460ff1681565b6014818154811061170057fe5b600091825260209091200154905081565b60115481565b8034101561173a5760405160e560020a62461bcd028152600401610ae19061365a565b6000828152600d6020526040808220805460ff1916600117905551600160a060020a0385169183156108fc02918491818181858888f1935050505015801561178157600080fd5b50505050565b600a60205260009081526040902054600160a060020a031681565b60125490565b60086020526000908152604090205460ff1681565b6004602081905260009182526040909120805460018201546002830154600384015493909401549193600160a060020a039182169391169160ff1685565b600160a060020a031660009081526007602052604090205460ff1690565b60608060608060608060135460405190808252806020026020018201604052801561184e578160200160208202803883390190505b509050606060135460405190808252806020026020018201604052801561187f578160200160208202803883390190505b50905060606013546040519080825280602002602001820160405280156118b0578160200160208202803883390190505b50905060606013546040519080825280602002602001820160405280156118e1578160200160208202803883390190505b5090506060601354604051908082528060200260200182016040528015611912578160200160208202803883390190505b509050600060015b601354811161164657600081815260046020526040902060020154600160a060020a038e811691161415611a5457600081815260046020526040902054875188908490811061196557fe5b6020908102919091018101919091526000828152600490915260409020600101548651600160a060020a03909116908790849081106119a057fe5b600160a060020a0390921660209283029190910182015260008281526004909152604090206003015485518690849081106119d757fe5b6020908102919091018101919091526000828152600b9091526040902054845160ff90911690859084908110611a0957fe5b9115156020928302919091018201526000828152600491829052604090200154835160ff90911690849084908110611a3d57fe5b911515602092830291909101909101526001909101905b60010161191a565b611a653361214d565b611a6e57600080fd5b6000918252600a6020526040909120805473ffffffffffffffffffffffffffffffffffffffff1916600160a060020a03909216919091179055565b600160a060020a031660009081526005602052604090205460ff1690565b60009081526020819052604090206009015474010000000000000000000000000000000000000000900460ff1690565b60008181526009602052604090205460ff16611b285760405160e560020a62461bcd028152600401610ae19061362a565b6000818152600a6020526040902054600160a060020a03163314611b615760405160e560020a62461bcd028152600401610ae19061367a565b6000908152602081905260409020600901805474ff0000000000000000000000000000000000000000191674010000000000000000000000000000000000000000179055565b6000908152600d602052604090205460ff1690565b6003602090815260009182526040918290208054600180830180548651600261010094831615949094026000190190911692909204601f8101869004860283018601909652858252600160a060020a03909216949293909290830182828015611c665780601f10611c3b57610100808354040283529160200191611c66565b820191906000526020600020905b815481529060010190602001808311611c4957829003601f168201915b505050506002838101546003850180546040805160206001841615610100026000190190931695909504601f810183900483028601830190915280855295969295929450909190830182828015611cfe5780601f10611cd357610100808354040283529160200191611cfe565b820191906000526020600020905b815481529060010190602001808311611ce157829003601f168201915b5050505060048301805460408051602060026001851615610100026000190190941693909304601f8101849004840282018401909252818152949594935090830182828015611d8e5780601f10611d6357610100808354040283529160200191611d8e565b820191906000526020600020905b815481529060010190602001808311611d7157829003601f168201915b5050505060058301805460408051602060026001851615610100026000190190941693909304601f8101849004840282018401909252818152949594935090830182828015611e1e5780601f10611df357610100808354040283529160200191611e1e565b820191906000526020600020905b815481529060010190602001808311611e0157829003601f168201915b5050505060068301805460408051602060026001851615610100026000190190941693909304601f8101849004840282018401909252818152949594935090830182828015611eae5780601f10611e8357610100808354040283529160200191611eae565b820191906000526020600020905b815481529060010190602001808311611e9157829003601f168201915b5050505060078301805460408051602060026001851615610100026000190190941693909304601f8101849004840282018401909252818152949594935090830182828015611f3e5780601f10611f1357610100808354040283529160200191611f3e565b820191906000526020600020905b815481529060010190602001808311611f2157829003601f168201915b5050505050905088565b611f5133610b45565b611f705760405160e560020a62461bcd028152600401610ae19061360a565b6000818152600b602052604090819020805460ff19166001179055517fbecbbd7543b68baaaf7e9c3fd12e4719f1f506f4253abef4a6573d0adf3a73ed90610c9b90839061369b565b606060148054806020026020016040519081016040528092919081815260200182805480156116bf57602002820191906000526020600020905b815481526020019060010190808311611ff3575050505050905090565b60026020818152600092835260409283902080546001808301805487519281161561010002600019011695909504601f81018590048502820185019096528581529094919390929091908301828280156120ab5780601f10612080576101008083540402835291602001916120ab565b820191906000526020600020905b81548152906001019060200180831161208e57829003601f168201915b505050506002838101546003850180546040805160206001841615610100026000190190931695909504601f8101839004830286018301909152808552959692959294509091908301828280156121435780601f1061211857610100808354040283529160200191612143565b820191906000526020600020905b81548152906001019060200180831161212657829003601f168201915b5050505050905084565b600e54600160a060020a0391821691161490565b6000602081815291815260409081902080546001808301546002808501805487519481161561010002600019011691909104601f810188900488028401880190965285835292959094919291908301828280156121ff5780601f106121d4576101008083540402835291602001916121ff565b820191906000526020600020905b8154815290600101906020018083116121e257829003601f168201915b5050505060038301805460408051602060026001851615610100026000190190941693909304601f810184900484028201840190925281815294959493509083018282801561228f5780601f106122645761010080835404028352916020019161228f565b820191906000526020600020905b81548152906001019060200180831161227257829003601f168201915b505050600484015460058501546006860154600787018054604080516020601f600260001961010060018816150201909516949094049384018190048102820181019092528281529899959894975092955090918301828280156123345780601f1061230957610100808354040283529160200191612334565b820191906000526020600020905b81548152906001019060200180831161231757829003601f168201915b5050505060088301805460408051602060026001851615610100026000190190941693909304601f81018490048402820184019092528181529495949350908301828280156123c45780601f10612399576101008083540402835291602001916123c4565b820191906000526020600020905b8154815290600101906020018083116123a757829003601f168201915b50505060099093015491925050600160a060020a0381169060ff74010000000000000000000000000000000000000000909104168b565b61240433610b45565b6124235760405160e560020a62461bcd028152600401610ae19061360a565b61242c336117fb565b61244b5760405160e560020a62461bcd028152600401610ae19061361a565b60108054600190810191829055604080516101608101825283815260208082018d81528284018d8152606084018d9052608084018c905260a084018b905260c084018a905260e08401899052610100840188905233610120850152600061014085018190529687528683529390952082518155945193850193909355905180519193926124e092600285019290910190612ac0565b50606082015180516124fc916003840191602090910190612ac0565b506080820151600482015560a0820151600582015560c0820151600682015560e08201518051612536916007840191602090910190612ac0565b506101008201518051612553916008840191602090910190612ac0565b5061012082015160099091018054610140909301511515740100000000000000000000000000000000000000000274ff000000000000000000000000000000000000000019600160a060020a0390931673ffffffffffffffffffffffffffffffffffffffff199485161792909216919091179055601080546000908152600a602090815260408083208054909516339081179095559382526001808252938220835481548087018355918452918320015590546014805493840181559091527fce6d7b5282bd9a3661ae061feed1dbda4e52ab073b1f9285be6e155d9c38d4ec909101555050505050505050565b3360009081526005602052604090205460ff16156126745760405160e560020a62461bcd028152600401610ae19061366a565b3360008181526005602090815260408083208054600160ff1991821681179092556006845282852080549091168217905560128054820190558151610100810183528581528084018d81528184018d9052606082018c9052608082018b905260a082018a905260c0820189905260e0820188905295855260038452919093208151815473ffffffffffffffffffffffffffffffffffffffff1916600160a060020a03909116178155935180519194936127339390850192910190612ac0565b506040820151600282015560608201518051612759916003840191602090910190612ac0565b5060808201518051612775916004840191602090910190612ac0565b5060a08201518051612791916005840191602090910190612ac0565b5060c082015180516127ad916006840191602090910190612ac0565b5060e082015180516127c9916007840191602090910190612ac0565b5050600f80546001810182556000919091527f8d1108e10bcb7c27dddfc02ed9d693a074039d026cf4ea4240b40f7d581ac80201805473ffffffffffffffffffffffffffffffffffffffff1916339081179091556040517f478f5152d8fc568db3f8de9fb402fd9d98a1a7541ecfe434e59cf574fbfc5524925061284d91906133ec565b60405180910390a150505050505050565b600090815260046020908152604080832060018101546002820154600390920154600b9094529190932054600160a060020a0391821694919093169260ff1690565b6128a933610b45565b6128c85760405160e560020a62461bcd028152600401610ae19061360a565b6128d1336117fb565b6128f05760405160e560020a62461bcd028152600401610ae19061361a565b6013805460019081018083556040805160a081018252828152600160a060020a03808816602080840191825233848601908152606085018a81526000608087018181529881526004808552888220975188559451878b01805491881673ffffffffffffffffffffffffffffffffffffffff199283161790559251600288018054919097169316929092179094559251600385015594519201805492151560ff1993841617905585548152600b845282812080548316905594548552600c9092529283902080549091169091179055517f226be41bcaf9760851410ade1cd6450b48b6b4d0adc46c61ea33b5a37b41bad7906129ec9084906133de565b60405180910390a15050565b60056020526000908152604090205460ff1681565b600e54600160a060020a03163314612a3a5760405160e560020a62461bcd028152600401610ae19061364a565b6000908152600960205260409020805460ff19166001179055565b60135481565b6040518061016001604052806000815260200160008152602001606081526020016060815260200160008152602001600081526020016000815260200160608152602001606081526020016000600160a060020a031681526020016000151581525090565b828054600181600116156101000203166002900490600052602060002090601f016020900481019282601f10612b0157805160ff1916838001178555612b2e565b82800160010185558215612b2e579182015b82811115612b2e578251825591602001919060010190612b13565b50612b3a929150612b3e565b5090565b610a6391905b80821115612b3a5760008155600101612b44565b8035612b63816138c7565b92915050565b600082601f830112612b7a57600080fd5b8135612b8d612b888261381d565b6137f6565b91508082526020830160208301858383011115612ba957600080fd5b612bb4838284613885565b50505092915050565b8035612b63816138de565b600060208284031215612bda57600080fd5b6000612be68484612b58565b949350505050565b600080600060608486031215612c0357600080fd5b6000612c0f8686612b58565b9350506020612c2086828701612bbd565b9250506040612c3186828701612bbd565b9150509250925092565b60008060408385031215612c4e57600080fd5b6000612c5a8585612b58565b9250506020612c6b85828601612bbd565b9150509250929050565b600080600080600080600060e0888a031215612c9057600080fd5b873567ffffffffffffffff811115612ca757600080fd5b612cb38a828b01612b69565b9750506020612cc48a828b01612bbd565b965050604088013567ffffffffffffffff811115612ce157600080fd5b612ced8a828b01612b69565b955050606088013567ffffffffffffffff811115612d0a57600080fd5b612d168a828b01612b69565b945050608088013567ffffffffffffffff811115612d3357600080fd5b612d3f8a828b01612b69565b93505060a088013567ffffffffffffffff811115612d5c57600080fd5b612d688a828b01612b69565b92505060c088013567ffffffffffffffff811115612d8557600080fd5b612d918a828b01612b69565b91505092959891949750929550565b600060208284031215612db257600080fd5b6000612be68484612bbd565b60008060408385031215612dd157600080fd5b6000612ddd8585612bbd565b9250506020612c6b85828601612b58565b600080600080600080600080610100898b031215612e0b57600080fd5b6000612e178b8b612bbd565b985050602089013567ffffffffffffffff811115612e3457600080fd5b612e408b828c01612b69565b975050604089013567ffffffffffffffff811115612e5d57600080fd5b612e698b828c01612b69565b9650506060612e7a8b828c01612bbd565b9550506080612e8b8b828c01612bbd565b94505060a0612e9c8b828c01612bbd565b93505060c089013567ffffffffffffffff811115612eb957600080fd5b612ec58b828c01612b69565b92505060e089013567ffffffffffffffff811115612ee257600080fd5b612eee8b828c01612b69565b9150509295985092959890939650565b6000612f0a8383612f39565b505060200190565b6000612f0a8383613037565b6000612f0a83836133d5565b612f3381613874565b82525050565b612f3381613858565b6000612f4d8261384b565b612f57818561384f565b9350612f6283613845565b8060005b83811015612f90578151612f7a8882612efe565b9750612f8583613845565b925050600101612f66565b509495945050505050565b6000612fa68261384b565b612fb0818561384f565b9350612fbb83613845565b8060005b83811015612f90578151612fd38882612f12565b9750612fde83613845565b925050600101612fbf565b6000612ff48261384b565b612ffe818561384f565b935061300983613845565b8060005b83811015612f905781516130218882612f1e565b975061302c83613845565b92505060010161300d565b612f3381613863565b600061304b8261384b565b613055818561384f565b9350613065818560208601613891565b61306e816138bd565b9093019392505050565b6000613085601f8361384f565b7f43616c6c6572206973206e6f7420612072656769737465726564205573657200815260200192915050565b60006130be60148361384f565b7f55736572206973206e6f74207665726966696564000000000000000000000000815260200192915050565b60006130f7602b8361384f565b7f4c616e64206d75737420626520766572696669656420746f206265207075742081527f757020666f722073616c65000000000000000000000000000000000000000000602082015260400192915050565b600061315660268361384f565b7f4f6e6c79207468652073656c6c65722063616e2072656a65637420746865207281527f6571756573740000000000000000000000000000000000000000000000000000602082015260400192915050565b60006131b5602a8361384f565b7f4f6e6c79206c616e6420696e73706563746f722063616e2063616c6c2074686981527f732066756e6374696f6e00000000000000000000000000000000000000000000602082015260400192915050565b6000613214601b8361384f565b7f496e73756666696369656e74207061796d656e7420616d6f756e740000000000815260200192915050565b600061324d601a8361384f565b7f5573657220697320616c72656164792072656769737465726564000000000000815260200192915050565b600061328660308361384f565b7f4f6e6c7920746865206c616e64206f776e65722063616e20707574207468652081527f6c616e6420757020666f722073616c6500000000000000000000000000000000602082015260400192915050565b80516000906101608401906132ed85826133d5565b50602083015161330060208601826133d5565b50604083015184820360408601526133188282613040565b915050606083015184820360608601526133328282613040565b915050608083015161334760808601826133d5565b5060a083015161335a60a08601826133d5565b5060c083015161336d60c08601826133d5565b5060e083015184820360e08601526133858282613040565b9150506101008301518482036101008601526133a18282613040565b9150506101208301516133b8610120860182612f39565b506101408301516133cd610140860182613037565b509392505050565b612f3381610a63565b60208101612b638284612f39565b60208101612b638284612f2a565b608081016134088287612f39565b6134156020830186612f39565b61342260408301856133d5565b61342f6060830184613037565b95945050505050565b6101008101613447828b612f39565b8181036020830152613459818a613040565b905061346860408301896133d5565b818103606083015261347a8188613040565b9050818103608083015261348e8187613040565b905081810360a08301526134a28186613040565b905081810360c08301526134b68185613040565b905081810360e08301526134ca8184613040565b9a9950505050505050505050565b602080825281016134e98184612f42565b9392505050565b602080825281016134e98184612fe9565b60a080825281016135128188612fe9565b905081810360208301526135268187612f42565b9050818103604083015261353a8186612fe9565b9050818103606083015261354e8185612f9b565b905081810360808301526135628184612f9b565b979650505050505050565b60208101612b638284613037565b60e0808252810161358c818a613040565b905081810360208301526135a08189613040565b905081810360408301526135b48188613040565b905081810360608301526135c88187613040565b905081810360808301526135dc8186613040565b90506135eb60a08301856133d5565b81810360c08301526135fd8184613040565b9998505050505050505050565b60208082528101612b6381613078565b60208082528101612b63816130b1565b60208082528101612b63816130ea565b60208082528101612b6381613149565b60208082528101612b63816131a8565b60208082528101612b6381613207565b60208082528101612b6381613240565b60208082528101612b6381613279565b602080825281016134e981846132d8565b60208101612b6382846133d5565b60a081016136b782886133d5565b6136c46020830187612f39565b6136d16040830186612f39565b6136de60608301856133d5565b6136eb6080830184613037565b9695505050505050565b6080810161370382876133d5565b81810360208301526137158186613040565b905061372460408301856133d5565b81810360608301526136eb8184613040565b6101608101613745828e6133d5565b613752602083018d6133d5565b8181036040830152613764818c613040565b90508181036060830152613778818b613040565b9050613787608083018a6133d5565b61379460a08301896133d5565b6137a160c08301886133d5565b81810360e08301526137b38187613040565b90508181036101008301526137c88186613040565b90506137d8610120830185612f39565b6137e6610140830184613037565b9c9b505050505050505050505050565b60405181810167ffffffffffffffff8111828210171561381557600080fd5b604052919050565b600067ffffffffffffffff82111561383457600080fd5b506020601f91909101601f19160190565b60200190565b5190565b90815260200190565b6000612b6382613868565b151590565b600160a060020a031690565b6000612b63826000612b6382613858565b82818337506000910152565b60005b838110156138ac578181015183820152602001613894565b838111156117815750506000910152565b601f01601f191690565b6138d081613858565b81146138db57600080fd5b50565b6138d081610a6356fea365627a7a72315820b341452572670ba19c071a426e7344379048b98eaabb5cf95efa807abfbb96c86c6578706572696d656e74616cf564736f6c63430005100040",
  "source": "// SPDX-License-Identifier: GPL-3.0\r\n\r\npragma solidity >=0.5.2;\r\npragma experimental ABIEncoderV2;\r\n\r\ncontract Land {\r\n    struct Landreg {\r\n        uint id;\r\n        uint area;\r\n        string city;\r\n        string state;\r\n        uint landPrice;\r\n        uint propertyPID;\r\n        uint physicalSurveyNumber;\r\n        string ipfsHash;\r\n        string document;\r\n        address landOwner;\r\n        bool isLandForSale;\r\n    }\r\n\r\n    struct User {\r\n        address id;\r\n        string name;\r\n        uint age;\r\n        string city;\r\n        string aadharNumber;\r\n        string panNumber;\r\n        string document;\r\n        string email;\r\n    }\r\n\r\n    struct LandInspector {\r\n        uint id;\r\n        string name;\r\n        uint age;\r\n        string designation;\r\n    }\r\n\r\n    struct LandRequest {\r\n        uint reqId;\r\n        address sellerId;\r\n        address buyerId;\r\n        uint landId;\r\n        bool isRejected;\r\n    }\r\n\r\n    mapping(uint => Landreg) public lands;\r\n    mapping(address => uint[]) public userOwnedLands;\r\n    mapping(uint => LandInspector) public InspectorMapping;\r\n    mapping(address => User) public UserMapping;\r\n    mapping(uint => LandRequest) public RequestsMapping;\r\n\r\n    mapping(address => bool) public RegisteredAddressMapping;\r\n    mapping(address => bool) public RegisteredUserMapping;\r\n    mapping(address => bool) public UserVerification;\r\n    mapping(address => bool) public UserRejection;\r\n    mapping(uint => bool) public LandVerification;\r\n    mapping(uint => address) public LandOwner;\r\n    mapping(uint => bool) public RequestStatus;\r\n    mapping(uint => bool) public RequestedLands;\r\n    mapping(uint => bool) public PaymentReceived;\r\n\r\n    address public Land_Inspector;\r\n    address[] public users;\r\n    uint public landsCount;\r\n    uint public inspectorsCount;\r\n    uint public usersCount;\r\n    uint public requestsCount;\r\n    uint[] public landIds;\r\n\r\n    event Registration(address _registrationId);\r\n    event LandRequested(address _sellerId);\r\n    event RequestApproved(uint _reqId);\r\n    event Verified(address _id);\r\n    event Rejected(address _id);\r\n\r\n    modifier onlyLandInspector() {\r\n        require(\r\n            msg.sender == Land_Inspector,\r\n            \"Only land inspector can call this function\"\r\n        );\r\n        _;\r\n    }\r\n    modifier onlyUser() {\r\n        require(isUser(msg.sender), \"Caller is not a registered User\");\r\n        _;\r\n    }\r\n\r\n    constructor() public {\r\n        Land_Inspector = msg.sender;\r\n        addLandInspector(\"Inspector 1\", 45, \"Tehsil Manager\");\r\n    }\r\n\r\n    function addLandInspector(\r\n        string memory _name,\r\n        uint _age,\r\n        string memory _designation\r\n    ) private {\r\n        inspectorsCount++;\r\n        InspectorMapping[inspectorsCount] = LandInspector(\r\n            inspectorsCount,\r\n            _name,\r\n            _age,\r\n            _designation\r\n        );\r\n    }\r\n\r\n    function addLand(\r\n        uint _area,\r\n        string memory _city,\r\n        string memory _state,\r\n        uint _landPrice,\r\n        uint _propertyPID,\r\n        uint _surveyNum,\r\n        string memory _ipfsHash,\r\n        string memory _document\r\n    ) public onlyUser {\r\n        require(isVerified(msg.sender), \"User is not verified\");\r\n\r\n        landsCount++;\r\n        lands[landsCount] = Landreg(\r\n            landsCount,\r\n            _area,\r\n            _city,\r\n            _state,\r\n            _landPrice,\r\n            _propertyPID,\r\n            _surveyNum,\r\n            _ipfsHash,\r\n            _document,\r\n            msg.sender,\r\n            false\r\n        );\r\n        LandOwner[landsCount] = msg.sender;\r\n        userOwnedLands[msg.sender].push(landsCount);\r\n        landIds.push(landsCount);\r\n    }\r\n\r\n    function makeLandForSale(uint _landId) public {\r\n        require(\r\n            LandVerification[_landId],\r\n            \"Land must be verified to be put up for sale\"\r\n        );\r\n        require(\r\n            LandOwner[_landId] == msg.sender,\r\n            \"Only the land owner can put the land up for sale\"\r\n        );\r\n\r\n        lands[_landId].isLandForSale = true;\r\n    }\r\n\r\n    function isLandForSale(uint _landId) public view returns (bool) {\r\n        return lands[_landId].isLandForSale;\r\n    }\r\n\r\n    function getAllLandIds() public view returns (uint[] memory) {\r\n        return landIds;\r\n    }\r\n\r\n    function registerUser(\r\n        string memory _name,\r\n        uint _age,\r\n        string memory _city,\r\n        string memory _aadharNumber,\r\n        string memory _panNumber,\r\n        string memory _document,\r\n        string memory _email\r\n    ) public {\r\n        require(\r\n            !RegisteredAddressMapping[msg.sender],\r\n            \"User is already registered\"\r\n        );\r\n\r\n        RegisteredAddressMapping[msg.sender] = true;\r\n        RegisteredUserMapping[msg.sender] = true;\r\n        usersCount++;\r\n        UserMapping[msg.sender] = User(\r\n            msg.sender,\r\n            _name,\r\n            _age,\r\n            _city,\r\n            _aadharNumber,\r\n            _panNumber,\r\n            _document,\r\n            _email\r\n        );\r\n        users.push(msg.sender);\r\n\r\n        emit Registration(msg.sender);\r\n    }\r\n\r\n    function requestLand(address _sellerId, uint _landId) public onlyUser {\r\n        require(isVerified(msg.sender), \"User is not verified\");\r\n\r\n        requestsCount++;\r\n        RequestsMapping[requestsCount] = LandRequest(\r\n            requestsCount,\r\n            _sellerId,\r\n            msg.sender,\r\n            _landId,\r\n            false\r\n        );\r\n        RequestStatus[requestsCount] = false;\r\n        RequestedLands[requestsCount] = true;\r\n\r\n        emit LandRequested(_sellerId);\r\n    }\r\n\r\n    function approveRequest(uint _reqId) public onlyUser {\r\n        RequestStatus[_reqId] = true;\r\n\r\n        emit RequestApproved(_reqId);\r\n    }\r\n\r\n    function rejectRequest(uint _reqId) public {\r\n        require(\r\n            RequestsMapping[_reqId].sellerId == msg.sender,\r\n            \"Only the seller can reject the request\"\r\n        );\r\n\r\n        RequestsMapping[_reqId].isRejected = true;\r\n    }\r\n\r\n    function verifyUser(address _userId) public onlyLandInspector {\r\n        UserVerification[_userId] = true;\r\n        emit Verified(_userId);\r\n    }\r\n\r\n    function rejectUser(address _userId) public onlyLandInspector {\r\n        UserRejection[_userId] = true;\r\n        emit Rejected(_userId);\r\n    }\r\n\r\n    function verifyLand(uint _landId) public onlyLandInspector {\r\n        LandVerification[_landId] = true;\r\n    }\r\n\r\n    function isLandVerified(uint _id) public view returns (bool) {\r\n        return LandVerification[_id];\r\n    }\r\n\r\n    function isVerified(address _id) public view returns (bool) {\r\n        return UserVerification[_id];\r\n    }\r\n\r\n    function isRejected(address _id) public view returns (bool) {\r\n        return UserRejection[_id];\r\n    }\r\n\r\n    function isUser(address _id) public view returns (bool) {\r\n        return RegisteredUserMapping[_id];\r\n    }\r\n\r\n    function isLandInspector(address _id) public view returns (bool) {\r\n        return Land_Inspector == _id;\r\n    }\r\n\r\n    function isRegistered(address _id) public view returns (bool) {\r\n        return RegisteredAddressMapping[_id];\r\n    }\r\n\r\n    function getLandsCount() public view returns (uint) {\r\n        return landsCount;\r\n    }\r\n\r\n    function getUsersCount() public view returns (uint) {\r\n        return usersCount;\r\n    }\r\n\r\n    function getUser() public view returns (address[] memory) {\r\n        return (users);\r\n    }\r\n\r\n    function getUserOwnedLands(\r\n        address user\r\n    ) public view returns (uint[] memory) {\r\n        return userOwnedLands[user];\r\n    }\r\n\r\n    function getLandInfo(uint landId) public view returns (Landreg memory) {\r\n        return lands[landId];\r\n    }\r\n\r\n    function getBuyerDetails(\r\n        address i\r\n    )\r\n        public\r\n        view\r\n        returns (\r\n            string memory,\r\n            string memory,\r\n            string memory,\r\n            string memory,\r\n            string memory,\r\n            uint,\r\n            string memory\r\n        )\r\n    {\r\n        return (\r\n            UserMapping[i].name,\r\n            UserMapping[i].city,\r\n            UserMapping[i].panNumber,\r\n            UserMapping[i].document,\r\n            UserMapping[i].email,\r\n            UserMapping[i].age,\r\n            UserMapping[i].aadharNumber\r\n        );\r\n    }\r\n\r\n    function getRequestDetails(\r\n        uint i\r\n    ) public view returns (address, address, uint, bool) {\r\n        return (\r\n            RequestsMapping[i].sellerId,\r\n            RequestsMapping[i].buyerId,\r\n            RequestsMapping[i].landId,\r\n            RequestStatus[i]\r\n        );\r\n    }\r\n\r\n    function getBuyerRequestDetails(\r\n        address _buyer\r\n    )\r\n        public\r\n        view\r\n        returns (\r\n            uint[] memory,\r\n            address[] memory,\r\n            uint[] memory,\r\n            bool[] memory,\r\n            bool[] memory\r\n        )\r\n    {\r\n        uint[] memory reqIds = new uint[](requestsCount);\r\n        address[] memory sellerIds = new address[](requestsCount);\r\n        uint[] memory landIds = new uint[](requestsCount);\r\n        bool[] memory statuses = new bool[](requestsCount);\r\n        bool[] memory rejections = new bool[](requestsCount);\r\n\r\n        uint index = 0;\r\n        for (uint i = 1; i <= requestsCount; i++) {\r\n            if (RequestsMapping[i].buyerId == _buyer) {\r\n                reqIds[index] = RequestsMapping[i].reqId;\r\n                sellerIds[index] = RequestsMapping[i].sellerId;\r\n                landIds[index] = RequestsMapping[i].landId;\r\n                statuses[index] = RequestStatus[i];\r\n                rejections[index] = RequestsMapping[i].isRejected;\r\n                index++;\r\n            }\r\n        }\r\n\r\n        assembly {\r\n            mstore(reqIds, index)\r\n            mstore(sellerIds, index)\r\n            mstore(landIds, index)\r\n            mstore(statuses, index)\r\n            mstore(rejections, index)\r\n        }\r\n\r\n        return (reqIds, sellerIds, landIds, statuses, rejections);\r\n    }\r\n\r\n    function getSellerRequestDetails(\r\n        address _seller\r\n    )\r\n        public\r\n        view\r\n        returns (\r\n            uint[] memory,\r\n            address[] memory,\r\n            uint[] memory,\r\n            bool[] memory,\r\n            bool[] memory\r\n        )\r\n    {\r\n        uint[] memory reqIds = new uint[](requestsCount);\r\n        address[] memory buyerIds = new address[](requestsCount);\r\n        uint[] memory landIds = new uint[](requestsCount);\r\n        bool[] memory statuses = new bool[](requestsCount);\r\n        bool[] memory rejections = new bool[](requestsCount);\r\n\r\n        uint index = 0;\r\n        for (uint i = 1; i <= requestsCount; i++) {\r\n            if (RequestsMapping[i].sellerId == _seller) {\r\n                reqIds[index] = RequestsMapping[i].reqId;\r\n                buyerIds[index] = RequestsMapping[i].buyerId;\r\n                landIds[index] = RequestsMapping[i].landId;\r\n                statuses[index] = RequestStatus[i];\r\n                rejections[index] = RequestsMapping[i].isRejected;\r\n                index++;\r\n            }\r\n        }\r\n\r\n        // Resize arrays to remove any unused slots\r\n        assembly {\r\n            mstore(reqIds, index)\r\n            mstore(buyerIds, index)\r\n            mstore(landIds, index)\r\n            mstore(statuses, index)\r\n            mstore(rejections, index)\r\n        }\r\n\r\n        return (reqIds, buyerIds, landIds, statuses, rejections);\r\n    }\r\n\r\n    function isRequested(uint _id) public view returns (bool) {\r\n        return RequestedLands[_id];\r\n    }\r\n\r\n    function isApproved(uint _id) public view returns (bool) {\r\n        return RequestStatus[_id];\r\n    }\r\n\r\n    function LandOwnershipTransfer(uint _landId, address _newOwner) public {\r\n        require(isLandInspector(msg.sender));\r\n\r\n        LandOwner[_landId] = _newOwner;\r\n    }\r\n\r\n    function isPaid(uint _landId) public view returns (bool) {\r\n        return PaymentReceived[_landId];\r\n    }\r\n\r\n    function payment(\r\n        address payable _receiver,\r\n        uint _landId,\r\n        uint _landPrice\r\n    ) public payable {\r\n        require(msg.value >= _landPrice, \"Insufficient payment amount\");\r\n\r\n        PaymentReceived[_landId] = true;\r\n        _receiver.transfer(_landPrice);\r\n    }\r\n}\r\n",
  "sourcePath": "C:\\College Projects\\blockchain-project\\contracts\\Land.sol",
  "compiler": {
    "name": "solc",
    "version": "0.5.16+commit.9c3226ce.Emscripten.clang"
  },
  "schemaVersion": "3.4.16",
  "updatedAt": "2024-04-12T21:08:25.140Z",
  "networkType": "ethereum",
  "devdoc": {
    "methods": {}
  },
  "userdoc": {
    "methods": {}
  }
}