{
  "contractName": "Land",
  "abi": [
    {
      "inputs": [],
      "payable": false,
      "stateMutability": "nonpayable",
      "type": "constructor"
    },
    {
      "anonymous": false,
      "inputs": [
        {
          "indexed": false,
          "internalType": "address",
          "name": "_sellerId",
          "type": "address"
        }
      ],
      "name": "LandRequested",
      "type": "event"
    },
    {
      "anonymous": false,
      "inputs": [
        {
          "indexed": false,
          "internalType": "address",
          "name": "_registrationId",
          "type": "address"
        }
      ],
      "name": "Registration",
      "type": "event"
    },
    {
      "anonymous": false,
      "inputs": [
        {
          "indexed": false,
          "internalType": "address",
          "name": "_id",
          "type": "address"
        }
      ],
      "name": "Rejected",
      "type": "event"
    },
    {
      "anonymous": false,
      "inputs": [
        {
          "indexed": false,
          "internalType": "uint256",
          "name": "_reqId",
          "type": "uint256"
        }
      ],
      "name": "RequestApproved",
      "type": "event"
    },
    {
      "anonymous": false,
      "inputs": [
        {
          "indexed": false,
          "internalType": "address",
          "name": "_id",
          "type": "address"
        }
      ],
      "name": "Verified",
      "type": "event"
    },
    {
      "constant": true,
      "inputs": [
        {
          "internalType": "uint256",
          "name": "",
          "type": "uint256"
        }
      ],
      "name": "InspectorMapping",
      "outputs": [
        {
          "internalType": "uint256",
          "name": "id",
          "type": "uint256"
        },
        {
          "internalType": "string",
          "name": "name",
          "type": "string"
        },
        {
          "internalType": "uint256",
          "name": "age",
          "type": "uint256"
        },
        {
          "internalType": "string",
          "name": "designation",
          "type": "string"
        }
      ],
      "payable": false,
      "stateMutability": "view",
      "type": "function"
    },
    {
      "constant": true,
      "inputs": [
        {
          "internalType": "uint256",
          "name": "",
          "type": "uint256"
        }
      ],
      "name": "LandOwner",
      "outputs": [
        {
          "internalType": "address",
          "name": "",
          "type": "address"
        }
      ],
      "payable": false,
      "stateMutability": "view",
      "type": "function"
    },
    {
      "constant": true,
      "inputs": [
        {
          "internalType": "uint256",
          "name": "",
          "type": "uint256"
        }
      ],
      "name": "LandVerification",
      "outputs": [
        {
          "internalType": "bool",
          "name": "",
          "type": "bool"
        }
      ],
      "payable": false,
      "stateMutability": "view",
      "type": "function"
    },
    {
      "constant": true,
      "inputs": [],
      "name": "Land_Inspector",
      "outputs": [
        {
          "internalType": "address",
          "name": "",
          "type": "address"
        }
      ],
      "payable": false,
      "stateMutability": "view",
      "type": "function"
    },
    {
      "constant": true,
      "inputs": [
        {
          "internalType": "uint256",
          "name": "",
          "type": "uint256"
        }
      ],
      "name": "PaymentReceived",
      "outputs": [
        {
          "internalType": "bool",
          "name": "",
          "type": "bool"
        }
      ],
      "payable": false,
      "stateMutability": "view",
      "type": "function"
    },
    {
      "constant": true,
      "inputs": [
        {
          "internalType": "address",
          "name": "",
          "type": "address"
        }
      ],
      "name": "RegisteredAddressMapping",
      "outputs": [
        {
          "internalType": "bool",
          "name": "",
          "type": "bool"
        }
      ],
      "payable": false,
      "stateMutability": "view",
      "type": "function"
    },
    {
      "constant": true,
      "inputs": [
        {
          "internalType": "address",
          "name": "",
          "type": "address"
        }
      ],
      "name": "RegisteredUserMapping",
      "outputs": [
        {
          "internalType": "bool",
          "name": "",
          "type": "bool"
        }
      ],
      "payable": false,
      "stateMutability": "view",
      "type": "function"
    },
    {
      "constant": true,
      "inputs": [
        {
          "internalType": "uint256",
          "name": "",
          "type": "uint256"
        }
      ],
      "name": "RequestStatus",
      "outputs": [
        {
          "internalType": "bool",
          "name": "",
          "type": "bool"
        }
      ],
      "payable": false,
      "stateMutability": "view",
      "type": "function"
    },
    {
      "constant": true,
      "inputs": [
        {
          "internalType": "uint256",
          "name": "",
          "type": "uint256"
        }
      ],
      "name": "RequestedLands",
      "outputs": [
        {
          "internalType": "bool",
          "name": "",
          "type": "bool"
        }
      ],
      "payable": false,
      "stateMutability": "view",
      "type": "function"
    },
    {
      "constant": true,
      "inputs": [
        {
          "internalType": "uint256",
          "name": "",
          "type": "uint256"
        }
      ],
      "name": "RequestsMapping",
      "outputs": [
        {
          "internalType": "uint256",
          "name": "reqId",
          "type": "uint256"
        },
        {
          "internalType": "address",
          "name": "sellerId",
          "type": "address"
        },
        {
          "internalType": "address",
          "name": "buyerId",
          "type": "address"
        },
        {
          "internalType": "uint256",
          "name": "landId",
          "type": "uint256"
        }
      ],
      "payable": false,
      "stateMutability": "view",
      "type": "function"
    },
    {
      "constant": true,
      "inputs": [
        {
          "internalType": "address",
          "name": "",
          "type": "address"
        }
      ],
      "name": "UserMapping",
      "outputs": [
        {
          "internalType": "address",
          "name": "id",
          "type": "address"
        },
        {
          "internalType": "string",
          "name": "name",
          "type": "string"
        },
        {
          "internalType": "uint256",
          "name": "age",
          "type": "uint256"
        },
        {
          "internalType": "string",
          "name": "city",
          "type": "string"
        },
        {
          "internalType": "string",
          "name": "aadharNumber",
          "type": "string"
        },
        {
          "internalType": "string",
          "name": "panNumber",
          "type": "string"
        },
        {
          "internalType": "string",
          "name": "document",
          "type": "string"
        },
        {
          "internalType": "string",
          "name": "email",
          "type": "string"
        }
      ],
      "payable": false,
      "stateMutability": "view",
      "type": "function"
    },
    {
      "constant": true,
      "inputs": [
        {
          "internalType": "address",
          "name": "",
          "type": "address"
        }
      ],
      "name": "UserRejection",
      "outputs": [
        {
          "internalType": "bool",
          "name": "",
          "type": "bool"
        }
      ],
      "payable": false,
      "stateMutability": "view",
      "type": "function"
    },
    {
      "constant": true,
      "inputs": [
        {
          "internalType": "address",
          "name": "",
          "type": "address"
        }
      ],
      "name": "UserVerification",
      "outputs": [
        {
          "internalType": "bool",
          "name": "",
          "type": "bool"
        }
      ],
      "payable": false,
      "stateMutability": "view",
      "type": "function"
    },
    {
      "constant": true,
      "inputs": [],
      "name": "inspectorsCount",
      "outputs": [
        {
          "internalType": "uint256",
          "name": "",
          "type": "uint256"
        }
      ],
      "payable": false,
      "stateMutability": "view",
      "type": "function"
    },
    {
      "constant": true,
      "inputs": [
        {
          "internalType": "uint256",
          "name": "",
          "type": "uint256"
        }
      ],
      "name": "landIds",
      "outputs": [
        {
          "internalType": "uint256",
          "name": "",
          "type": "uint256"
        }
      ],
      "payable": false,
      "stateMutability": "view",
      "type": "function"
    },
    {
      "constant": true,
      "inputs": [
        {
          "internalType": "uint256",
          "name": "",
          "type": "uint256"
        }
      ],
      "name": "lands",
      "outputs": [
        {
          "internalType": "uint256",
          "name": "id",
          "type": "uint256"
        },
        {
          "internalType": "uint256",
          "name": "area",
          "type": "uint256"
        },
        {
          "internalType": "string",
          "name": "city",
          "type": "string"
        },
        {
          "internalType": "string",
          "name": "state",
          "type": "string"
        },
        {
          "internalType": "uint256",
          "name": "landPrice",
          "type": "uint256"
        },
        {
          "internalType": "uint256",
          "name": "propertyPID",
          "type": "uint256"
        },
        {
          "internalType": "uint256",
          "name": "physicalSurveyNumber",
          "type": "uint256"
        },
        {
          "internalType": "string",
          "name": "ipfsHash",
          "type": "string"
        },
        {
          "internalType": "string",
          "name": "document",
          "type": "string"
        }
      ],
      "payable": false,
      "stateMutability": "view",
      "type": "function"
    },
    {
      "constant": true,
      "inputs": [],
      "name": "landsCount",
      "outputs": [
        {
          "internalType": "uint256",
          "name": "",
          "type": "uint256"
        }
      ],
      "payable": false,
      "stateMutability": "view",
      "type": "function"
    },
    {
      "constant": true,
      "inputs": [],
      "name": "requestsCount",
      "outputs": [
        {
          "internalType": "uint256",
          "name": "",
          "type": "uint256"
        }
      ],
      "payable": false,
      "stateMutability": "view",
      "type": "function"
    },
    {
      "constant": true,
      "inputs": [
        {
          "internalType": "address",
          "name": "",
          "type": "address"
        },
        {
          "internalType": "uint256",
          "name": "",
          "type": "uint256"
        }
      ],
      "name": "userOwnedLands",
      "outputs": [
        {
          "internalType": "uint256",
          "name": "",
          "type": "uint256"
        }
      ],
      "payable": false,
      "stateMutability": "view",
      "type": "function"
    },
    {
      "constant": true,
      "inputs": [
        {
          "internalType": "uint256",
          "name": "",
          "type": "uint256"
        }
      ],
      "name": "users",
      "outputs": [
        {
          "internalType": "address",
          "name": "",
          "type": "address"
        }
      ],
      "payable": false,
      "stateMutability": "view",
      "type": "function"
    },
    {
      "constant": true,
      "inputs": [],
      "name": "usersCount",
      "outputs": [
        {
          "internalType": "uint256",
          "name": "",
          "type": "uint256"
        }
      ],
      "payable": false,
      "stateMutability": "view",
      "type": "function"
    },
    {
      "constant": false,
      "inputs": [
        {
          "internalType": "uint256",
          "name": "_area",
          "type": "uint256"
        },
        {
          "internalType": "string",
          "name": "_city",
          "type": "string"
        },
        {
          "internalType": "string",
          "name": "_state",
          "type": "string"
        },
        {
          "internalType": "uint256",
          "name": "_landPrice",
          "type": "uint256"
        },
        {
          "internalType": "uint256",
          "name": "_propertyPID",
          "type": "uint256"
        },
        {
          "internalType": "uint256",
          "name": "_surveyNum",
          "type": "uint256"
        },
        {
          "internalType": "string",
          "name": "_ipfsHash",
          "type": "string"
        },
        {
          "internalType": "string",
          "name": "_document",
          "type": "string"
        }
      ],
      "name": "addLand",
      "outputs": [],
      "payable": false,
      "stateMutability": "nonpayable",
      "type": "function"
    },
    {
      "constant": true,
      "inputs": [],
      "name": "getAllLandIds",
      "outputs": [
        {
          "internalType": "uint256[]",
          "name": "",
          "type": "uint256[]"
        }
      ],
      "payable": false,
      "stateMutability": "view",
      "type": "function"
    },
    {
      "constant": false,
      "inputs": [
        {
          "internalType": "string",
          "name": "_name",
          "type": "string"
        },
        {
          "internalType": "uint256",
          "name": "_age",
          "type": "uint256"
        },
        {
          "internalType": "string",
          "name": "_city",
          "type": "string"
        },
        {
          "internalType": "string",
          "name": "_aadharNumber",
          "type": "string"
        },
        {
          "internalType": "string",
          "name": "_panNumber",
          "type": "string"
        },
        {
          "internalType": "string",
          "name": "_document",
          "type": "string"
        },
        {
          "internalType": "string",
          "name": "_email",
          "type": "string"
        }
      ],
      "name": "registerUser",
      "outputs": [],
      "payable": false,
      "stateMutability": "nonpayable",
      "type": "function"
    },
    {
      "constant": false,
      "inputs": [
        {
          "internalType": "address",
          "name": "_sellerId",
          "type": "address"
        },
        {
          "internalType": "uint256",
          "name": "_landId",
          "type": "uint256"
        }
      ],
      "name": "requestLand",
      "outputs": [],
      "payable": false,
      "stateMutability": "nonpayable",
      "type": "function"
    },
    {
      "constant": false,
      "inputs": [
        {
          "internalType": "uint256",
          "name": "_reqId",
          "type": "uint256"
        }
      ],
      "name": "approveRequest",
      "outputs": [],
      "payable": false,
      "stateMutability": "nonpayable",
      "type": "function"
    },
    {
      "constant": false,
      "inputs": [
        {
          "internalType": "address",
          "name": "_userId",
          "type": "address"
        }
      ],
      "name": "verifyUser",
      "outputs": [],
      "payable": false,
      "stateMutability": "nonpayable",
      "type": "function"
    },
    {
      "constant": false,
      "inputs": [
        {
          "internalType": "address",
          "name": "_userId",
          "type": "address"
        }
      ],
      "name": "rejectUser",
      "outputs": [],
      "payable": false,
      "stateMutability": "nonpayable",
      "type": "function"
    },
    {
      "constant": false,
      "inputs": [
        {
          "internalType": "uint256",
          "name": "_landId",
          "type": "uint256"
        }
      ],
      "name": "verifyLand",
      "outputs": [],
      "payable": false,
      "stateMutability": "nonpayable",
      "type": "function"
    },
    {
      "constant": true,
      "inputs": [
        {
          "internalType": "uint256",
          "name": "_id",
          "type": "uint256"
        }
      ],
      "name": "isLandVerified",
      "outputs": [
        {
          "internalType": "bool",
          "name": "",
          "type": "bool"
        }
      ],
      "payable": false,
      "stateMutability": "view",
      "type": "function"
    },
    {
      "constant": true,
      "inputs": [
        {
          "internalType": "address",
          "name": "_id",
          "type": "address"
        }
      ],
      "name": "isVerified",
      "outputs": [
        {
          "internalType": "bool",
          "name": "",
          "type": "bool"
        }
      ],
      "payable": false,
      "stateMutability": "view",
      "type": "function"
    },
    {
      "constant": true,
      "inputs": [
        {
          "internalType": "address",
          "name": "_id",
          "type": "address"
        }
      ],
      "name": "isRejected",
      "outputs": [
        {
          "internalType": "bool",
          "name": "",
          "type": "bool"
        }
      ],
      "payable": false,
      "stateMutability": "view",
      "type": "function"
    },
    {
      "constant": true,
      "inputs": [
        {
          "internalType": "address",
          "name": "_id",
          "type": "address"
        }
      ],
      "name": "isUser",
      "outputs": [
        {
          "internalType": "bool",
          "name": "",
          "type": "bool"
        }
      ],
      "payable": false,
      "stateMutability": "view",
      "type": "function"
    },
    {
      "constant": true,
      "inputs": [
        {
          "internalType": "address",
          "name": "_id",
          "type": "address"
        }
      ],
      "name": "isLandInspector",
      "outputs": [
        {
          "internalType": "bool",
          "name": "",
          "type": "bool"
        }
      ],
      "payable": false,
      "stateMutability": "view",
      "type": "function"
    },
    {
      "constant": true,
      "inputs": [
        {
          "internalType": "address",
          "name": "_id",
          "type": "address"
        }
      ],
      "name": "isRegistered",
      "outputs": [
        {
          "internalType": "bool",
          "name": "",
          "type": "bool"
        }
      ],
      "payable": false,
      "stateMutability": "view",
      "type": "function"
    },
    {
      "constant": true,
      "inputs": [],
      "name": "getLandsCount",
      "outputs": [
        {
          "internalType": "uint256",
          "name": "",
          "type": "uint256"
        }
      ],
      "payable": false,
      "stateMutability": "view",
      "type": "function"
    },
    {
      "constant": true,
      "inputs": [],
      "name": "getUsersCount",
      "outputs": [
        {
          "internalType": "uint256",
          "name": "",
          "type": "uint256"
        }
      ],
      "payable": false,
      "stateMutability": "view",
      "type": "function"
    },
    {
      "constant": true,
      "inputs": [],
      "name": "getUser",
      "outputs": [
        {
          "internalType": "address[]",
          "name": "",
          "type": "address[]"
        }
      ],
      "payable": false,
      "stateMutability": "view",
      "type": "function"
    },
    {
      "constant": true,
      "inputs": [
        {
          "internalType": "address",
          "name": "user",
          "type": "address"
        }
      ],
      "name": "getUserOwnedLands",
      "outputs": [
        {
          "internalType": "uint256[]",
          "name": "",
          "type": "uint256[]"
        }
      ],
      "payable": false,
      "stateMutability": "view",
      "type": "function"
    },
    {
      "constant": true,
      "inputs": [
        {
          "internalType": "uint256",
          "name": "landId",
          "type": "uint256"
        }
      ],
      "name": "getLandInfo",
      "outputs": [
        {
          "components": [
            {
              "internalType": "uint256",
              "name": "id",
              "type": "uint256"
            },
            {
              "internalType": "uint256",
              "name": "area",
              "type": "uint256"
            },
            {
              "internalType": "string",
              "name": "city",
              "type": "string"
            },
            {
              "internalType": "string",
              "name": "state",
              "type": "string"
            },
            {
              "internalType": "uint256",
              "name": "landPrice",
              "type": "uint256"
            },
            {
              "internalType": "uint256",
              "name": "propertyPID",
              "type": "uint256"
            },
            {
              "internalType": "uint256",
              "name": "physicalSurveyNumber",
              "type": "uint256"
            },
            {
              "internalType": "string",
              "name": "ipfsHash",
              "type": "string"
            },
            {
              "internalType": "string",
              "name": "document",
              "type": "string"
            }
          ],
          "internalType": "struct Land.Landreg",
          "name": "",
          "type": "tuple"
        }
      ],
      "payable": false,
      "stateMutability": "view",
      "type": "function"
    },
    {
      "constant": true,
      "inputs": [
        {
          "internalType": "address",
          "name": "i",
          "type": "address"
        }
      ],
      "name": "getBuyerDetails",
      "outputs": [
        {
          "internalType": "string",
          "name": "",
          "type": "string"
        },
        {
          "internalType": "string",
          "name": "",
          "type": "string"
        },
        {
          "internalType": "string",
          "name": "",
          "type": "string"
        },
        {
          "internalType": "string",
          "name": "",
          "type": "string"
        },
        {
          "internalType": "string",
          "name": "",
          "type": "string"
        },
        {
          "internalType": "uint256",
          "name": "",
          "type": "uint256"
        },
        {
          "internalType": "string",
          "name": "",
          "type": "string"
        }
      ],
      "payable": false,
      "stateMutability": "view",
      "type": "function"
    },
    {
      "constant": true,
      "inputs": [
        {
          "internalType": "uint256",
          "name": "i",
          "type": "uint256"
        }
      ],
      "name": "getRequestDetails",
      "outputs": [
        {
          "internalType": "address",
          "name": "",
          "type": "address"
        },
        {
          "internalType": "address",
          "name": "",
          "type": "address"
        },
        {
          "internalType": "uint256",
          "name": "",
          "type": "uint256"
        },
        {
          "internalType": "bool",
          "name": "",
          "type": "bool"
        }
      ],
      "payable": false,
      "stateMutability": "view",
      "type": "function"
    },
    {
      "constant": true,
      "inputs": [
        {
          "internalType": "uint256",
          "name": "_id",
          "type": "uint256"
        }
      ],
      "name": "isRequested",
      "outputs": [
        {
          "internalType": "bool",
          "name": "",
          "type": "bool"
        }
      ],
      "payable": false,
      "stateMutability": "view",
      "type": "function"
    },
    {
      "constant": true,
      "inputs": [
        {
          "internalType": "uint256",
          "name": "_id",
          "type": "uint256"
        }
      ],
      "name": "isApproved",
      "outputs": [
        {
          "internalType": "bool",
          "name": "",
          "type": "bool"
        }
      ],
      "payable": false,
      "stateMutability": "view",
      "type": "function"
    },
    {
      "constant": false,
      "inputs": [
        {
          "internalType": "uint256",
          "name": "_landId",
          "type": "uint256"
        },
        {
          "internalType": "address",
          "name": "_newOwner",
          "type": "address"
        }
      ],
      "name": "LandOwnershipTransfer",
      "outputs": [],
      "payable": false,
      "stateMutability": "nonpayable",
      "type": "function"
    },
    {
      "constant": true,
      "inputs": [
        {
          "internalType": "uint256",
          "name": "_landId",
          "type": "uint256"
        }
      ],
      "name": "isPaid",
      "outputs": [
        {
          "internalType": "bool",
          "name": "",
          "type": "bool"
        }
      ],
      "payable": false,
      "stateMutability": "view",
      "type": "function"
    },
    {
      "constant": false,
      "inputs": [
        {
          "internalType": "address payable",
          "name": "_receiver",
          "type": "address"
        },
        {
          "internalType": "uint256",
          "name": "_landId",
          "type": "uint256"
        },
        {
          "internalType": "uint256",
          "name": "_landPrice",
          "type": "uint256"
        }
      ],
      "name": "payment",
      "outputs": [],
      "payable": true,
      "stateMutability": "payable",
      "type": "function"
    }
  ],
  "bytecode": "0x60806040523480156200001157600080fd5b50600e8054600160a060020a03191633178155604080518082018252600b81527f496e73706563746f72203100000000000000000000000000000000000000000060208083019190915282518084019093529282527f54656873696c204d616e6167657200000000000000000000000000000000000092820192909252620000a69190602d90640100000000620000ac810204565b620001db565b60118054600190810191829055604080516080810182528381526020808201888152828401889052606083018790526000958652600282529290942081518155915180519194929362000106939085019291019062000136565b5060408201516002820155606082015180516200012e91600384019160209091019062000136565b505050505050565b828054600181600116156101000203166002900490600052602060002090601f016020900481019282601f106200017957805160ff1916838001178555620001a9565b82800160010185558215620001a9579182015b82811115620001a95782518255916020019190600101906200018c565b50620001b7929150620001bb565b5090565b620001d891905b80821115620001b75760008155600101620001c2565b90565b612ee480620001eb6000396000f3fe608060405260043610610325576000357c010000000000000000000000000000000000000000000000000000000090048063903a9451116101b7578063d7d1bbdb116100fe578063edfbe247116100a7578063f58f85b511610081578063f58f85b51461090a578063f9c43bdf1461092a578063fbfa4b7f1461094a57610325565b8063edfbe2471461089a578063f34d4c63146108ba578063f3f0c218146108ea57610325565b8063e165af87116100d8578063e165af8714610825578063e261f1e514610845578063e530c4001461087a57610325565b8063d7d1bbdb146107c0578063d7dee192146107e0578063def936c3146107f557610325565b8063b0a5dcd311610160578063c3c5a5471161013a578063c3c5a5471461074c578063cd392a831461076c578063d61ff68c1461078c57610325565b8063b0a5dcd3146106dc578063b9209e331461070c578063bed403c71461072c57610325565b80639dc1bfa9116101915780639dc1bfa914610687578063a4a1e263146106a7578063ac8afa8f146106bc57610325565b8063903a94511461063f578063941e24261461065f5780639b91293b1461067457610325565b80634d058d5a1161027b5780636cbf6cf811610224578063832880e7116101fe578063832880e7146105dd57806383546501146105ff57806389d213541461061f57610325565b80636cbf6cf8146105705780636f6f9bef146105905780637910867b146105bd57610325565b80634dc92885116102555780634dc928851461050857806368cfe6ee146105285780636ba13a821461055b57610325565b80634d058d5a146104a65780634d813120146104c65780634daa9dae146104e857610325565b806321ed6431116102dd5780634209fff1116102b75780634209fff11461043957806348a46bd3146104595780634ae1851b1461047957610325565b806321ed6431146103d957806332f2bb14146103f9578063365b98b21461041957610325565b8063170f39091161030e578063170f3909146103825780631a07f76e146103a45780631c9afd0f146103c457610325565b8063155fec721461032a57806316d9d66614610360575b600080fd5b34801561033657600080fd5b5061034a6103453660046125cd565b61095f565b6040516103579190612b83565b60405180910390f35b34801561036c57600080fd5b50610375610974565b6040516103579190612c81565b34801561038e57600080fd5b5061039761097b565b6040516103579190612a69565b3480156103b057600080fd5b5061034a6103bf3660046125cd565b61098a565b3480156103d057600080fd5b5061037561099f565b3480156103e557600080fd5b5061034a6103f43660046123f5565b6109a5565b34801561040557600080fd5b5061034a6104143660046123f5565b6109ba565b34801561042557600080fd5b506103976104343660046125cd565b6109cf565b34801561044557600080fd5b5061034a6104543660046123f5565b6109f6565b34801561046557600080fd5b5061034a6104743660046123f5565b610a14565b34801561048557600080fd5b506104996104943660046123f5565b610a32565b6040516103579190612b72565b3480156104b257600080fd5b506103756104c1366004612468565b610a9e565b3480156104d257600080fd5b506104e66104e13660046123f5565b610acc565b005b3480156104f457600080fd5b5061034a6105033660046125cd565b610b60565b34801561051457600080fd5b506104e66105233660046123f5565b610b75565b34801561053457600080fd5b506105486105433660046123f5565b610bf5565b6040516103579796959493929190612b91565b34801561056757600080fd5b50610375610fa6565b34801561057c57600080fd5b5061034a61058b3660046125cd565b610fac565b34801561059c57600080fd5b506105b06105ab3660046125cd565b610fc1565b6040516103579190612c70565b3480156105c957600080fd5b5061034a6105d83660046125cd565b611271565b3480156105e957600080fd5b506105f2611286565b6040516103579190612b5a565b34801561060b57600080fd5b5061034a61061a3660046125cd565b6112e8565b34801561062b57600080fd5b5061034a61063a3660046125cd565b6112fd565b34801561064b57600080fd5b5061037561065a3660046125cd565b611312565b34801561066b57600080fd5b50610375611330565b6104e661068236600461241b565b611336565b34801561069357600080fd5b506103976106a23660046125cd565b6113a6565b3480156106b357600080fd5b506103756113c1565b3480156106c857600080fd5b5061034a6106d73660046123f5565b6113c7565b3480156106e857600080fd5b506106fc6106f73660046125cd565b6113dc565b6040516103579493929190612c8f565b34801561071857600080fd5b5061034a6107273660046123f5565b611410565b34801561073857600080fd5b506104e66107473660046125eb565b61142e565b34801561075857600080fd5b5061034a6107673660046123f5565b61147b565b34801561077857600080fd5b5061034a6107873660046125cd565b611499565b34801561079857600080fd5b506107ac6107a73660046123f5565b6114ae565b604051610357989796959493929190612aba565b3480156107cc57600080fd5b506104e66107db3660046125cd565b61183a565b3480156107ec57600080fd5b506104996118ab565b34801561080157600080fd5b506108156108103660046125cd565b611902565b6040516103579493929190612cc4565b34801561083157600080fd5b5061034a6108403660046123f5565b611a3f565b34801561085157600080fd5b506108656108603660046125cd565b611a53565b60405161035799989796959493929190612d0f565b34801561088657600080fd5b506104e661089536600461261b565b611cc0565b3480156108a657600080fd5b506104e66108b53660046124a2565b611e9c565b3480156108c657600080fd5b506108da6108d53660046125cd565b6120b9565b6040516103579493929190612a85565b3480156108f657600080fd5b506104e6610905366004612468565b6120fb565b34801561091657600080fd5b5061034a6109253660046123f5565b61223e565b34801561093657600080fd5b506104e66109453660046125cd565b612253565b34801561095657600080fd5b5061037561229b565b6000908152600c602052604090205460ff1690565b6010545b90565b600e54600160a060020a031681565b600d6020526000908152604090205460ff1681565b60105481565b60076020526000908152604090205460ff1681565b60066020526000908152604090205460ff1681565b600f81815481106109dc57fe5b600091825260209091200154600160a060020a0316905081565b600160a060020a031660009081526006602052604090205460ff1690565b600160a060020a031660009081526008602052604090205460ff1690565b600160a060020a038116600090815260016020908152604091829020805483518184028101840190945280845260609392830182828015610a9257602002820191906000526020600020905b815481526020019060010190808311610a7e575b50505050509050919050565b60016020528160005260406000208181548110610ab757fe5b90600052602060002001600091509150505481565b600e54600160a060020a03163314610b025760405160e560020a62461bcd028152600401610af990612c40565b60405180910390fd5b600160a060020a03811660009081526007602052604090819020805460ff19166001179055517f6a6455914f452787eb3985452aceedc1000fb545e394eb3b370e3d08958e0a5b90610b55908390612a69565b60405180910390a150565b600c6020526000908152604090205460ff1681565b600e54600160a060020a03163314610ba25760405160e560020a62461bcd028152600401610af990612c40565b600160a060020a03811660009081526008602052604090819020805460ff19166001179055517faf77f8960cf590e245ec8b6d41c193a5dcacad8986ae4eb57ac9e5be7b6af03190610b55908390612a69565b600160a060020a03811660009081526003602081815260408084206002808201546001808401805486519281161561010002600019011693909304601f81018790048702820187019095528481526060978897889788978897939688969095938501946005810194600682019460078301946004909301928991830182828015610cc05780601f10610c9557610100808354040283529160200191610cc0565b820191906000526020600020905b815481529060010190602001808311610ca357829003601f168201915b5050895460408051602060026001851615610100026000190190941693909304601f8101849004840282018401909252818152959c508b945092508401905082828015610d4e5780601f10610d2357610100808354040283529160200191610d4e565b820191906000526020600020905b815481529060010190602001808311610d3157829003601f168201915b5050885460408051602060026001851615610100026000190190941693909304601f8101849004840282018401909252818152959b508a945092508401905082828015610ddc5780601f10610db157610100808354040283529160200191610ddc565b820191906000526020600020905b815481529060010190602001808311610dbf57829003601f168201915b5050875460408051602060026001851615610100026000190190941693909304601f8101849004840282018401909252818152959a5089945092508401905082828015610e6a5780601f10610e3f57610100808354040283529160200191610e6a565b820191906000526020600020905b815481529060010190602001808311610e4d57829003601f168201915b5050865460408051602060026001851615610100026000190190941693909304601f810184900484028201840190925281815295995088945092508401905082828015610ef85780601f10610ecd57610100808354040283529160200191610ef8565b820191906000526020600020905b815481529060010190602001808311610edb57829003601f168201915b5050845460408051602060026001851615610100026000190190941693909304601f810184900484028201840190925281815295985086945092508401905082828015610f865780601f10610f5b57610100808354040283529160200191610f86565b820191906000526020600020905b815481529060010190602001808311610f6957829003601f168201915b505050505090509650965096509650965096509650919395979092949650565b60125481565b60009081526009602052604090205460ff1690565b610fc96122a1565b6000828152602081815260409182902082516101208101845281548152600180830154828501526002808401805487519381161561010002600019011691909104601f810186900486028301860187528083529295939493860193919290918301828280156110795780601f1061104e57610100808354040283529160200191611079565b820191906000526020600020905b81548152906001019060200180831161105c57829003601f168201915b505050918352505060038201805460408051602060026001851615610100026000190190941693909304601f810184900484028201840190925281815293820193929183018282801561110d5780601f106110e25761010080835404028352916020019161110d565b820191906000526020600020905b8154815290600101906020018083116110f057829003601f168201915b50505050508152602001600482015481526020016005820154815260200160068201548152602001600782018054600181600116156101000203166002900480601f0160208091040260200160405190810160405280929190818152602001828054600181600116156101000203166002900480156111cd5780601f106111a2576101008083540402835291602001916111cd565b820191906000526020600020905b8154815290600101906020018083116111b057829003601f168201915b505050918352505060088201805460408051602060026001851615610100026000190190941693909304601f81018490048402820184019092528181529382019392918301828280156112615780601f1061123657610100808354040283529160200191611261565b820191906000526020600020905b81548152906001019060200180831161124457829003601f168201915b5050505050815250509050919050565b6000908152600b602052604090205460ff1690565b6060600f8054806020026020016040519081016040528092919081815260200182805480156112de57602002820191906000526020600020905b8154600160a060020a031681526001909101906020018083116112c0575b5050505050905090565b60096020526000908152604090205460ff1681565b600b6020526000908152604090205460ff1681565b6014818154811061131f57fe5b600091825260209091200154905081565b60115481565b803410156113595760405160e560020a62461bcd028152600401610af990612c50565b6000828152600d6020526040808220805460ff1916600117905551600160a060020a0385169183156108fc02918491818181858888f193505050501580156113a057600080fd5b50505050565b600a60205260009081526040902054600160a060020a031681565b60125490565b60086020526000908152604090205460ff1681565b60046020526000908152604090208054600182015460028301546003909301549192600160a060020a039182169291169084565b600160a060020a031660009081526007602052604090205460ff1690565b61143733611a3f565b61144057600080fd5b6000918252600a6020526040909120805473ffffffffffffffffffffffffffffffffffffffff1916600160a060020a03909216919091179055565b600160a060020a031660009081526005602052604090205460ff1690565b6000908152600d602052604090205460ff1690565b6003602090815260009182526040918290208054600180830180548651600261010094831615949094026000190190911692909204601f8101869004860283018601909652858252600160a060020a039092169492939092908301828280156115585780601f1061152d57610100808354040283529160200191611558565b820191906000526020600020905b81548152906001019060200180831161153b57829003601f168201915b505050506002838101546003850180546040805160206001841615610100026000190190931695909504601f8101839004830286018301909152808552959692959294509091908301828280156115f05780601f106115c5576101008083540402835291602001916115f0565b820191906000526020600020905b8154815290600101906020018083116115d357829003601f168201915b5050505060048301805460408051602060026001851615610100026000190190941693909304601f81018490048402820184019092528181529495949350908301828280156116805780601f1061165557610100808354040283529160200191611680565b820191906000526020600020905b81548152906001019060200180831161166357829003601f168201915b5050505060058301805460408051602060026001851615610100026000190190941693909304601f81018490048402820184019092528181529495949350908301828280156117105780601f106116e557610100808354040283529160200191611710565b820191906000526020600020905b8154815290600101906020018083116116f357829003601f168201915b5050505060068301805460408051602060026001851615610100026000190190941693909304601f81018490048402820184019092528181529495949350908301828280156117a05780601f10611775576101008083540402835291602001916117a0565b820191906000526020600020905b81548152906001019060200180831161178357829003601f168201915b5050505060078301805460408051602060026001851615610100026000190190941693909304601f81018490048402820184019092528181529495949350908301828280156118305780601f1061180557610100808354040283529160200191611830565b820191906000526020600020905b81548152906001019060200180831161181357829003601f168201915b5050505050905088565b611843336109f6565b6118625760405160e560020a62461bcd028152600401610af990612c20565b6000818152600b602052604090819020805460ff19166001179055517fbecbbd7543b68baaaf7e9c3fd12e4719f1f506f4253abef4a6573d0adf3a73ed90610b55908390612c81565b606060148054806020026020016040519081016040528092919081815260200182805480156112de57602002820191906000526020600020905b8154815260200190600101908083116118e5575050505050905090565b60026020818152600092835260409283902080546001808301805487519281161561010002600019011695909504601f810185900485028201850190965285815290949193909290919083018282801561199d5780601f106119725761010080835404028352916020019161199d565b820191906000526020600020905b81548152906001019060200180831161198057829003601f168201915b505050506002838101546003850180546040805160206001841615610100026000190190931695909504601f810183900483028601830190915280855295969295929450909190830182828015611a355780601f10611a0a57610100808354040283529160200191611a35565b820191906000526020600020905b815481529060010190602001808311611a1857829003601f168201915b5050505050905084565b600e54600160a060020a0391821691161490565b6000602081815291815260409081902080546001808301546002808501805487519481161561010002600019011691909104601f81018890048802840188019096528583529295909491929190830182828015611af15780601f10611ac657610100808354040283529160200191611af1565b820191906000526020600020905b815481529060010190602001808311611ad457829003601f168201915b5050505060038301805460408051602060026001851615610100026000190190941693909304601f8101849004840282018401909252818152949594935090830182828015611b815780601f10611b5657610100808354040283529160200191611b81565b820191906000526020600020905b815481529060010190602001808311611b6457829003601f168201915b505050600484015460058501546006860154600787018054604080516020601f60026000196101006001881615020190951694909404938401819004810282018101909252828152989995989497509295509091830182828015611c265780601f10611bfb57610100808354040283529160200191611c26565b820191906000526020600020905b815481529060010190602001808311611c0957829003601f168201915b5050505060088301805460408051602060026001851615610100026000190190941693909304601f8101849004840282018401909252818152949594935090830182828015611cb65780601f10611c8b57610100808354040283529160200191611cb6565b820191906000526020600020905b815481529060010190602001808311611c9957829003601f168201915b5050505050905089565b611cc9336109f6565b611ce85760405160e560020a62461bcd028152600401610af990612c20565b611cf133611410565b611d105760405160e560020a62461bcd028152600401610af990612c30565b60108054600190810191829055604080516101208101825283815260208082018d81528284018d8152606084018d9052608084018c905260a084018b905260c084018a905260e0840189905261010084018890526000968752868352939095208251815594519385019390935590518051919392611d96926002850192909101906122ed565b5060608201518051611db29160038401916020909101906122ed565b506080820151600482015560a0820151600582015560c0820151600682015560e08201518051611dec9160078401916020909101906122ed565b506101008201518051611e099160088401916020909101906122ed565b5050601080546000908152600a60209081526040808320805473ffffffffffffffffffffffffffffffffffffffff19163390811790915583526001808352908320845481548084018355918552928420019190915591546014805493840181559091527fce6d7b5282bd9a3661ae061feed1dbda4e52ab073b1f9285be6e155d9c38d4ec90910155505050505050505050565b3360009081526005602052604090205460ff1615611ecf5760405160e560020a62461bcd028152600401610af990612c60565b3360008181526005602090815260408083208054600160ff1991821681179092556006845282852080549091168217905560128054820190558151610100810183528581528084018d81528184018d9052606082018c9052608082018b905260a082018a905260c0820189905260e0820188905295855260038452919093208151815473ffffffffffffffffffffffffffffffffffffffff1916600160a060020a0390911617815593518051919493611f8e93908501929101906122ed565b506040820151600282015560608201518051611fb49160038401916020909101906122ed565b5060808201518051611fd09160048401916020909101906122ed565b5060a08201518051611fec9160058401916020909101906122ed565b5060c082015180516120089160068401916020909101906122ed565b5060e082015180516120249160078401916020909101906122ed565b5050600f80546001810182556000919091527f8d1108e10bcb7c27dddfc02ed9d693a074039d026cf4ea4240b40f7d581ac80201805473ffffffffffffffffffffffffffffffffffffffff1916339081179091556040517f478f5152d8fc568db3f8de9fb402fd9d98a1a7541ecfe434e59cf574fbfc552492506120a89190612a77565b60405180910390a150505050505050565b600090815260046020908152604080832060018101546002820154600390920154600b9094529190932054600160a060020a0391821694919093169260ff1690565b612104336109f6565b6121235760405160e560020a62461bcd028152600401610af990612c20565b61212c33611410565b61214b5760405160e560020a62461bcd028152600401610af990612c30565b60138054600190810180835560408051608081018252828152600160a060020a03808816602080840191825233848601908152606085018a8152600097885260048352868820955186559251858901805491861673ffffffffffffffffffffffffffffffffffffffff199283161790559051600286018054919095169116179092555160039092019190915584548352600b8152818320805460ff1990811690915594548352600c9052908190208054909316909117909155517f226be41bcaf9760851410ade1cd6450b48b6b4d0adc46c61ea33b5a37b41bad790612232908490612a69565b60405180910390a15050565b60056020526000908152604090205460ff1681565b600e54600160a060020a031633146122805760405160e560020a62461bcd028152600401610af990612c40565b6000908152600960205260409020805460ff19166001179055565b60135481565b6040518061012001604052806000815260200160008152602001606081526020016060815260200160008152602001600081526020016000815260200160608152602001606081525090565b828054600181600116156101000203166002900490600052602060002090601f016020900481019282601f1061232e57805160ff191683800117855561235b565b8280016001018555821561235b579182015b8281111561235b578251825591602001919060010190612340565b5061236792915061236b565b5090565b61097891905b808211156123675760008155600101612371565b803561239081612e81565b92915050565b600082601f8301126123a757600080fd5b81356123ba6123b582612dd7565b612db0565b915080825260208301602083018583830111156123d657600080fd5b6123e1838284612e3f565b50505092915050565b803561239081612e98565b60006020828403121561240757600080fd5b60006124138484612385565b949350505050565b60008060006060848603121561243057600080fd5b600061243c8686612385565b935050602061244d868287016123ea565b925050604061245e868287016123ea565b9150509250925092565b6000806040838503121561247b57600080fd5b60006124878585612385565b9250506020612498858286016123ea565b9150509250929050565b600080600080600080600060e0888a0312156124bd57600080fd5b873567ffffffffffffffff8111156124d457600080fd5b6124e08a828b01612396565b97505060206124f18a828b016123ea565b965050604088013567ffffffffffffffff81111561250e57600080fd5b61251a8a828b01612396565b955050606088013567ffffffffffffffff81111561253757600080fd5b6125438a828b01612396565b945050608088013567ffffffffffffffff81111561256057600080fd5b61256c8a828b01612396565b93505060a088013567ffffffffffffffff81111561258957600080fd5b6125958a828b01612396565b92505060c088013567ffffffffffffffff8111156125b257600080fd5b6125be8a828b01612396565b91505092959891949750929550565b6000602082840312156125df57600080fd5b600061241384846123ea565b600080604083850312156125fe57600080fd5b600061260a85856123ea565b925050602061249885828601612385565b600080600080600080600080610100898b03121561263857600080fd5b60006126448b8b6123ea565b985050602089013567ffffffffffffffff81111561266157600080fd5b61266d8b828c01612396565b975050604089013567ffffffffffffffff81111561268a57600080fd5b6126968b828c01612396565b96505060606126a78b828c016123ea565b95505060806126b88b828c016123ea565b94505060a06126c98b828c016123ea565b93505060c089013567ffffffffffffffff8111156126e657600080fd5b6126f28b828c01612396565b92505060e089013567ffffffffffffffff81111561270f57600080fd5b61271b8b828c01612396565b9150509295985092959890939650565b6000612737838361275a565b505060200190565b60006127378383612a60565b61275481612e2e565b82525050565b61275481612e12565b600061276e82612e05565b6127788185612e09565b935061278383612dff565b8060005b838110156127b157815161279b888261272b565b97506127a683612dff565b925050600101612787565b509495945050505050565b60006127c782612e05565b6127d18185612e09565b93506127dc83612dff565b8060005b838110156127b15781516127f4888261273f565b97506127ff83612dff565b9250506001016127e0565b61275481612e1d565b600061281e82612e05565b6128288185612e09565b9350612838818560208601612e4b565b61284181612e77565b9093019392505050565b6000612858601f83612e09565b7f43616c6c6572206973206e6f7420612072656769737465726564205573657200815260200192915050565b6000612891601483612e09565b7f55736572206973206e6f74207665726966696564000000000000000000000000815260200192915050565b60006128ca602a83612e09565b7f4f6e6c79206c616e6420696e73706563746f722063616e2063616c6c2074686981527f732066756e6374696f6e00000000000000000000000000000000000000000000602082015260400192915050565b6000612929601b83612e09565b7f496e73756666696369656e74207061796d656e7420616d6f756e740000000000815260200192915050565b6000612962601a83612e09565b7f5573657220697320616c72656164792072656769737465726564000000000000815260200192915050565b80516000906101208401906129a38582612a60565b5060208301516129b66020860182612a60565b50604083015184820360408601526129ce8282612813565b915050606083015184820360608601526129e88282612813565b91505060808301516129fd6080860182612a60565b5060a0830151612a1060a0860182612a60565b5060c0830151612a2360c0860182612a60565b5060e083015184820360e0860152612a3b8282612813565b915050610100830151848203610100860152612a578282612813565b95945050505050565b61275481610978565b60208101612390828461275a565b60208101612390828461274b565b60808101612a93828761275a565b612aa0602083018661275a565b612aad6040830185612a60565b612a57606083018461280a565b6101008101612ac9828b61275a565b8181036020830152612adb818a612813565b9050612aea6040830189612a60565b8181036060830152612afc8188612813565b90508181036080830152612b108187612813565b905081810360a0830152612b248186612813565b905081810360c0830152612b388185612813565b905081810360e0830152612b4c8184612813565b9a9950505050505050505050565b60208082528101612b6b8184612763565b9392505050565b60208082528101612b6b81846127bc565b60208101612390828461280a565b60e08082528101612ba2818a612813565b90508181036020830152612bb68189612813565b90508181036040830152612bca8188612813565b90508181036060830152612bde8187612813565b90508181036080830152612bf28186612813565b9050612c0160a0830185612a60565b81810360c0830152612c138184612813565b9998505050505050505050565b602080825281016123908161284b565b6020808252810161239081612884565b60208082528101612390816128bd565b602080825281016123908161291c565b6020808252810161239081612955565b60208082528101612b6b818461298e565b602081016123908284612a60565b60808101612c9d8287612a60565b612caa602083018661275a565b612cb7604083018561275a565b612a576060830184612a60565b60808101612cd28287612a60565b8181036020830152612ce48186612813565b9050612cf36040830185612a60565b8181036060830152612d058184612813565b9695505050505050565b6101208101612d1e828c612a60565b612d2b602083018b612a60565b8181036040830152612d3d818a612813565b90508181036060830152612d518189612813565b9050612d606080830188612a60565b612d6d60a0830187612a60565b612d7a60c0830186612a60565b81810360e0830152612d8c8185612813565b9050818103610100830152612da18184612813565b9b9a5050505050505050505050565b60405181810167ffffffffffffffff81118282101715612dcf57600080fd5b604052919050565b600067ffffffffffffffff821115612dee57600080fd5b506020601f91909101601f19160190565b60200190565b5190565b90815260200190565b600061239082612e22565b151590565b600160a060020a031690565b600061239082600061239082612e12565b82818337506000910152565b60005b83811015612e66578181015183820152602001612e4e565b838111156113a05750506000910152565b601f01601f191690565b612e8a81612e12565b8114612e9557600080fd5b50565b612e8a8161097856fea365627a7a72315820a2489f6de435958ef9366c4c1ed60feecb9a78582368e35cbe8f124169f201456c6578706572696d656e74616cf564736f6c63430005100040",
  "source": "// SPDX-License-Identifier: GPL-3.0\r\n\r\npragma solidity >=0.5.2;\r\npragma experimental ABIEncoderV2;\r\n\r\ncontract Land {\r\n    struct Landreg {\r\n        uint id;\r\n        uint area;\r\n        string city;\r\n        string state;\r\n        uint landPrice;\r\n        uint propertyPID;\r\n        uint physicalSurveyNumber;\r\n        string ipfsHash;\r\n        string document;\r\n    }\r\n\r\n    struct User {\r\n        address id;\r\n        string name;\r\n        uint age;\r\n        string city;\r\n        string aadharNumber;\r\n        string panNumber;\r\n        string document;\r\n        string email;\r\n    }\r\n\r\n    struct LandInspector {\r\n        uint id;\r\n        string name;\r\n        uint age;\r\n        string designation;\r\n    }\r\n\r\n    struct LandRequest {\r\n        uint reqId;\r\n        address sellerId;\r\n        address buyerId;\r\n        uint landId;\r\n    }\r\n\r\n    mapping(uint => Landreg) public lands;\r\n    mapping(address => uint[]) public userOwnedLands;\r\n    mapping(uint => LandInspector) public InspectorMapping;\r\n    mapping(address => User) public UserMapping;\r\n    mapping(uint => LandRequest) public RequestsMapping;\r\n\r\n    mapping(address => bool) public RegisteredAddressMapping;\r\n    mapping(address => bool) public RegisteredUserMapping;\r\n    mapping(address => bool) public UserVerification;\r\n    mapping(address => bool) public UserRejection;\r\n    mapping(uint => bool) public LandVerification;\r\n    mapping(uint => address) public LandOwner;\r\n    mapping(uint => bool) public RequestStatus;\r\n    mapping(uint => bool) public RequestedLands;\r\n    mapping(uint => bool) public PaymentReceived;\r\n\r\n    address public Land_Inspector;\r\n    address[] public users;\r\n    uint public landsCount;\r\n    uint public inspectorsCount;\r\n    uint public usersCount;\r\n    uint public requestsCount;\r\n    uint[] public landIds;\r\n\r\n    event Registration(address _registrationId);\r\n    event LandRequested(address _sellerId);\r\n    event RequestApproved(uint _reqId);\r\n    event Verified(address _id);\r\n    event Rejected(address _id);\r\n\r\n    modifier onlyLandInspector() {\r\n        require(\r\n            msg.sender == Land_Inspector,\r\n            \"Only land inspector can call this function\"\r\n        );\r\n        _;\r\n    }\r\n    modifier onlyUser() {\r\n        require(isUser(msg.sender), \"Caller is not a registered User\");\r\n        _;\r\n    }\r\n\r\n    constructor() public {\r\n        Land_Inspector = msg.sender;\r\n        addLandInspector(\"Inspector 1\", 45, \"Tehsil Manager\");\r\n    }\r\n\r\n    function addLandInspector(\r\n        string memory _name,\r\n        uint _age,\r\n        string memory _designation\r\n    ) private {\r\n        inspectorsCount++;\r\n        InspectorMapping[inspectorsCount] = LandInspector(\r\n            inspectorsCount,\r\n            _name,\r\n            _age,\r\n            _designation\r\n        );\r\n    }\r\n\r\n    function addLand(\r\n        uint _area,\r\n        string memory _city,\r\n        string memory _state,\r\n        uint _landPrice,\r\n        uint _propertyPID,\r\n        uint _surveyNum,\r\n        string memory _ipfsHash,\r\n        string memory _document\r\n    ) public onlyUser {\r\n        require(isVerified(msg.sender), \"User is not verified\");\r\n\r\n        landsCount++;\r\n        lands[landsCount] = Landreg(\r\n            landsCount,\r\n            _area,\r\n            _city,\r\n            _state,\r\n            _landPrice,\r\n            _propertyPID,\r\n            _surveyNum,\r\n            _ipfsHash,\r\n            _document\r\n        );\r\n        LandOwner[landsCount] = msg.sender;\r\n        userOwnedLands[msg.sender].push(landsCount);\r\n        landIds.push(landsCount);\r\n    }\r\n\r\n    function getAllLandIds() public view returns (uint[] memory) {\r\n        return landIds;\r\n    }\r\n\r\n    function registerUser(\r\n        string memory _name,\r\n        uint _age,\r\n        string memory _city,\r\n        string memory _aadharNumber,\r\n        string memory _panNumber,\r\n        string memory _document,\r\n        string memory _email\r\n    ) public {\r\n        require(\r\n            !RegisteredAddressMapping[msg.sender],\r\n            \"User is already registered\"\r\n        );\r\n\r\n        RegisteredAddressMapping[msg.sender] = true;\r\n        RegisteredUserMapping[msg.sender] = true;\r\n        usersCount++;\r\n        UserMapping[msg.sender] = User(\r\n            msg.sender,\r\n            _name,\r\n            _age,\r\n            _city,\r\n            _aadharNumber,\r\n            _panNumber,\r\n            _document,\r\n            _email\r\n        );\r\n        users.push(msg.sender);\r\n\r\n        emit Registration(msg.sender);\r\n    }\r\n\r\n    function requestLand(address _sellerId, uint _landId) public onlyUser {\r\n        require(isVerified(msg.sender), \"User is not verified\");\r\n\r\n        requestsCount++;\r\n        RequestsMapping[requestsCount] = LandRequest(\r\n            requestsCount,\r\n            _sellerId,\r\n            msg.sender,\r\n            _landId\r\n        );\r\n        RequestStatus[requestsCount] = false;\r\n        RequestedLands[requestsCount] = true;\r\n\r\n        emit LandRequested(_sellerId);\r\n    }\r\n\r\n    function approveRequest(uint _reqId) public onlyUser {\r\n        RequestStatus[_reqId] = true;\r\n\r\n        emit RequestApproved(_reqId);\r\n    }\r\n\r\n    function verifyUser(address _userId) public onlyLandInspector {\r\n        UserVerification[_userId] = true;\r\n        emit Verified(_userId);\r\n    }\r\n\r\n    function rejectUser(address _userId) public onlyLandInspector {\r\n        UserRejection[_userId] = true;\r\n        emit Rejected(_userId);\r\n    }\r\n\r\n    function verifyLand(uint _landId) public onlyLandInspector {\r\n        LandVerification[_landId] = true;\r\n    }\r\n\r\n    function isLandVerified(uint _id) public view returns (bool) {\r\n        return LandVerification[_id];\r\n    }\r\n\r\n    function isVerified(address _id) public view returns (bool) {\r\n        return UserVerification[_id];\r\n    }\r\n\r\n    function isRejected(address _id) public view returns (bool) {\r\n        return UserRejection[_id];\r\n    }\r\n\r\n    function isUser(address _id) public view returns (bool) {\r\n        return RegisteredUserMapping[_id];\r\n    }\r\n\r\n    function isLandInspector(address _id) public view returns (bool) {\r\n        return Land_Inspector == _id;\r\n    }\r\n\r\n    function isRegistered(address _id) public view returns (bool) {\r\n        return RegisteredAddressMapping[_id];\r\n    }\r\n\r\n    function getLandsCount() public view returns (uint) {\r\n        return landsCount;\r\n    }\r\n\r\n    function getUsersCount() public view returns (uint) {\r\n        return usersCount;\r\n    }\r\n\r\n    function getUser() public view returns (address[] memory) {\r\n        return (users);\r\n    }\r\n\r\n    function getUserOwnedLands(\r\n        address user\r\n    ) public view returns (uint[] memory) {\r\n        return userOwnedLands[user];\r\n    }\r\n\r\n    function getLandInfo(uint landId) public view returns (Landreg memory) {\r\n        return lands[landId];\r\n    }\r\n\r\n    function getBuyerDetails(\r\n        address i\r\n    )\r\n        public\r\n        view\r\n        returns (\r\n            string memory,\r\n            string memory,\r\n            string memory,\r\n            string memory,\r\n            string memory,\r\n            uint,\r\n            string memory\r\n        )\r\n    {\r\n        return (\r\n            UserMapping[i].name,\r\n            UserMapping[i].city,\r\n            UserMapping[i].panNumber,\r\n            UserMapping[i].document,\r\n            UserMapping[i].email,\r\n            UserMapping[i].age,\r\n            UserMapping[i].aadharNumber\r\n        );\r\n    }\r\n\r\n    function getRequestDetails(\r\n        uint i\r\n    ) public view returns (address, address, uint, bool) {\r\n        return (\r\n            RequestsMapping[i].sellerId,\r\n            RequestsMapping[i].buyerId,\r\n            RequestsMapping[i].landId,\r\n            RequestStatus[i]\r\n        );\r\n    }\r\n\r\n    function isRequested(uint _id) public view returns (bool) {\r\n        return RequestedLands[_id];\r\n    }\r\n\r\n    function isApproved(uint _id) public view returns (bool) {\r\n        return RequestStatus[_id];\r\n    }\r\n\r\n    function LandOwnershipTransfer(uint _landId, address _newOwner) public {\r\n        require(isLandInspector(msg.sender));\r\n\r\n        LandOwner[_landId] = _newOwner;\r\n    }\r\n\r\n    function isPaid(uint _landId) public view returns (bool) {\r\n        return PaymentReceived[_landId];\r\n    }\r\n\r\n    function payment(\r\n        address payable _receiver,\r\n        uint _landId,\r\n        uint _landPrice\r\n    ) public payable {\r\n        require(msg.value >= _landPrice, \"Insufficient payment amount\");\r\n\r\n        PaymentReceived[_landId] = true;\r\n        _receiver.transfer(_landPrice);\r\n    }\r\n}\r\n",
  "sourcePath": "C:\\College Projects\\blockchain-project\\contracts\\Land.sol",
  "compiler": {
    "name": "solc",
    "version": "0.5.16+commit.9c3226ce.Emscripten.clang"
  },
  "schemaVersion": "3.4.16",
  "updatedAt": "2024-04-11T07:59:23.066Z",
  "networkType": "ethereum",
  "devdoc": {
    "methods": {}
  },
  "userdoc": {
    "methods": {}
  }
}